:020000040800F2
:100000000000032039FC020827630208436302084A
:100010005F6302087B630208976302080000000028
:1000200000000000000000000000000089FC020841
:10003000B36302080000000089FC0208CF630208D5
:1000400089FC020889FC020889FC020889FC020874
:1000500089FC020889FC020889FC020889FC020864
:1000600089FC020889FC020889FC020889FC020854
:1000700089FC020889FC020889FC020889FC020844
:1000800089FC020889FC020889FC020889FC020834
:1000900089FC020889FC020889FC020889FC020824
:1000A00089FC020889FC020889FC020889FC020814
:1000B00089FC020889FC020889FC020889FC020804
:1000C00089FC020889FC020889FC020889FC0208F4
:1000D00089FC020889FC020889FC020889FC0208E4
:1000E00089FC020889FC020889FC020889FC0208D4
:1000F00089FC020889FC020889FC020889FC0208C4
:1001000089FC020889FC020889FC020889FC0208B3
:1001100089FC020889FC020889FC020889FC0208A3
:1001200089FC020889FC020889FC020889FC020893
:1001300089FC0208DF63020889FC020889FC0208C6
:1001400089FC020889FC020889FC020889FC020873
:1001500089FC020889FC020889FC020889FC020863
:1001600089FC020889FC020889FC020889FC020853
:1001700089FC020889FC020889FC020800000000D2
:1001800089FC020889FC020889FC020889FC020833
:1001900089FC020889FC020889FC020889FC020823
:0C01A00089FC020889FC020889FC0208A6
:1001C0000348044B834202D0034B03B118477047E6
:1001D000F4060020F4060020000000000548064B4D
:1001E0001B1AD90F01EBA301491002D0034B03B135
:1001F00018477047F4060020F406002000000000B5
:1002000010B5064C237843B9FFF7DAFF044B13B15E
:100210000448AFF300800123237010BDF4060020D2
:1002200000000000A0FC020808B5044B1BB1044903
:100230000448AFF30080BDE80840CFE700000000AD
:10024000F8060020A0FC0208A3F5803A704700BF22
:10025000154B002B08BF114B9D46FFF7F5FF002102
:100260008B460F461148124A121A27F0F5FD0C4B27
:10027000002B00D098470B4B002B00D09847002054
:10028000002104000D000B4829F0C6F829F0E2F91E
:100290002000290000F010F829F0B0F80000080054
:1002A000000000000000000000000000F406002034
:1002B0003C0C002045850208F0B597B002AF03F072
:1002C0008BFE00F095F8464B07F124041D460FCD38
:1002D0000FC42B6823600123BB6407F108037B6014
:1002E0007A6A7B6802F596721A60BA6A7B6802F5D0
:1002F00096725A607B6801221A757B6832221A61F5
:100300004FF4A0737B64F0233B64364BFB63F86BC4
:100310002EF082FC30A3D3E900232EF0D5FC024658
:100320000B46104619462EF0A7FF0346BB63FB6A37
:100330002D4918462EF0F6FF0346FB620023FB64AE
:1003400037E07B6A18462FF0A1F80446BB6A1846CE
:100350002FF09CF805467968FA6C1346DB009B1A6F
:100360009B000B441B6818462FF090F806467968EE
:10037000FA6C1346DB009B1A9B000B445B68184623
:100380002FF084F803464FF00002009232462946CF
:10039000204601F0A5FB7968FA6C1346DB009B1A36
:1003A0009B00CC182FF08CFA0346A361FB6C013341
:1003B000FB64FA6CBB6C9A42C3DB07F12401BB6C93
:1003C00001933B1D00937B6C3A6C084801F0D8FB0D
:1003D0001E2003F0E3FE98E7399D52A246DF913FCD
:1003E000E4FC020800008C420000A0406C070020E2
:1003F00080B500AF00F09CFA002000F068FC4FF6DA
:10040000FF7000F048FF00BF80BD90B587B004AF1B
:10041000674B1B680133664A1360654B1A68654B6E
:1004200083FB0213D910D317C91A0B469B000B4448
:100430009B00D11A8BB21433FB805D4B1B68DA0F23
:1004400013445B1019465B4B83FB0123DA10CB1777
:10045000D21A13469B0013449B00CA1A93B214335A
:10046000BB80554BB3F90000544BB3F90010544B0B
:100470001A88544B1C88002303934FF6E0730293B1
:10048000BB880193FB880093234601F01DF84C4A7A
:10049000FB8813804B4ABB88138000214A4801F037
:1004A00040FA434B1968434B83FB01239A10CB1747
:1004B000D21A13469B0013445B00CA1A042A01DCBB
:1004C000022301E06FF001037B80394B1B685A4225
:1004D00003F0070302F0070258BF5342032B02DC6C
:1004E0004FF0FF3300E001233B80B7F90030B7F94C
:1004F00002203649344801F0A1F940F2FF71324838
:1005000001F0DCF90021324801F08BFA284B1A681F
:10051000304B83FB02131344D910D317C91A0B466F
:100520001B015B1AD11A4B1D294A13614FF6E0716A
:10053000274801F03AFA284BB3F90000274BB3F9EA
:100540000010274BB3F90020264BB3F900300024EC
:10055000009401F022F81C4B9B6818B21A4BDB6820
:1005600019B21B4B1B681AB2194B5B681BB24FF6D2
:100570001F04009401F011F8134B9B681AB2164B3C
:100580001A80114BDB681AB2144B1A80104B1B688F
:100590001AB2134B1A800E4B5B681AB2114B1A80B9
:1005A0001E2003F0FBFD00BF0C37BD4690BD00BF11
:1005B000FC08002067666666040000200600002034
:1005C000080000200A0000202C070020100700204F
:1005D000440700208988888860070020620700207F
:1005E000640700206607002080B483B000AF034694
:1005F000FB7100BF0A4B9B6803F00203002BF9D08C
:10060000074AFB79D36000BF054B9B6803F080036A
:10061000002BF9D100BF00BF0C37BD4680BC70472E
:100620000030014080B582B000AF0346FB7100226C
:1006300080210A4809F051FE00224021084809F0B3
:100640004CFEFB791846FFF7CFFF012240210448FA
:1006500009F043FE00BF0837BD4680BD00080240D8
:100660000004024080B582B000AF0346FB71012256
:1006700080210A4809F031FE00224021084809F093
:100680002CFEFB791846FFF7AFFF012240210448FA
:1006900009F023FE00BF0837BD4680BD00080240B8
:1006A0000004024080B400AF0A4B1B68094A23F0E3
:1006B00040031360074B1B68064A43F40063136052
:1006C000044B1B68034A43F04003136000BFBD4660
:1006D00080BC70470030014080B400AF0A4B1B68FB
:1006E000094A23F040031360074B1B68064A23F4B2
:1006F00000631360044B1B68034A43F0400313601C
:1007000000BFBD4680BC70470030014090B583B04B
:1007100000AF0446084611461A462346FB800346AE
:10072000BB800B467B8013463B802A20FFF77AFF75
:10073000FB881B0A9BB2DBB21846FFF793FFFB88CE
:10074000DBB21846FFF78EFF7B881B0A9BB2DBB239
:100750001846FFF787FF7B88DBB21846FFF782FF5A
:100760002B20FFF75FFFBB881B0A9BB2DBB218464A
:10077000FFF778FFBB88DBB21846FFF773FF3B88B3
:100780001B0A9BB2DBB21846FFF76CFF3B88DBB25B
:100790001846FFF767FF2C20FFF744FF00BF0C3718
:1007A000BD4690BD80B485B000AF78600846114664
:1007B0001A4603467B800B467B7013463B702C4BDE
:1007C000FB60FB681B6823F00102FB681A6000BF36
:1007D000FB681B6803F00103002BF9D1254B4FF098
:1007E00074629A60FB68244A9A607A68FB68DA60EF
:1007F0007A88FB685A60FB6807225A617B78002B75
:1008000001D01E4A00E01E4AFB681A601D4B5B685F
:100810001C4A43F002035360FB681B6843F001026B
:10082000FB681A603B78002B1DD000BF114B1B6882
:1008300003F00063002BF9D000BF124B9B6803F05C
:100840008003002BF9D10F4B5B680E4A23F00203A3
:100850005360FB681B6823F00102FB681A60054BBC
:100860004FF074629A6000BF1437BD4680BC704779
:1008700058640240006402400C300140402C0206E3
:10088000402802060030014080B584B000AF034626
:10089000FB800B46BB8013467B80B7F902301B02FE
:1008A0001AB27B881B0A9BB21BB213431BB29AB2CB
:1008B0001C4B1A80012280211B4809F00EFD0022EA
:1008C00040211A4809F009FDFFF7ECFEFB88BA88C1
:1008D00002FB03F3FB60FB68B3F5803F07D2FB68C4
:1008E00099B2012300220F48FFF75CFF0FE00123BC
:1008F00000224FF6FF710B48FFF754FFFB689BB2D5
:10090000013399B2012300220648FFF74BFFFFF79E
:10091000E3FE01224021054809F0DFFC00BF10374B
:10092000BD4680BD020900200008024000040240CC
:1009300080B58AB000AF00233B61D84B1B6BD74A10
:1009400043F001031363D54B1B6B03F001033B61C1
:100950003B690023FB60D14B1B6BD04A43F0020381
:100960001363CE4B1B6B03F00203FB60FB68002399
:10097000BB60CA4B1B6BC94A43F004031363C74BEC
:100980001B6B03F00403BB60BB6800237B60C34B9D
:100990005B6CC24A43F480535364C04B5B6C03F4FA
:1009A00080537B607B6800233B60BC4B1B6BBB4A66
:1009B00043F480031363B94B1B6B03F480033B6068
:1009C0003B6807F1140300221A605A609A60DA60EB
:1009D0001A61E0237B610223BB610023FB610323D7
:1009E0003B6205237B6207F114031946AC4809F00A
:1009F000A9F940237B610123BB6107F11403194668
:100A0000A84809F09FF901224021A64809F065FC99
:100A10004FF400737B6107F114031946A04809F0F5
:100A200091F901224FF400719D4809F056FC802392
:100A30007B6107F1140319469B4809F083F90122F1
:100A40008021994809F049FC984B4FF441721A6093
:100A5000964B00225A60954B1B68944A43F0400322
:100A6000136001224FF400718D4809F036FC052017
:100A700003F094FB00224FF40071894809F02DFC2B
:100A8000142003F08BFB01224FF40071844809F01D
:100A900024FC962003F082FB0120FFF7C3FD6420B5
:100AA00003F07CFBEF20FFF7BDFD0320FFF7DAFD2D
:100AB0008020FFF7D7FD0220FFF7D4FDCF20FFF7FE
:100AC000B1FD0020FFF7CEFDC120FFF7CBFD3020A8
:100AD000FFF7C8FDED20FFF7A5FD6420FFF7C2FD7D
:100AE0000320FFF7BFFD1220FFF7BCFD8120FFF7B9
:100AF000B9FDE820FFF796FD8520FFF7B3FD002044
:100B0000FFF7B0FD7820FFF7ADFDCB20FFF78AFDA2
:100B10003920FFF7A7FD2C20FFF7A4FD0020FFF7E9
:100B2000A1FD3420FFF79EFD0220FFF79BFDF7207B
:100B3000FFF778FD2020FFF795FDEA20FFF772FD13
:100B40000020FFF78FFD0020FFF78CFDC020FFF78E
:100B500069FD2320FFF786FDC120FFF763FD10200C
:100B6000FFF780FDC520FFF75DFD3E20FFF77AFD12
:100B70002820FFF777FDC720FFF754FD8620FFF7F9
:100B800071FD3620FFF74EFD4820FFF76BFD3A2040
:100B9000FFF748FD5520FFF765FDB120FFF742FD47
:100BA0000020FFF75FFD1820FFF75CFDB620FFF780
:100BB00039FD0820FFF756FD8220FFF753FD27205F
:100BC000FFF750FDF220FFF72DFD0020FFF74AFD53
:100BD0002620FFF727FD0120FFF744FDE020FFF767
:100BE00021FD0F20FFF73EFD3120FFF73BFD2B20BD
:100BF000FFF738FD0C20FFF735FD0E20FFF732FD23
:100C00000820FFF72FFD4E20FFF72CFDF120FFF706
:100C100029FD3720FFF726FD0720FFF723FD1020D1
:100C2000FFF720FD0320FFF71DFD0E20FFF71AFD43
:100C30000920FFF717FD0020FFF714FDE120FFF763
:100C4000F1FC0020FFF70EFD0E20FFF70BFD142036
:100C5000FFF708FD0320FFF705FD1120FFF702FD58
:100C60000720FFF7FFFC3120FFF7FCFCC120FFF756
:100C7000F9FC4820FFF7F6FC0820FFF7F3FC0F20F3
:100C8000FFF7F0FC0C20FFF7EDFC3120FFF7EAFC4A
:100C90003620FFF7E7FC0F200AE000BF00380240D3
:100CA0000000024000040240000802400030014001
:100CB000FFF7D8FC1120FFF7B5FC782003F06EFA9F
:100CC0002920FFF7AFFC00BF2837BD4680BD80B5A7
:100CD00082B000AF0346FB8040F23F13EF220021B9
:100CE0000020FFF713FDFB881A464FF4A071F02097
:100CF000FFF7CAFD00BF0837BD4680BD90B583B081
:100D000000AF0446084611461A462346FB800346B8
:100D1000BB800B467B8013463B80FB88EF2B34D88F
:100D2000BB88B3F5A07F30D27B88002B2DD03B88C9
:100D3000002B2AD0FA887B881344F02B03D9FB8838
:100D4000C3F1F0037B80BA883B881344B3F5A07FDE
:100D500003D9BB88C3F5A0733B80FA887B88134412
:100D60009BB2013B9CB2BA883B8813449BB2013BC7
:100D70009BB2B988F8882246FFF7C8FC3A8B3988BD
:100D80007B881846FFF780FD00E000BF0C37BD46AA
:100D900090BD90B58BB000AF0446084611461A4688
:100DA0002346FB800346BB800B46FB7013463B800B
:100DB000FB88EF2B00F2A080BB88B3F5A07F80F00A
:100DC0009B80FB781F2B02D9FB787E2B01D93F2318
:100DD000FB70FB78A3F1200213469B001344484AA2
:100DE00013443B620623FB830823BB83B7F900301F
:100DF0001B021AB23B881B0A9BB21BB213431BB2E5
:100E00007B83B7F938301B021AB23B8F1B0A9BB2A7
:100E10001BB213431BB23B83FA88FB8B13449BB278
:100E2000013B9CB2BA88BB8B13449BB2013B9BB283
:100E3000B988F8882246FFF769FC012280213148F1
:100E400009F04BFA002240212F4809F046FAFFF73B
:100E500029FC002387F8273040E0002387F826305C
:100E60002AE097F82730062B12D897F82630042B63
:100E70000ED897F826303A6A13441B781A4697F82A
:100E8000273042FA03F3DBB203F00103DBB200E0E8
:100E90000023FB75FB7D002B01D07A8B00E03A8BA1
:100EA00097F826305B0028333B4423F8202C97F832
:100EB0002630013387F8263097F826309BB2FA8B1C
:100EC0009A42CED8F98B07F1080001230122FFF7DF
:100ED00069FC97F82730013387F8273097F82730D7
:100EE0009BB2BA8B9A42B8D8FFF7F6FB0122402199
:100EF000054809F0F2F900E000BF2C37BD4690BD6F
:100F0000F8FC0208000802400004024090B589B0D5
:100F100002AFBA601A460346FB810B46BB811346FB
:100F2000FB80BB68002B1AD0FB89FB8212E0FB8A96
:100F30000633F02B15D8BB685A1CBA601A78FC88A7
:100F4000B989F88A3B8D00932346FFF722FFFB8A7D
:100F50000633FB82BB681B78002BE8D102E000BFA0
:100F600000E000BF1C37BD4690BD80B500AF184BF8
:100F70001B78DBB2002B28D000BF164B1B6803F098
:100F80000063002BF9D000BF134B9B6803F0800374
:100F9000002BF9D1104B5B680F4A23F0020353601A
:100FA0000E4B1B680D4A23F001031360094B4FF0F1
:100FB00074629A60FFF790FB01224021084809F013
:100FC0008CF9034B00221A7000E000BF80BD00BF07
:100FD00000090020006402400030014058640240D3
:100FE0000004024080B582B000AF03463960FB8048
:100FF000FA88F88840F23F130021FFF787FB0122AF
:1010000080210C4809F069F9002240210A4809F0C2
:1010100064F9FFF747FB094B01221A7000230122F4
:101020004FF4A0713868FFF7BDFB00BF0837BD461D
:1010300080BD00BF000802400004024000090020FB
:1010400080B483B000AF0346FB800B46BB801346E1
:101050007B80B7F90620B7F904309A4202DAB7F973
:1010600004300AE0B7F90620B7F902309A4202DDEF
:10107000B7F9023001E0B7F9063018460C37BD4623
:1010800080BC704780B483B000AF0346FB80B7F9E3
:101090000630002B03DAFB885B429BB200E0FB8842
:1010A00018460C37BD4680BC704790B585B002AF7E
:1010B0000446084611461A462346FB800346BB8079
:1010C0000B467B8013463B80B7F90430002B2CDBAA
:1010D000B7F90430B3F5A07F27DAB7F90230002B57
:1010E00023DDB7F90630002B06DA7A88FB88134433
:1010F0009BB27B800023FB80B7F90620B7F9023052
:101100001344F02B04DDFB88C3F1F0039BB27B801A
:10111000B7F90230002B0ADDF888B9887A883B8855
:1011200000930123FFF7EAFD02E000BF00E000BFEB
:101130000C37BD4690BD90B585B002AF0446084659
:1011400011461A462346FB800346BB800B467B8034
:1011500013463B80B7F90630002B2DDBB7F906307C
:10116000EF2B29DCB7F90230002B25DDB7F904306D
:10117000002B06DA7A88BB8813449BB27B8000235D
:10118000BB80B7F90420B7F902301344B3F5A07F50
:1011900004DDBB88C3F5A0739BB27B80B7F9023036
:1011A000002B0BDDF888B9887A883B8800931346BA
:1011B0000122FFF7A3FD02E000BF00E000BF0C37F3
:1011C000BD4690BD90B585B002AF044608461146B5
:1011D0001A462346FB800346BB800B467B801346A2
:1011E0003B80B7F90230002B4DDDB7F90030002B02
:1011F00049DDB7F90630002B06DA7A88FB881344FC
:101200009BB27B800023FB80B7F90430002B06DA09
:101210003A88BB8813449BB23B800023BB80B7F95C
:101220000630EF2B31DCB7F90430B3F5A07F2CDAB0
:10123000B7F90620B7F902301344F02B04DDFB8820
:10124000C3F1F0039BB27B80B7F90420B7F90030FB
:101250001344B3F5A07F04DDBB88C3F5A0739BB234
:101260003B80B7F90230002B11DDB7F90030002BBD
:101270000DDDF888B9887A883C883B8B009323463B
:10128000FFF73CFD04E000BF02E000BF00E000BF4C
:101290000C37BD4690BD80B584B002AF0346FB80DD
:1012A000FB8800934FF49F73EE220121012000F090
:1012B00004F800BF0837BD4680BD90B585B000AFCB
:1012C0000446084611461A462346FB800346BB8067
:1012D0000B467B8013463B807B88FB813B88BB8130
:1012E0003B8CB7F90E20B7F90410B7F90600FFF7E9
:1012F000DCFEBA88BB8913449BB2013B9BB219B296
:101300003B8CB7F90E20B7F90600FFF7CEFE3B8CF9
:10131000B7F90C20B7F90410B7F90600FFF70BFF77
:10132000FA88FB8913449BB2013B9BB218B23B8CF9
:10133000B7F90C20B7F90410FFF7FDFE00BF143712
:10134000BD4690BD90B58DB002AF0446084611462B
:101350001A462346FB800346BB800B467B80134620
:101360003B807A88FB88D31A9BB27B843A88BB88FF
:10137000D31A9BB23B84B7F922301846FFF782FE9E
:101380000346FB83B7F920301846FFF77BFE034680
:10139000BB833B8F7B83BB8F3B83B7F92230002B12
:1013A0002FD0B7F92230002B08DCFA887B8B13444E
:1013B0009AB2FB8BD31A9BB21BB201E0B7F906308D
:1013C000FB82B7F92030002B05DABA883B8C134436
:1013D0009BB21BB201E0B7F90430BB823A8BBB8BE6
:1013E00013449BB27B82B7F91240B7F91E20B7F9BC
:1013F0001410B7F91600B7F8443000932346FFF7EE
:10140000E1FEB7F92030002B33D0B7F92230002BA2
:101410000ADBFA88FB8B13449BB2FB847A8BFB8B31
:10142000D31A9BB2BB8406E0FB88FB847A8BFB8BD0
:10143000D31A9BB2BB84B7F92030002B08DCBA88E2
:101440003B8B13449AB2BB8BD31A9BB21BB201E005
:10145000B7F904303B82B7F91C40B7F92420B7F93B
:101460001010B7F92600B7F8443000932346FFF771
:10147000A9FE7B8BC3F1EF039BB21AB2B7F902301E
:1014800001211846FFF7DCFD0346FB813B8BC3F5CA
:101490009F7301339BB21AB2B7F90030012118468D
:1014A000FFF7CEFD0346BB81BC8F3A8FB7F90C1016
:1014B000B7F90E00B7F8403000932346FFF7FDFE62
:1014C00000BF2C37BD4690BD90B585B002AF044635
:1014D000084611461A462346FB800346BB800B464E
:1014E0007B8013463B807A883B8B9A4203D13A88B3
:1014F000BB8B9A424DD0FA887B8813449BB2013B48
:101500009BB218B2B7F90020BB8CB7F90410FFF7F3
:1015100012FEBA883B8813449BB2013B9BB219B2BE
:10152000B7F90220BB8CB7F90600FFF7BEFD7A8839
:101530003B8B9A420ED9FA883B8B13449BB218B26C
:101540007A883B8BD31A9BB21AB2BB8CB7F90410C2
:10155000FFF7ABFD3A88BB8B9A420ED9BA88BB8B9A
:1015600013449BB219B23A88BB8BD31A9BB21AB2FE
:10157000BB8CB7F90600FFF7DEFDBC8B3A8BB7F9E1
:101580000410B7F906003B8C00932346FFF795FE45
:1015900000E000BF0C37BD4690BD90B589B002AFEA
:1015A0000446084611461A462346FB800346BB8084
:1015B0000B467B8013463B807A88FB88D31A9BB20C
:1015C0001BB21846FFF75EFD0346BB82B7F9062043
:1015D000B7F902309A4201DA012301E04FF0FF33FC
:1015E0007B823A88BB88D31A9BB21BB21846FFF79E
:1015F00049FD03465B429BB23B82B7F90420B7F931
:1016000000309A4201DA012301E04FF0FF33FB8101
:10161000BA8A3B8A13449BB2FB82F888B9883B8D17
:10162000009301230122FFF769FBB7F90620B7F900
:1016300002309A4205D1B7F90420B7F900309A4236
:1016400024D0FB8A5B009BB2BB81B7F90C20B7F9B1
:1016500010309A4209DBFA8A3B8A13449BB2FB8220
:10166000FA887B8A13449BB2FB80B7F90C20B7F948
:1016700014309A42D1DCFA8ABB8A13449BB2FB82B3
:10168000BA88FB8913449BB2BB80C6E700BF00BF8A
:101690001C37BD4690BD90B585B000AF04460846E6
:1016A00011461A462346FB800346BB800B467B80CF
:1016B00013463B80FA887B8813449BB2013B9BB264
:1016C000FB81BA883B8813449BB2013B9BB2BB8130
:1016D000B7F90430012B09DCB7F90C30002B05DD1C
:1016E0003B8CEE2201210120FFF7DFFC4FF49F73BA
:1016F0007B81B7F90420B7F90A309A420CDCB7F9BC
:101700000C20B7F90A309A4206DB3B8CB7F90A1075
:10171000EE220120FFF7C9FCB7F90630012B0ADCE5
:10172000B7F90E30002B06DD3B8C4FF49F72012180
:101730000120FFF700FDEE233B81B7F90620B7F942
:1017400008309A420DDCB7F90E20B7F908309A42FA
:1017500007DB3B8CB7F908004FF49F720121FFF7BC
:10176000EAFC00BF1437BD4690BD90B58BB004AF06
:10177000F860084611461A4603467B810B463B81BA
:101780001346FB80FB68002B54D0FB681B7E83F064
:101790000103DBB2002B4DD1FB681B689AB27B8939
:1017A00013449BB218B2FB88C3F1EF039BB21BB288
:1017B0001A460121FFF744FC0346FB82FB685B6885
:1017C0009AB23B8913449BB218B23B8DC3F59F7309
:1017D00001339BB21BB21A460121FFF731FC0346CD
:1017E000BB82FB681B6818B2FB685B6819B2B7F96B
:1017F0001440B7F916203B8E0393BB8D02933B8DAB
:101800000193FB8800932346FFF79CFD3C8DFA88EB
:10181000B7F91410B7F91600BB8D00932346FFF7F4
:101820003AFFB7F91620FB681A60B7F91420FB6875
:101830005A6000E000BF1C37BD4690BD80B487B041
:1018400000AFF860B96011461A460B46FB8013469C
:10185000BB80FB68002B2CD0BB68002B29D0BB6859
:101860001B68FB82BB685B68BB82B7F91620FB680C
:101870001A60B7F91420FB685A60B7F916305A1D80
:10188000FB681A61B7F914301A1FFB685A61FB68CC
:101890001B69DA1EB7F906301A44FB689A60FB68C8
:1018A0005B69A3F10A02B7F904301A44FB68DA60F5
:1018B00000E000BF1C37BD4680BC704780B584B0D7
:1018C00002AF78600B467B807B68002B25D07B685D
:1018D0001B6818B27B685B6819B27B88009312237F
:1018E0000E22FFF7EAFC7B681B699BB202339BB2B6
:1018F00018B27B685B6919B27B880422FFF71BFC76
:101900007B689B6818B27B68DB6819B27B880093A0
:101910000A230A22FFF7D1FC00E000BF0837BD46CA
:1019200080BD80B584B002AF78600B467B807B6859
:10193000002B36D07B689B689BB2013B9BB218B2F0
:101940007B68DB689BB2013B9BB219B27B8800933A
:101950000C230C22FFF736FC7B681B699BB2013B12
:101960009BB218B27B685B699BB2013B9BB219B218
:101970007B88009306230622FFF724FC7B681B6804
:101980009BB2013B9BB218B27B685B689BB2013B88
:101990009BB219B27B88009314231022FFF712FC2C
:1019A00000E000BF0837BD4680BD90B585B002AFEE
:1019B00078600B467B807B68002B2ED07B681B7D7C
:1019C00083F00103DBB2002B27D17B681B69002B5E
:1019D00023DD7B689B689AB27B681B69D90F0B4437
:1019E0005B109BB2D31A9BB218B27B68DB689AB2C9
:1019F0007B681B69D90F0B445B109BB2D31A9BB257
:101A000019B27B681B699AB27B681B699CB27B88A0
:101A100000932346FFF751FC00E000BF0C37BD46A2
:101A200090BD90B585B002AF78600B467B807B6837
:101A3000002B2ED07B681B7D83F00103DBB2002BD3
:101A400027D17B681B69002B23DD7B689B689AB2DA
:101A50007B681B69D90F0B445B109BB2D31A9BB2F6
:101A600018B27B68DB689AB27B681B69D90F0B449C
:101A70005B109BB2D31A9BB219B27B681B691AB276
:101A80007B681B691CB27B8800932346FFF79AFB97
:101A900000E000BF0C37BD4690BD00000000000014
:101AA00080B485B000AF786039607B68FB603B68CC
:101AB000BB60FB689A69BB689B699A4202DD4FF084
:101AC000FF3308E0FB689A69BB689B699A4201DAB8
:101AD000012300E0002318461437BD4680BC704740
:101AE000B0B584B000AFF860B9607A603B60F96867
:101AF00078682DF015FC03461C46F96878682DF0CF
:101B00000FFC0346194620462DF014FD03461C46E3
:101B1000B96838682DF004FC03461D46B96838687A
:101B20002DF0FEFB0346194628462DF003FD034623
:101B3000194620462DF0F6FB034618462DF06CF8AA
:101B400002460B461046194624F068FE02460B4634
:101B5000104619462DF090FB034618461037BD4637
:101B6000B0BD80B485B000AFF860B9607A603B600A
:101B7000024B18461437BD4680BC704700401C46D7
:101B80002DE9F0479CB002AFF860B9607A603B6025
:101B90006B469A4679684B1E7B650A460023904641
:101BA00099464FF000024FF000034FEA491343EA11
:101BB000D8634FEA48120A46002314461D464FF0E8
:101BC00000024FF000036B0143EAD46362010B464D
:101BD0009B000733DB08DB00ADEB030D02AB0333E7
:101BE0009B089B003B65BB689B6818462DF014F86A
:101BF000A7A3D3E900232DF067F802460B46104651
:101C000019462DF039FB0346FB64A94BBB64B86C45
:101C100024F02EFE786400237B6640E0BB689B685E
:101C2000A44918462DF07CFB03461D46786E2DF026
:101C30002DFC044678682DF029FC03461946204601
:101C40002DF02CFD03469C4918462DF073FC0346ED
:101C5000194628462DF066FB03463B613B6800931E
:101C60007B6E3A69B968F868FFF77BFF01463B6D08
:101C70007A6E43F822103B6D7A6E53F822304FF0A3
:101C8000000118462DF0FEFD0346002B04D03B6DED
:101C90007A6E8A4943F822107B6E01337B667A6E36
:101CA0007B689A42BADB00233B663CE0D7F8883079
:101CB00019683A6E1346DB009B1A9B000B447B614C
:101CC0007B691B7D83F00103DBB2002B27D1BB684E
:101CD0001B6818462DF0DAFB0446BB685B681846A3
:101CE0002DF0D4FB05467B691B6818462DF0CEFB12
:101CF00006467B695B6818462DF0C8FB03464FF02B
:101D000000020092324629462046FFF7E9FE0346CC
:101D100018462DF0D5FD02467B699A6100E000BFB0
:101D20003B6E01333B663A6ED7F88C309A42BDDB8E
:101D3000D7F888301868D7F88C10614B1C2226F031
:101D4000DDF80023FB6541E1D7F888301968FA6DAA
:101D50001346DB009B1A9B000B443B643B6C002B3F
:101D600000F030813B6C1B7D83F00103DBB2002B64
:101D700040F028813B6C1B6818462DF087FB044619
:101D8000BB681B6818462DF081FB034619462046A8
:101D90002DF0C6FA0346FB633B6C5B6818462DF0DA
:101DA00075FB0446BB685B6818462DF06FFB034665
:101DB000194620462DF0B4FA0346BB63F96BB86BA5
:101DC00024F054FD7863F96C786B2DF0A9FA034682
:101DD000BB650FE0B86D2CF01FFF2FA3D3E90023E4
:101DE0002CF0BAFD02460B46104619462DF044FA77
:101DF0000346BB65B86D2CF00FFF29A3D3E9002380
:101E00002DF0F2F90346002BE4D10FE0B86D2CF071
:101E100003FF21A3D3E900232CF0A0FD02460B46CB
:101E2000104619462DF028FA0346BB65B86D2CF014
:101E3000F3FE1DA3D3E900232DF0B8F90346002BD0
:101E4000E4D1F86C24F0B8FC3863F86C24F0E2FEBE
:101E5000F862396BF86B2DF06DFB03461C46F96A8E
:101E6000B86B2DF067FB0346194620462DF05AFA51
:101E70000346BB624FF07E51B86A2DF0F9FC034671
:101E8000002B1FD00021386CFFF7CBFD9BE000BF7B
:101E9000399D52A246DF913F182D4454FB21194031
:101EA000182D4454FB210940182D4454FB2109C02E
:101EB000AA611C3F00000C4200008C42286B6E4E51
:101EC000A11A0008B86D24F0D3FC0346796C1846BB
:101ED0002DF0E4FB03467B624FF07E51786A2DF0D3
:101EE00021FA03464FF07C5118462DF023FB0346A0
:101EF0001C4678682DF0CAFA0346194620462DF094
:101F000019FB034618462DF0DBFC03463B62B86D17
:101F100024F052FCF86138682DF0B8FA03464FF00F
:101F2000854118462DF006FB0346B96A18462DF088
:101F3000B5FB0346F96918462DF0FCFA034618462E
:101F40002DF0BEFC0346BB61BB695B423A6A9A4214
:101F500005DB7A68BB6913443A6A9A4204DD0021C2
:101F6000386CFFF75EFD2EE03B6A002B13DB3A6A0C
:101F70007B689A420FDA3B6D3A6A53F82230194671
:101F8000B86A2DF093FC0346002B04D00021386C76
:101F9000FFF747FD17E00021386CFFF742FD3B6C6F
:101FA0003A6A9A603B68DA0F13445B101A463B6C3E
:101FB000DA603B6CBA691A614FF6E071386CFFF772
:101FC000F4FC00E000BFFB6D0133FB65FA6DD7F850
:101FD0008C309A42FFF6B8AE4FF00003D546184653
:101FE0006837BD46BDE8F08780B584B000AF786043
:101FF0000023FB737B68002B01D1012333E07B6856
:102000001B6C002B09D1786800F063F87B68002214
:102010005A647B68002283F83C207B681B6C03F0C9
:102020001003002B18D17B681B6C23F4885323F01A
:10203000020343F002027B681A64786800F0DFFF55
:102040007B6800225A647B681B6C23F0030343F017
:1020500001027B681A6401E00123FB737B680022A4
:1020600083F83C20FB7B18461037BD4680BD80B509
:1020700084B000AF78600023FB737B68002B01D134
:10208000012322E07B681B6C43F002027B681A6428
:102090007B681B689A687B681B6822F001029A6063
:1020A0007B681B689B6803F00103002B08D17868EC
:1020B00000F018F87B6800225A647B6800221A64DA
:1020C0007B68002283F83C20FB7B18461037BD4616
:1020D00080BD80B483B000AF786000BF0C37BD46D0
:1020E00080BC704780B483B000AF786000BF0C370D
:1020F000BD4680BC704780B485B000AF78600023D7
:10210000BB607B6893F83C30012B01D10223B2E025
:102110007B68012283F83C207B681B689B6803F086
:102120000103012B18D07B681B689A687B681B68C9
:1021300042F001029A60524B1B68524AA2FB0323F1
:102140009A0C13465B001344BB6002E0BB68013B82
:10215000BB60BB68002BF9D17B681B689B6803F0F0
:102160000103012B7AD17B681B6C23F4E06323F01D
:10217000010343F480727B681A647B681B685B68A8
:1021800003F48063002B07D07B681B6C23F440535F
:1021900043F480527B681A647B681B6C03F48053A1
:1021A000B3F5805F06D17B685B6C23F006027B6829
:1021B0005A6402E07B6800225A647B68002283F83C
:1021C0003C20314BFB607B681B686FF022021A6079
:1021D000FB685B6803F01F03002B2AD17B681B6838
:1021E0002A4A934215D07B681B68294A934205D13D
:1021F000254B5B6803F01F03002B0AD07B681B682C
:10220000244A934236D1204B5B6803F01003002B25
:1022100030D17B681B689B6803F04053002B29D1A9
:102220007B681B689A687B681B6842F080429A60F2
:1022300020E07B681B68154A93421BD17B681B68B2
:102240009B6803F04053002B14D17B681B689A688D
:102250007B681B6842F080429A600BE07B681B6CD5
:1022600043F010027B681A647B685B6C43F00102E8
:102270007B685A64002318461437BD4680BC7047FB
:102280001800002083DE1B43002301400020014092
:10229000002101400022014080B483B000AF78608B
:1022A0007B6893F83C30012B01D1022321E07B684D
:1022B000012283F83C207B681B689A687B681B6856
:1022C00022F001029A607B681B689B6803F001039F
:1022D000002B09D17B681B6C23F4885323F0010386
:1022E00043F001027B681A647B68002283F83C207B
:1022F000002318460C37BD4680BC704780B584B0BB
:1023000000AF786039600023FB607B681B689B68C6
:1023100003F48063B3F5806F13D17B681B689B68FF
:1023200003F48073B3F5807F0BD17B681B6C43F0A3
:1023300020027B681A647B68002283F83C2001231A
:1023400063E001F0E5FEF86021E03B68B3F1FF3F98
:102350001DD03B68002B07D001F0DAFE0246FB6877
:10236000D31A3A689A4212D27B681B681B6803F042
:102370000203022B0BD07B681B6C43F004027B68CA
:102380001A647B68002283F83C2003233DE07B68CD
:102390001B681B6803F00203022BD6D17B681B6805
:1023A0006FF012021A607B681B6C43F400727B684A
:1023B0001A647B681B689B6803F04053002B23D191
:1023C0007B681B7E002B1FD17B681B68DB6A03F4D4
:1023D0007003002B06D07B681B689B6803F4806346
:1023E000002B11D17B681B6C23F480727B681A640C
:1023F0007B681B6C03F48053002B05D17B681B6C3E
:1024000043F001027B681A64002318461037BD466A
:1024100080BD80B586B000AFF860B9607A600023F7
:102420007B6101F075FE786122E07B68B3F1FF3FCC
:102430001ED07B68002B07D001F06AFE02467B6944
:10244000D31A7A689A4213D2FB681B681A68BB6871
:102450001340BA689A420BD0FB681B6C43F004022D
:10246000FB681A64FB68002283F83C20032328E001
:10247000FB681B681A68BB681340BA689A42D4D1DB
:10248000BB68012B0BD1FB681B6C43F48032FB68EB
:102490001A64FB681B686FF001021A6010E0FB68A9
:1024A0001B6C43F48062FB681A64FB685B6C43F04E
:1024B0000202FB685A64FB681B686FF020021A6016
:1024C000002318461837BD4680BD80B485B000AFE4
:1024D00078600023BB607B6893F83C30012B01D10E
:1024E0000223BDE07B68012283F83C207B681B68E7
:1024F0009B6803F00103012B18D07B681B689A6866
:102500007B681B6842F001029A60584B1B68584A6E
:10251000A2FB03239A0C13465B001344BB6002E04A
:10252000BB68013BBB60BB68002BF9D17B681B68B3
:102530009B6803F00103012B40F085807B681B6CD6
:1025400023F4E06323F0010343F480727B681A6490
:102550007B681B685B6803F48063002B07D07B6893
:102560001B6C23F4405343F480527B681A647B68ED
:102570001B6C03F48053B3F5805F06D17B685B6C02
:1025800023F006027B685A6402E07B6800225A64EA
:102590007B68002283F83C20364BFB607B681B681D
:1025A0006FF022021A607B681B685B687A681268A9
:1025B00043F0806343F020035360FB685B6803F0E3
:1025C0001F03002B2AD17B681B682B4A934215D02E
:1025D0007B681B68294A934205D1264B5B6803F050
:1025E0001F03002B0AD07B681B68254A934236D113
:1025F000204B5B6803F01003002B30D17B681B6815
:102600009B6803F04053002B29D17B681B689A68B4
:102610007B681B6842F080429A6020E07B681B6800
:10262000154A93421BD17B681B689B6803F040539B
:10263000002B14D17B681B689A687B681B6842F08A
:1026400080429A600BE07B681B6C43F010027B6851
:102650001A647B685B6C43F001027B685A64002358
:1026600018461437BD4680BC704700BF18000020D4
:1026700083DE1B4300230140002001400021014074
:102680000022014080B483B000AF78607B6893F88B
:102690003C30012B01D102232BE07B68012283F81F
:1026A0003C207B681B689A687B681B6822F00102EB
:1026B0009A607B681B689B6803F00103002B13D1B1
:1026C0007B681B685B687A68126823F0806323F07C
:1026D000200353607B681B6C23F4885323F00103B1
:1026E00043F001027B681A647B68002283F83C2077
:1026F000002318460C37BD4680BC704780B584B0B7
:1027000000AF78600023FB600023BB607B681B6820
:102710001B6803F00203022B0CBF01230023DBB272
:10272000FB607B681B685B6803F02003202B0CBFF9
:1027300001230023DBB2BB60FB68002B49D0BB68E0
:10274000002B46D07B681B6C03F01003002B05D1D7
:102750007B681B6C43F400727B681A647B681B689F
:102760009B6803F04053002B2BD17B681B7E002B12
:1027700027D17B681B68DB6A03F47003002B06D04B
:102780007B681B689B6803F48063002B19D17B680E
:102790001B685A687B681B6822F020025A607B68BD
:1027A0001B6C23F480727B681A647B681B6C03F4D7
:1027B0008053002B05D17B681B6C43F001027B68C2
:1027C0001A64786800F050FA7B681B686FF0120298
:1027D0001A607B681B681B6803F00403042B0CBFA2
:1027E00001230023DBB2FB607B681B685B6803F09E
:1027F0008003802B0CBF01230023DBB2BB60FB688E
:10280000002B57D0BB68002B54D07B681B6C03F0A7
:102810001003002B05D17B681B6C43F400527B68CE
:102820001A647B681B689B6803F44013002B39D142
:102830007B681B689B6B03F44013002B06D07B68FE
:102840001B689B6803F48063002B2BD17B681B689B
:102850005B6803F48063002B24D17B681B689B6852
:1028600003F04053002B1DD17B681B7E002B19D138
:102870007B681B685A687B681B6822F080025A607C
:102880007B681B6C23F480527B681A647B681B6C2A
:1028900003F48073002B05D17B681B6C43F00102AD
:1028A0007B681A64786801F037F97B681B686FF001
:1028B0000C021A607B681B681B6803F00103012B84
:1028C0000CBF01230023DBB2FB607B681B685B68E5
:1028D00003F04003402B0CBF01230023DBB2BB609D
:1028E000FB68002B17D0BB68002B14D07B681B68DB
:1028F0001B6803F00103012B0DD17B681B6C43F4B3
:1029000080327B681A64786800F0C0F97B681B68C5
:102910006FF001021A607B681B681B6803F02003DC
:10292000202B0CBF01230023DBB2FB607B681B68FC
:102930005B6803F08063B3F1806F0CBF0123002359
:10294000DBB2BB60FB68002B15D0BB68002B12D03C
:102950007B685B6C43F002027B685A647B681B688F
:102960006FF020021A60786800F099F97B681B68A4
:102970006FF020021A6000BF1037BD4680BD80B5E1
:1029800086B000AFF860B9607A6000233B61FB68F5
:1029900093F83C30012B01D10223E9E0FB680122CE
:1029A00083F83C20FB681B689B6803F00103012B44
:1029B00018D0FB681B689A68FB681B6842F001022C
:1029C0009A606D4B1B686D4AA2FB03239A0C134659
:1029D0005B0013443B6102E03B69013B3B613B69A7
:1029E000002BF9D1FB681B689B6803F48073B3F577
:1029F000807F07D1FB681B689A68FB681B6822F41C
:102A000080729A60FB681B689B6803F00103012BCE
:102A100040F0A180FB681B6C23F4E06323F001030A
:102A200043F48072FB681A64FB681B685B6803F4FC
:102A30008063002B07D0FB681B6C23F4405343F4E6
:102A40008052FB681A64FB681B6C03F48053B3F577
:102A5000805F06D1FB685B6C23F00602FB685A645A
:102A600002E0FB6800225A64FB68002283F83C20E5
:102A7000434B7B61FB689B6B424ADA63FB689B6B51
:102A8000414A1A64FB689B6B404ADA64FB681B6826
:102A90006FF022021A60FB681B685A68FB681B68AB
:102AA00042F080625A60FB681B689A68FB681B688A
:102AB00042F480729A60FB68986BFB681B684C3329
:102AC0001946BA687B6802F076FD7B695B6803F0A3
:102AD0001F03002B2AD1FB681B682D4A934215D097
:102AE000FB681B682B4A934205D1254B5B6803F0BA
:102AF0001F03002B0AD0FB681B68274A934236D17C
:102B00001F4B5B6803F01003002B30D1FB681B6880
:102B10009B6803F04053002B29D1FB681B689A681F
:102B2000FB681B6842F080429A6020E0FB681B68EB
:102B3000174A93421BD1FB681B689B6803F0405304
:102B4000002B14D1FB681B689A68FB681B6842F075
:102B500080429A600BE0FB681B6C43F01002FB683C
:102B60001A64FB685B6C43F00102FB685A64002343
:102B700018461837BD4680BD1800002083DE1B4371
:102B800000230140F5310008AF320008CB320008C5
:102B900000200140002101400022014080B584B0A6
:102BA00000AF78600023FB737B6893F83C30012B07
:102BB00001D1022348E07B68012283F83C207B6836
:102BC0001B689A687B681B6822F001029A607B6828
:102BD0001B689B6803F00103002B30D17B681B68E6
:102BE0009A687B681B6822F480729A607B689B6B92
:102BF00093F83530DBB2022B0FD17B689B6B184604
:102C000002F031FD0346FB73FB7B002B05D07B6894
:102C10001B6C43F040027B681A647B681B685A682F
:102C20007B681B6822F080625A607B681B6C23F40F
:102C3000885323F0010343F001027B681A647B6828
:102C4000002283F83C20FB7B18461037BD4680BD30
:102C500080B483B000AF78607B681B68DB6C18467B
:102C60000C37BD4680BC704780B483B000AF78603D
:102C700000BF0C37BD4680BC704780B483B000AF46
:102C8000786000BF0C37BD4680BC704780B483B00D
:102C900000AF786000BF0C37BD4680BC704780B481
:102CA00083B000AF786000BF0C37BD4680BC704772
:102CB00080B485B000AF786039600023BB607B686A
:102CC00093F83C30012B01D1022313E17B680122F0
:102CD00083F83C203B681B68092B25D97B681B685F
:102CE000D9683B681B689BB21A4613465B001344C5
:102CF0001E3B072202FA03F3DA437B681B680A4093
:102D0000DA607B681B68D9683B689A683B681B6817
:102D10009BB2184603465B0003441E3B9A407B6807
:102D20001B680A43DA6022E07B681B6819693B680C
:102D30001B689BB21A4613465B001344072202FA33
:102D400003F3DA437B681B680A401A617B681B68DF
:102D500019693B689A683B681B689BB21846034632
:102D60005B0003449A407B681B680A431A613B6816
:102D70005B68062B24D87B681B68596B3B685A68D4
:102D800013469B001344053B1F2202FA03F3DA4368
:102D90007B681B680A405A637B681B68596B3B68F9
:102DA0001B689BB218463B685A6813469B00134445
:102DB000053B00FA03F27B681B680A435A634CE048
:102DC0003B685B680C2B24D87B681B68196B3B68DD
:102DD0005A6813469B001344233B1F2202FA03F355
:102DE000DA437B681B680A401A637B681B68196BAF
:102DF0003B681B689BB218463B685A6813469B00A9
:102E00001344233B00FA03F27B681B680A431A63EE
:102E100023E07B681B68D96A3B685A6813469B00AD
:102E20001344413B1F2202FA03F3DA437B681B6819
:102E30000A40DA627B681B68D96A3B681B689BB2F0
:102E400018463B685A6813469B001344413B00FAFE
:102E500003F27B681B680A43DA62294BFB607B68DC
:102E60001B68284A93420FD13B681B68122B0BD179
:102E7000FB685B6823F40002FB685A60FB685B68D0
:102E800043F48002FB685A607B681B681D4A9342CA
:102E90002BD13B681B681C4A934203D03B681B68DC
:102EA000112B22D1FB685B6823F48002FB685A6017
:102EB000FB685B6843F40002FB685A603B681B6870
:102EC000114A934211D1114B1B68114AA2FB0323F3
:102ED0009A0C13469B0013445B00BB6002E0BB6886
:102EE000013BBB60BB68002BF9D17B68002283F8F3
:102EF0003C20002318461437BD4680BC704700BFF5
:102F000000230140002001401200001018000020A2
:102F100083DE1B4380B483B000AF786039607B6888
:102F200093F83C30012B01D102234DE07B68012254
:102F300083F83C203B681B7C012B08D17B681B6815
:102F40005A687B681B6842F040025A6007E07B6861
:102F50001B685A687B681B6822F040025A607B68D5
:102F60001B685B687A68126823F4400323F40073DB
:102F700053607B681B6859683B681A687B681B68EC
:102F80000A435A607B681B683A6852685A627B68D9
:102F90001B683A6892689A627B681B685A687B680B
:102FA0001B6822F01F025A607B681B685A683B68E6
:102FB000DB689BB219467B681B680A435A607B68D2
:102FC000002283F83C20002318460C37BD4680BC05
:102FD000704780B483B000AF78607B681B6C184684
:102FE0000C37BD4680BC704780B483B000AF7860BA
:102FF0007B685B6C18460C37BD4680BC704780B45C
:1030000085B000AF7860794BFB60FB685B6823F4A8
:103010004032FB685A60FB685A687B685B681A43F9
:10302000FB685A607B681B685A687B681B6822F4DF
:1030300080725A607B681B6859687B681B691A023A
:103040007B681B680A435A607B681B685A687B6808
:103050001B6822F040725A607B681B6859687B6865
:103060009A687B681B680A435A607B681B689A6889
:103070007B681B6822F400629A607B681B68996811
:103080007B68DA687B681B680A439A607B689B6A86
:10309000574A934222D07B681B689A687B681B68FA
:1030A00022F070629A607B681B6899687B689A6AF4
:1030B0007B681B680A439A607B681B689A687B6818
:1030C0001B6822F040529A607B681B6899687B6895
:1030D000DA6A7B681B680A439A600FE07B681B68AA
:1030E0009A687B681B6822F070629A607B681B6834
:1030F0009A687B681B6822F040529A607B681B6864
:103100009A687B681B6822F002029A607B681B68E1
:1031100099687B681B7E5A007B681B680A439A602B
:103120007B6893F82030002B1BD07B681B685A68A3
:103130007B681B6842F400625A607B681B685A68AF
:103140007B681B6822F460425A607B681B68596880
:103150007B685B6A013B5A037B681B680A435A60C1
:1031600007E07B681B685A687B681B6822F4006272
:103170005A607B681B68DA6A7B681B6822F47002FD
:10318000DA627B681B68D96A7B68DB69013B1A05D8
:103190007B681B680A43DA627B681B689A687B68F5
:1031A0001B6822F400729A607B681B6899687B68D0
:1031B00093F830305A027B681B680A439A607B6838
:1031C0001B689A687B681B6822F480629A607B683F
:1031D0001B6899687B685B699A027B681B680A4375
:1031E0009A6000BF1437BD4680BC70470023014081
:1031F0000100000F80B584B000AF78607B689B6BE6
:10320000FB60FB681B6C03F05003002B3CD1FB6898
:103210001B6C43F40072FB681A64FB681B689B68B4
:1032200003F04053002B2BD1FB681B7E002B27D1D2
:10323000FB681B68DB6A03F47003002B06D0FB6895
:103240001B689B6803F48063002B19D1FB681B6823
:103250005A68FB681B6822F020025A60FB681B6CEE
:1032600023F48072FB681A64FB681B6C03F48053C0
:10327000002B05D1FB681B6C43F00102FB681A644C
:10328000F868FFF7F1FC0EE0FB681B6C03F010031D
:10329000002B03D0F868FFF702FD04E0FB689B6B8E
:1032A000DB6C7868984700BF1037BD4680BD80B59D
:1032B00084B000AF78607B689B6BFB60F868FFF7B9
:1032C000DCFC00BF1037BD4680BD80B584B000AFC8
:1032D00078607B689B6BFB60FB6840221A64FB682C
:1032E0005B6C43F00402FB685A64F868FFF7D7FC94
:1032F00000BF1037BD4680BD80B487B000AF786096
:103300000023BB6000237B6100233B617B6893F853
:103310003C30012B01D10223AAE07B68012283F813
:103320003C207B681B689B6803F00103012B18D0CD
:103330007B681B689A687B681B6842F001029A6090
:103340004E4B1B684E4AA2FB03239A0C13465B00AC
:103350001344BB6002E0BB68013BBB60BB68002B51
:10336000F9D17B681B689B6803F00103012B72D1C4
:103370007B681B6C23F4405323F0010343F4805219
:103380007B681A647B681B6C03F48073002B02D18A
:103390007B6800225A647B68002283F83C207B68AB
:1033A0001B686FF004021A60364BFB60FB685B68B9
:1033B00003F01F03002B24D17B681B689B6803F478
:1033C0004013002B0CBF01230023DBB27B617B6821
:1033D0001B685B6803F48063002B0CBF0123002390
:1033E000DBB23B617B69002B41D03B69002B3ED0B7
:1033F0007B681B689A687B681B6842F480029A604D
:1034000035E07B681B689B6803F44013002B0CBFFE
:1034100001230023DBB27B617B681B685B6803F4DC
:103420008063002B0CBF01230023DBB23B617B6870
:103430001B68154A93421AD17B69002B17D03B6950
:10344000002B14D07B681B689A687B681B6842F469
:1034500080029A600BE07B681B6C43F010027B6873
:103460001A647B685B6C43F001027B685A6400233A
:1034700018461C37BD4680BC704700BF18000020AE
:1034800083DE1B43002301400020014080B487B04D
:1034900000AF78600023BB6000237B6100233B61A9
:1034A0007B6893F83C30012B01D10223B2E07B68AA
:1034B000012283F83C207B681B689B6803F00103B2
:1034C000012B18D07B681B689A687B681B6842F0E8
:1034D00001029A60524B1B68524AA2FB03239A0CCA
:1034E00013465B001344BB6002E0BB68013BBB605A
:1034F000BB68002BF9D17B681B689B6803F0010354
:10350000012B7AD17B681B6C23F4405323F0010319
:1035100043F480527B681A647B681B6C03F48073ED
:10352000002B02D17B6800225A647B68002283F85A
:103530003C207B681B686FF004021A607B681B6884
:103540005A687B681B6842F080025A60364BFB6009
:10355000FB685B6803F01F03002B24D17B681B68AA
:103560009B6803F44013002B0CBF01230023DBB244
:103570007B617B681B685B6803F48063002B0CBF76
:1035800001230023DBB23B617B69002B41D03B6907
:10359000002B3ED07B681B689A687B681B6842F4EE
:1035A00080029A6035E07B681B689B6803F44013D7
:1035B000002B0CBF01230023DBB27B617B681B68FF
:1035C0005B6803F48063002B0CBF01230023DBB294
:1035D0003B617B681B68154A93421AD17B69002BBB
:1035E00017D03B69002B14D07B681B689A687B68F6
:1035F0001B6842F480029A600BE07B681B6C43F00E
:1036000010027B681A647B685B6C43F001027B6884
:103610005A64002318461C37BD4680BC704700BF63
:103620001800002083DE1B430023014000200140DE
:1036300080B485B000AF78600023FB737B6893F89B
:103640003C30012B01D1022337E07B68012283F853
:103650003C207B681B6C03F48073002B20D17B68BB
:103660001B685B6803F48063002B19D17B681B68BF
:103670009A687B681B6822F001029A607B681B686D
:103680009B6803F00103002B12D17B681B6C23F4B1
:10369000885323F0010343F001027B681A6407E0BA
:1036A0007B681B6C43F020027B681A640123FB7368
:1036B0007B68002283F83C20FB7B18461437BD460C
:1036C00080BC704780B584B000AF7860396000235B
:1036D000FB6000F01DFDF8601EE03B68B3F1FF3FAA
:1036E0001AD03B68002B07D000F012FD0246FB68A1
:1036F000D31A3A689A420FD27B681B681B6803F0A2
:103700000403042B08D07B6804221A647B6800221F
:1037100083F83C2003234BE07B681B681B6803F0A5
:103720000403042BD9D17B681B686FF00C021A606C
:103730007B681B6C43F400527B681A647B681B68CF
:103740009B6803F44013002B31D17B681B689B6B93
:1037500003F44013002B06D07B681B689B6803F4BE
:103760008063002B23D17B681B685B6803F4806354
:10377000002B1CD17B681B689B6803F04053002B17
:1037800015D17B681B7E002B11D17B681B6C23F449
:1037900080527B681A647B681B6C03F48073002B77
:1037A00005D17B681B6C43F001027B681A6400231F
:1037B00018461037BD4680BD80B485B000AF786034
:1037C0000023FB737B6893F83C30012B01D102236B
:1037D0003FE07B68012283F83C207B681B6C03F48C
:1037E0008073002B28D17B681B685B6803F48063BF
:1037F000002B21D17B681B689A687B681B6822F0CC
:1038000001029A607B681B689B6803F00103002B30
:103810001AD17B681B685A687B681B6822F080029B
:103820005A607B681B6C23F4885323F0010343F038
:1038300001027B681A6407E07B681B6C43F020027E
:103840007B681A640123FB737B68002283F83C20A9
:10385000FB7B18461437BD4680BC704780B485B0EA
:1038600000AF786039600023FB607B681B686FF0F5
:1038700004021A603B68013B032B1FD801A252F8D7
:1038800023F000BFB3380008A93800089F380008AB
:10389000953800087B681B689B6CFB600FE07B68B9
:1038A0001B685B6CFB600AE07B681B681B6CFB6041
:1038B00005E07B681B68DB6BFB6000E000BFFB681A
:1038C00018461437BD4680BC704780B586B000AF3F
:1038D000F860B9607A6000233B61FB6893F83C3084
:1038E000012B01D10223ABE0FB68012283F83C20CD
:1038F000FB681B689B6803F00103012B18D0FB6871
:103900001B689A68FB681B6842F001029A604E4B84
:103910001B684E4AA2FB03239A0C13465B00134418
:103920003B6102E03B69013B3B613B69002BF9D104
:10393000FB681B689B6803F00103012B73D1FB68D4
:103940001B6C23F4E06323F0010343F48072FB68F3
:103950001A64FB681B685B6803F48063002B07D064
:10396000FB681B6C23F4405343F48052FB681A64D9
:10397000FB681B6C03F48053B3F5805F06D1FB68D2
:103980005B6C23F00602FB685A6402E0FB680022CD
:103990005A64FB68002283F83C20FB689B6B2C4A2E
:1039A000DA63FB689B6B2B4A1A64FB689B6B2A4AA1
:1039B000DA64FB681B686FF002021A60FB681B6820
:1039C0005A68FB681B6842F080625A60234B7B6137
:1039D000FB6893F83030002B06D07B695B6843F4BA
:1039E00000527B695A6005E07B695B6823F40052F2
:1039F0007B695A60FB68986B7B6908331946BA6823
:103A00007B6801F0D8FDFB681B689B6803F040539E
:103A1000002B14D1FB681B689A68FB681B6842F096
:103A200080429A600BE0FB681B6C43F01002FB685D
:103A30001A64FB685B6C43F00102FB685A64002364
:103A400018461837BD4680BD1800002083DE1B4392
:103A5000E93E00088F3F0008AB3F0008002301400B
:103A600080B584B000AF78600023FB737B6893F867
:103A70003C30012B01D1022338E07B68012283F81E
:103A80003C207B681B689A687B681B6822F00102F7
:103A90009A60184BBB607B681B689B6803F001034E
:103AA000002B1ED1BB685B6823F40052BB685A60D0
:103AB0007B689B6B184601F0D6FD0346FB737B6861
:103AC0001B685A687B681B6822F080625A607B68BA
:103AD0001B6C23F4885323F0010343F001027B683D
:103AE0001A647B68002283F83C20FB7B1846103761
:103AF000BD4680BD0023014080B485B000AF786032
:103B0000044BFB60FB689B6818461437BD4680BCBD
:103B1000704700BF0023014080B483B000AF7860DD
:103B200000BF0C37BD4680BC704780B485B000AF85
:103B3000786039607B6893F83C30012B01D1022317
:103B40007EE17B68012283F83C203B681B68092BDF
:103B500025D97B681B68D9683B681B689BB21A46ED
:103B600013465B0013441E3B072202FA03F3DA43B9
:103B70007B681B680A40DA607B681B68D9683B6811
:103B80009A683B681B689BB2184603465B00034477
:103B90001E3B9A407B681B680A43DA6022E07B6820
:103BA0001B6819693B681B689BB21A4613465B0089
:103BB0001344072202FA03F3DA437B681B680A40C6
:103BC0001A617B681B6819693B689A683B681B68C7
:103BD0009BB2184603465B0003449A407B681B680F
:103BE0000A431A617B681B689A6B7B681B6822F426
:103BF00040129A637B681B68996B3B681B69013BA9
:103C00001A057B681B680A439A637B681B68996B7B
:103C10003B685B68DAB23B681B69DBB2D31ADBB284
:103C20000333DBB21A4613469B0013441F2202FAE9
:103C300003F3DA437B681B680A409A637B681B685E
:103C4000996B3B681B689BB218463B685B68DAB2AD
:103C50003B681B69DBB2D31ADBB20333DBB21A4613
:103C600013469B00134400FA03F27B681B680A4367
:103C70009A633B689B69754A934222D07B681B68B4
:103C80009A687B681B6822F470229A607B681B68C4
:103C900099683B689A697B681B680A439A607B68ED
:103CA0001B689A687B681B6822F440129A607B68E4
:103CB0001B6899683B68DA697B681B680A439A60ED
:103CC0000FE07B681B689A687B681B6822F470228F
:103CD0009A607B681B689A687B681B6822F44012B4
:103CE0009A603B685B7D002B08D07B681B685A6834
:103CF0007B681B6842F480625A6007E07B681B683F
:103D00005A687B681B6822F480625A603B681B7D9E
:103D1000002B08D07B681B685A687B681B6842F4DC
:103D200080525A6007E07B681B685A687B681B6892
:103D300022F480525A603B685B68032B2ED0032B21
:103D400040D8012B02D0022B14D03BE07B681B68CB
:103D50005B697A68126823F47F6323F00F03536171
:103D60007B681B6859693B68DA687B681B680A4393
:103D70005A613BE07B681B689B697A68126823F490
:103D80007F6323F00F0393617B681B6899693B682D
:103D9000DA687B681B680A439A6127E07B681B68C6
:103DA000DB697A68126823F47F6323F00F03D36121
:103DB0007B681B68D9693B68DA687B681B680A43C3
:103DC000DA6113E07B681B681B6A7A68126823F467
:103DD0007F6323F00F0313627B681B68196A3B68DB
:103DE000DA687B681B680A431A6200BF184BFB60E5
:103DF0007B681B68174A934209D13B681B68122BEA
:103E000005D1FB685B6843F48002FB685A607B68FD
:103E10001B68104A93420ED13B681B680E4A9342BE
:103E200003D03B681B68112B05D1FB685B6843F42A
:103E30000002FB685A607B68002283F83C20002364
:103E400018461437BD4680BC704700BF01000F0004
:103E500000230140002001401200001080B485B012
:103E600000AF786039607B6893F83C30012B01D15A
:103E7000022331E07B68012283F83C20194BFB6070
:103E8000FB685B6823F01F02FB685A60FB685A6896
:103E90003B681B681A43FB685A60FB685B6823F445
:103EA0004042FB685A60FB685A683B685B681A438B
:103EB000FB685A60FB685B6823F47062FB685A60B9
:103EC000FB685A683B689B681A43FB685A607B68CA
:103ED000002283F83C20002318461437BD4680BCDE
:103EE000704700BF0023014080B584B000AF786008
:103EF0007B689B6BFB60FB681B6C03F05003002B23
:103F00003CD1FB681B6C43F40072FB681A64FB68CD
:103F10001B689B6803F04053002B2BD1FB681B7E72
:103F2000002B27D1FB681B68DB6A03F47003002BAE
:103F300006D0FB681B689B6803F48063002B19D1D3
:103F4000FB681B685A68FB681B6822F020025A60F5
:103F5000FB681B6C23F48072FB681A64FB681B6CA3
:103F600003F48053002B05D1FB681B6C43F0010266
:103F7000FB681A64F868FEF777FE04E0FB689B6B49
:103F8000DB6C7868984700BF1037BD4680BD80B5B0
:103F900084B000AF78607B689B6BFB60F868FEF7CD
:103FA0006CFE00BF1037BD4680BD80B584B000AF49
:103FB00078607B689B6BFB60FB6840221A64FB683F
:103FC0005B6C43F00402FB685A64F868FEF767FE16
:103FD00000BF1037BD4680BD80B500AF0E4B1B68DB
:103FE0000D4A43F4007313600B4B1B680A4A43F4F9
:103FF00080631360084B1B68074A43F480731360A7
:10400000032000F0ADFB0F2000F040F800F032F884
:104010000023184680BD00BF003C024080B500AFC1
:10402000134B4FF0FF321A62114B00221A62104BF1
:104030004FF0FF325A620E4B00225A620C4B4FF087
:10404000FF321A610A4B00221A61094B4FF0FF320E
:104050005A61074B00225A61054B4FF0FF329A61BB
:10406000034B00229A6100F00BF80023184680BD34
:104070000038024080B400AF00BFBD4680BC70472E
:1040800080B400AF00BFBD4680BC704780B582B031
:1040900000AF7860124B1A68124B1B7819464FF428
:1040A0007A73B3FBF1F3B2FBF3F3184600F09FFB16
:1040B0000346002B01D001230EE07B680F2B0AD8AA
:1040C000002279684FF0FF3000F055FB064A7B680C
:1040D0001360002300E0012318460837BD4680BD69
:1040E00018000020100000200C00002080B400AF59
:1040F000054B1B781A46054B1B681344034A136093
:1041000000BFBD4680BC704710000020040900209D
:1041100080B400AF024B1B681846BD4680BC704798
:104120000409002080B400AF024B1B681846BD464E
:1041300080BC70470C00002080B584B000AF0346FF
:10414000FB710023FB730E4B1B78FA799A4212D055
:104150000B4B1B78BB730A4AFB791370094B1B6826
:104160001846FFF793FF0346FB73FB7B002B02D03F
:10417000034ABB7B1370FB7B18461037BD4680BDDE
:10418000100000200C00002080B400AF024B1B7810
:104190001846BD4680BC70471000002080B584B032
:1041A00000AF7860FFF7B4FFB8607B68FB60FB6826
:1041B000B3F1FF3F05D00A4B1B781A46FB68134446
:1041C000FB6000BFFFF7A4FF0246BB68D31AFA6882
:1041D0009A42F7D800BF00BF1037BD4680BD00BF70
:1041E0001000002080B400AF044B1B68034A23F08A
:1041F0000203136000BFBD4680BC704710E000E0C2
:1042000080B400AF044B1B68034A43F00203136001
:1042100000BFBD4680BC704710E000E080B400AF36
:10422000024B1846BD4680BC704700BF000D070119
:1042300080B400AF034B1B681B0C1846BD4680BC06
:10424000704700BF002004E080B400AF034B1B6840
:10425000C3F30B031846BD4680BC7047002004E042
:1042600080B400AF044B5B68034A43F00103536022
:1042700000BFBD4680BC7047002004E080B400AFA2
:10428000044B5B68034A23F00103536000BFBD4643
:1042900080BC7047002004E080B400AF044B5B6832
:1042A000034A43F00203536000BFBD4680BC704721
:1042B000002004E080B400AF044B5B68034A23F0A5
:1042C0000203536000BFBD4680BC7047002004E07D
:1042D00080B400AF044B5B68034A43F004035360AF
:1042E00000BFBD4680BC7047002004E080B400AF32
:1042F000044B5B68034A23F00403536000BFBD46D0
:1043000080BC7047002004E080B400AF034B012262
:104310001A6000BFBD4680BC704700BF0004274242
:1043200080B400AF034B00221A6000BFBD4680BCC2
:10433000704700BF0004274280B400AF024B1B68E7
:104340001846BD4680BC7047107AFF1F80B400AF8E
:10435000024B1B681846BD4680BC7047147AFF1F8D
:1043600080B400AF024B1B681846BD4680BC704746
:10437000187AFF1F80B400AF034B01221A6000BF00
:10438000BD4680BC704700BF2000274280B400AF0C
:10439000034B00221A6000BFBD4680BC704700BFBF
:1043A0002000274280B485B000AF78607B6803F0BE
:1043B0000703FB600C4BDB68BB60BA684FF6FF037A
:1043C0001340BB60FB681A02BB68134343F0BF6332
:1043D00043F40033BB60044ABB68D36000BF1437AA
:1043E000BD4680BC704700BF00ED00E080B400AF68
:1043F000044BDB681B0A03F007031846BD4680BC6C
:10440000704700BF00ED00E080B483B000AF03460A
:10441000FB7197F90730002B0BDBFB7903F01F02D0
:10442000064997F907305B09012000FA02F241F8CA
:10443000232000BF0C37BD4680BC704700E100E080
:1044400080B483B000AF0346FB7197F90730002BAF
:1044500012DBFB7903F01F020A4997F907305B0969
:10446000012000FA02F2203341F82320BFF34F8FDE
:1044700000BFBFF36F8F00BF00BF0C37BD4680BCCD
:10448000704700BF00E100E080B483B000AF034696
:10449000FB7197F90730002B0EDB0A4A97F90730BA
:1044A0005B09403352F82320FB7903F01F0322FA03
:1044B00003F303F0010300E0002318460C37BD4668
:1044C00080BC704700E100E080B483B000AF0346D9
:1044D000FB7197F90730002B0CDBFB7903F01F020F
:1044E000074997F907305B09012000FA02F24033CF
:1044F00041F8232000BF0C37BD4680BC704700BF89
:1045000000E100E080B483B000AF0346FB7197F98F
:104510000730002B0CDBFB7903F01F02074997F9EA
:1045200007305B09012000FA02F2603341F82320D2
:1045300000BF0C37BD4680BC704700BF00E100E003
:1045400080B483B000AF0346FB7197F90730002BAE
:104550000EDB0A4A97F907305B09803352F82320B3
:10456000FB7903F01F0322FA03F303F0010300E0D9
:10457000002318460C37BD4680BC704700E100E0C0
:1045800080B483B000AF03463960FB7197F9073000
:10459000002B0ADB3B68DAB20C4997F907301201AD
:1045A000D2B20B4483F800230AE03B68DAB2084930
:1045B000FB7903F00F03043B1201D2B20B441A76CD
:1045C00000BF0C37BD4680BC704700BF00E100E073
:1045D00000ED00E080B483B000AF0346FB7197F9B3
:1045E0000730002B09DB0C4A97F90730134493F886
:1045F0000033DBB21B09DBB209E0084AFB7903F0A8
:104600000F03043B13441B7EDBB21B09DBB21846CD
:104610000C37BD4680BC704700E100E000ED00E0D3
:1046200080B489B000AFF860B9607A60FB6803F0CD
:104630000703FB61FB69C3F10703042B28BF0423B5
:10464000BB61FB690433062B02D9FB69033B00E025
:1046500000237B614FF0FF32BB6902FA03F3DA43B8
:10466000BB681A407B699A404FF0FF317B6901FAC1
:1046700003F3D9437B680B40134318462437BD46E8
:1046800080BC704780B489B000AFF860B9607A60D0
:104690003B60BB6803F00703FB61FB69C3F10703E1
:1046A000042B28BF0423BB61FB690433062B02D90A
:1046B000FB69033B00E000237B61FA687B69DA4019
:1046C0004FF0FF31BB6901FA03F3DB431A407B680B
:1046D0001A604FF0FF327B6902FA03F3DA43FB689A
:1046E0001A403B681A6000BF2437BD4680BC704743
:1046F00080B400AFBFF34F8F00BF064BDB6803F4FD
:10470000E0620449044B1343CB60BFF34F8F00BFFB
:1047100000BFFDE700ED00E00400FA0580B582B0BF
:1047200000AF78607B68013BB3F1807F01D3012348
:104730000FE00A4A7B68013B53600F214FF0FF30C6
:10474000FFF71EFF054B00229A60044B07221A60F8
:10475000002318460837BD4680BD00BF10E000E0CA
:1047600080B582B000AF78607868FFF71BFE00BFAD
:104770000837BD4680BD80B586B000AF0346B9603E
:104780007A60FB7300237B61FFF730FE78617A6803
:10479000B9687869FFF744FF024697F90F30114670
:1047A0001846FFF7EDFE00BF1837BD4680BD80B547
:1047B00082B000AF0346FB7197F907301846FFF748
:1047C00023FE00BF0837BD4680BD80B582B000AF74
:1047D0000346FB7197F907301846FFF731FE00BF1B
:1047E0000837BD4680BD80B500AFFFF781FF80B5BB
:1047F00082B000AF78607868FFF790FF03461846F4
:104800000837BD4680BD80B400AFBFF35F8F00BFE7
:10481000064B5B6A054A23F480335362044B002243
:104820005A6000BFBD4680BC704700BF00ED00E08D
:1048300090ED00E080B483B000AF78600A4A7B68F6
:1048400043F001035360094B5B6A084A43F4803329
:104850005362BFF34F8F00BFBFF36F8F00BF00BF26
:104860000C37BD4680BC704790ED00E000ED00E0E5
:1048700080B483B000AF78607B685A781D4B9A6033
:104880007B681B78002B29D01A4A7B685B68D36051
:104890007B681B7B1A077B68DB7A1B061A437B68E5
:1048A0009B7ADB041A437B685B7B9B041A437B681F
:1048B0009B7B5B041A437B68DB7B1B041A437B688E
:1048C0005B7A1B021A437B681B7A5B0013437A688E
:1048D00012781146074A0B43136105E0054B00228D
:1048E000DA60044B00221A6100BF0C37BD4680BC61
:1048F000704700BF90ED00E080B500AFFFF776FD98
:104900000346184680BD80B584B000AFB9607A60B8
:104910003B600346FB7397F90F301846FFF75AFECA
:104920003B687A68B968FFF7ADFE00BF1037BD4637
:1049300080BD80B582B000AF0346FB7197F90730A8
:104940001846FFF7C1FD00BF0837BD4680BD80B5E2
:1049500082B000AF0346FB7197F907301846FFF7A6
:1049600093FD034618460837BD4680BD80B582B02A
:1049700000AF0346FB7197F907301846FFF7C2FDF9
:1049800000BF0837BD4680BD80B582B000AF03468A
:10499000FB7197F907301846FFF7D2FD034618461A
:1049A0000837BD4680BD80B483B000AF78607B68B7
:1049B000042B06D1084B1B68074A43F0040313601D
:1049C00005E0054B1B68044A23F00403136000BF95
:1049D0000C37BD4680BC704710E000E080B500AFEA
:1049E00000F002F800BF80BD80B400AF00BFBD463C
:1049F00080BC704780B582B000AF78607B68002BC8
:104A000001D1012314E07B681B79DBB2002B05D1B7
:104A10007B6800225A71786800F02BF87B680222CC
:104A20001A717B6800221A617B6801221A710023C7
:104A300018460837BD4680BD80B582B000AF7860AB
:104A40007B68002B01D101230FE07B6802221A71E1
:104A5000786800F017F87B6800221A617B680022F2
:104A60001A717B6800225A71002318460837BD4628
:104A700080BD80B483B000AF786000BF0C37BD4606
:104A800080BC704780B483B000AF786000BF0C3743
:104A9000BD4680BC704780B483B000AF7860396099
:104AA0007B685B79012B01D1022340E07B68012206
:104AB0005A717B6802221A717B681B6819683B680F
:104AC00003F0100301229A407B681B680A431A60B6
:104AD0003B68002B0FD17B681B681B6803F03C030D
:104AE0003C2B1DD17B681B685A687B681B6842F0B1
:104AF00001025A6014E07B681B681B6803F47012A3
:104B00003B6803F010033C2101FA03F39A4207D1FA
:104B10007B681B685A687B681B6842F002025A6017
:104B20007B6801221A717B6800225A7100231846A3
:104B30000C37BD4680BC704780B483B000AF78604E
:104B400039607B681B6819683B6803F01003012219
:104B500002FA03F3DA437B681B680A401A607B6839
:104B600001221A71002318460C37BD4680BC7047DD
:104B700080B586B000AFF860B9607A603B60002312
:104B8000FB7500233B61FB685B79012B01D102239C
:104B9000ABE0FB6801225A71FB6802221A71BB6804
:104BA000002B2FD1FB689B68524ADA63FB689B6835
:104BB000514A1A64FB689B68504ADA64FB681B68B8
:104BC0001A68FB681B6842F480521A603B6A082B23
:104BD00013D03B6A082B45D83B6A002B03D03B6AB5
:104BE000042B05D03EE0FB681B6808333B613CE0CA
:104BF000FB681B680C333B6137E0FB681B681033B4
:104C00003B6132E0FB68DB683D4ADA63FB68DB68E6
:104C10003C4A1A64FB68DB683B4ADA64FB681B6841
:104C20001A68FB681B6842F080521A603B6A082BC6
:104C300013D03B6A082B17D83B6A002B03D03B6A82
:104C4000042B05D010E0FB681B6814333B610CE0BB
:104C5000FB681B6818333B6107E0FB681B681C336B
:104C60003B6102E000BF00E000BFBB68002B11D138
:104C7000FB681B681A68FB681B6842F400521A60E4
:104C8000FB68986879683B683A6900F094FC0346D1
:104C9000FB7510E0FB681B681A68FB681B6842F034
:104CA00000521A60FB68D86879683B683A6900F07E
:104CB00082FC0346FB75FB6800225A71FB7D002BCA
:104CC0000CD1FB681B681968BB6803F01003012254
:104CD0009A40FB681B680A431A6005E0FB681B6981
:104CE00043F00402FB681A61FB7D18461837BD4685
:104CF00080BD00BFDD4F0008FF4F00081B500008BB
:104D0000BB520008DD520008F952000880B582B09D
:104D100000AF786039607B681B6819683B6803F0F6
:104D200010034FF4805202FA03F3DA437B681B68E6
:104D30000A401A607B681B6819683B6803F010031F
:104D4000012202FA03F3DA437B681B680A401A6007
:104D50003B68002B0DD17B689B68184600F083FCF4
:104D60007B681B681A687B681B6822F400521A6013
:104D70000CE07B68DB68184600F075FC7B681B68FC
:104D80001A687B681B6822F000521A607B68012257
:104D90001A71002318460837BD4680BD80B582B021
:104DA00000AF78607B681B681B6803F40053B3F5A1
:104DB000005F20D17B681B685B6B03F40053B3F585
:104DC000005F18D17B6804221A717B681B6943F06D
:104DD00001027B681A617B681B684FF400525A63BA
:104DE0007B681B681A687B681B6822F480521A6013
:104DF000786800F06CF87B681B681B6803F0005350
:104E0000B3F1005F20D17B681B685B6B03F000533C
:104E1000B3F1005F18D17B6804221A717B681B69AB
:104E200043F002027B681A617B681B684FF00052F6
:104E30005A637B681B681A687B681B6822F0805283
:104E40001A60786800F017FA00BF0837BD4680BDC9
:104E500080B487B000AFF860B9607A603B6000232F
:104E60007B61FB681B687B61BB68002B05D17A699D
:104E70007B68134408337B6104E07A697B681344E0
:104E800014337B617B691A463B6813600023184624
:104E90001C37BD4680BC704780B483B000AF7860DB
:104EA00000BF0C37BD4680BC704780B483B000AFF4
:104EB000786000BF0C37BD4680BC704780B483B0BB
:104EC00000AF786000BF0C37BD4680BC704780B42F
:104ED00083B000AF786000BF0C37BD4680BC704720
:104EE00080B485B000AF786039600023FB603B6818
:104EF000002B04D17B681B68DB6AFB6003E07B68E6
:104F00001B681B6BFB60FB6818461437BD4680BCF2
:104F1000704780B487B000AFF860B9607A60FB6812
:104F20005B79012B01D102233CE0FB6801225A711D
:104F3000FB6802221A71FB681B681B687B617B6837
:104F400003F0100340F6FE7202FA03F3DB437A69C2
:104F500013407B61BB681A68BB685B6813433B61A5
:104F60007B6803F010033A6902FA03F37A6913438A
:104F70007B61FB681B687A691A60FB681B681968AB
:104F80007B6803F01003C02202FA03F3DA43FB68E4
:104F90001B680A401A60FB6801221A71FB68002234
:104FA0005A71002318461C37BD4680BC704780B438
:104FB00083B000AF78607B681B79DBB218460C3792
:104FC000BD4680BC704780B483B000AF78607B681A
:104FD0001B6918460C37BD4680BC704780B584B04D
:104FE00000AF78607B689B6BFB60F868FFF754FF4D
:104FF000FB6801221A7100BF1037BD4680BD80B525
:1050000084B000AF78607B689B6BFB60F868FFF74B
:105010004CFF00BF1037BD4680BD80B584B000AFE7
:1050200078607B689B6BFB60FB681B6943F0040244
:10503000FB681A61F868FFF741FFFB6801221A71EB
:1050400000BF1037BD4680BD80B485B000AF78602A
:105050000023FB607B685B79012B01D102233BE0DD
:105060007B6801225A717B6802221A717B681B6877
:105070001A687B681B6842F001021A607B681B6833
:105080001A687B681B6842F480321A607B681B6870
:105090001B6803F03C033C2B03D1FB6843F0010386
:1050A000FB607B681B681B6803F47013B3F5701F0B
:1050B00003D1FB6843F00203FB607B681B685968FF
:1050C0007B681B68FA680A435A607B6801221A7180
:1050D0007B6800225A71002318461437BD4680BCF5
:1050E000704780B483B000AF78607B681B681A6833
:1050F0007B681B6822F001021A607B681B681A68D3
:105100007B681B6822F480321A607B6801221A7166
:10511000002318460C37BD4680BC704780B485B06C
:1051200000AFF860B9607A60FB685B79012B01D150
:10513000022324E0FB6801225A71FB6802221A71E3
:10514000FB681B681A68BB6803F010034FF47C61AE
:1051500001FA03F3DB4302EA03017B6843F08002B8
:10516000BB6803F010039A40FB681B680A431A608F
:10517000FB6801221A71FB6800225A71002318464D
:105180001437BD4680BC704780B485B000AFF8606E
:10519000B9607A60FB685B79012B01D1022324E0BE
:1051A000FB6801225A71FB6802221A71FB681B68B6
:1051B0001A68BB6803F010034FF47C6101FA03F333
:1051C000DB4302EA03017B6843F04002BB6803F063
:1051D00010039A40FB681B680A431A60FB680122AF
:1051E0001A71FB6800225A71002318461437BD4615
:1051F00080BC704780B487B000AFF860B9607A6057
:105200003B60BB68082B05D13B681B027A681343DF
:105210007B6104E03B681B047A6813437B61FB6895
:105220001B683B61BA683B69134420333B613B69AF
:105230007A691A60002318461C37BD4680BC704747
:1052400080B483B000AF786000BF0C37BD4680BC2F
:10525000704780B483B000AF786000BF0C37BD46A4
:1052600080BC704780B483B000AF786000BF0C375B
:10527000BD4680BC704780B483B000AF786000BF8B
:105280000C37BD4680BC704780B485B000AF7860F5
:105290000023FB607B681B68DB6AFA681343FB60D2
:1052A0007B681B681B6B1B04FA681343FB60FB687D
:1052B00018461437BD4680BC704780B584B000AF37
:1052C00078607B689B6BFB60F868FFF7B9FFFB6851
:1052D00001221A7100BF1037BD4680BD80B584B071
:1052E00000AF78607B689B6BFB60F868FFF7B1FFED
:1052F00000BF1037BD4680BD80B584B000AF786078
:105300007B689B6BFB60FB681B6943F00402FB68D6
:105310001A61F868FFF7A6FFFB6801221A7100BF47
:105320001037BD4680BD000080B586B000AF786004
:1053300000237B61FEF7ECFE38617B68002B01D116
:10534000012399E07B68022283F835207B680022E4
:1053500083F834207B681B681A687B681B6822F01E
:1053600001021A600FE0FEF7D3FE02463B69D31A32
:10537000052B08D97B6820225A657B68032283F8B5
:105380003520032378E07B681B681B6803F001036A
:10539000002BE8D17B681B681B687B617A69384BFE
:1053A00013407B617B685A687B689B681A437B6803
:1053B000DB681A437B681B691A437B685B691A4385
:1053C0007B689B691A437B68DB691A437B681B6AAD
:1053D00013437A6913437B617B685B6A042B07D1B3
:1053E0007B68DA6A7B681B6B13437A6913437B61C2
:1053F0007B681B687A691A607B681B685B697B61E4
:105400007B6923F007037B617B685B6A7A691343DE
:105410007B617B685B6A042B17D17B689B6A7A6926
:1054200013437B617B68DB6A002B0ED0786800F049
:1054300047FD0346002B08D07B6840225A657B68F5
:10544000012283F83520012316E07B681B687A6906
:105450005A61786800F0FFFC0346FB607B68DB6DF7
:105460003F229A40FB689A607B6800225A657B68FD
:10547000012283F83520002318461837BD4680BD29
:105480003F8010F080B584B000AF78607B68002B5F
:1054900001D1012350E07B6893F83530DBB2022B59
:1054A00001D1022348E07B681B681A687B681B688F
:1054B00022F001021A607B681B6800221A607B6878
:1054C0001B6800225A607B681B6800229A607B6818
:1054D0001B680022DA607B681B6800221A617B6807
:1054E0001B6821225A61786800F0B5FC0346FB6016
:1054F0007B680022DA637B6800221A647B680022E2
:105500005A647B6800229A647B680022DA647B68B4
:1055100000221A657B68DB6D3F229A40FB689A6027
:105520007B6800225A657B68002283F835207B68FF
:10553000002283F83420002318461037BD4680BD72
:1055400080B586B000AFF860B9607A603B60002338
:10555000FB75FB6893F83430012B01D1022326E060
:10556000FB68012283F83420FB6893F83530DBB206
:10557000012B15D1FB68022283F83520FB6800223D
:105580005A653B687A68B968F86800F037FCFB68D0
:105590001B681A68FB681B6842F001021A6005E08C
:1055A000FB68002283F834200223FB75FB7D18463C
:1055B0001837BD4680BD80B586B000AFF860B960D1
:1055C0007A603B600023FB75FB689B6D3B61FB6869
:1055D00093F83430012B01D1022340E0FB68012213
:1055E00083F83420FB6893F83530DBB2012B2FD1E0
:1055F000FB68022283F83520FB6800225A653B686D
:105600007A68B968F86800F0F9FBFB68DB6D3F2247
:105610009A403B699A60FB681B681A68FB681B68C4
:1056200042F016021A60FB681B6C002B07D0FB6867
:105630001B681A68FB681B6842F008021A60FB6866
:105640001B681A68FB681B6842F001021A6005E0DB
:10565000FB68002283F834200223FB75FB7D18468B
:105660001837BD4680BD80B584B000AF78607B68D8
:105670009B6DFB60FEF74CFDB8607B6893F835309E
:10568000DBB2022B08D07B6880225A657B6800223F
:1056900083F83420012352E07B681B681A687B681A
:1056A0001B6822F016021A607B681B685A697B68C7
:1056B0001B6822F080025A617B681B6C002B03D1AF
:1056C0007B689B6C002B07D07B681B681A687B6823
:1056D0001B6822F008021A607B681B681A687B68E6
:1056E0001B6822F001021A6013E0FEF711FD02466A
:1056F000BB68D31A052B0CD97B6820225A657B68BE
:10570000032283F835207B68002283F834200323AA
:1057100015E07B681B681B6803F00103002BE4D1D4
:105720007B68DB6D3F229A40FB689A607B680122B0
:1057300083F835207B68002283F834200023184644
:105740001037BD4680BD80B483B000AF78607B6801
:1057500093F83530DBB2022B04D07B6880225A6587
:1057600001230CE07B68052283F835207B681B68E9
:105770001A687B681B6822F001021A600023184631
:105780000C37BD4680BC704780B58AB000AFF8606A
:105790000B467A60FB720023FB77FEF7B9FCB86119
:1057A000FB6893F83530DBB2022B08D0FB6880220F
:1057B0005A65FB68002283F834200123BFE0FB68B0
:1057C0001B681B6803F48073002B05D0FB684FF443
:1057D00080725A650123B2E0FB7A002B06D1FB6888
:1057E000DB6D202202FA03F37B6205E0FB68DB6DD0
:1057F000102202FA03F37B62FB689B6D7B617B697D
:105800001B683B625AE07B68B3F1FF3F17D07B68AF
:10581000002B07D0FEF77CFC0246BB69D31A7A68DE
:105820009A420CD2FB6820225A65FB68012283F859
:105830003520FB68002283F8342003237FE07B6956
:105840001B683B62FB68DB6D08229A403B6A134091
:10585000002B0BD0FB685B6D43F00102FB685A65BF
:10586000FB68DB6D08229A407B699A60FB68DB6D00
:1058700001229A403B6A1340002B0BD0FB685B6D02
:1058800043F00202FB685A65FB68DB6D01229A4017
:105890007B699A60FB68DB6D04229A403B6A134087
:1058A000002B0BD0FB685B6D43F00402FB685A656C
:1058B000FB68DB6D04229A407B699A603A6A7B6AD6
:1058C0001340002B05D1FB685B6D03F00103002B37
:1058D00099D0FB685B6D002B18D0FB685B6D03F003
:1058E0000103002B12D0F868FFF7BDFEFB68DB6DEB
:1058F00030229A407B699A60FB68012283F8352048
:10590000FB68002283F83420012318E0FB7A002B87
:105910000ED1FB68DB6D30229A407B699A60FB6890
:10592000012283F83520FB68002283F8342005E04B
:10593000FB68DB6D10229A407B699A60FB7F1846FA
:105940002837BD4680BD80B586B000AF78600023A3
:10595000BB608E4B1B688E4AA2FB03239B0A7B61B4
:105960007B689B6D3B613B691B68FB607B68DB6D03
:1059700008229A40FB681340002B1AD07B681B68F2
:105980001B6803F00403002B13D07B681B681A68A4
:105990007B681B6822F004021A607B68DB6D0822BA
:1059A0009A403B699A607B685B6D43F001027B68BB
:1059B0005A657B68DB6D01229A40FB681340002B1F
:1059C00012D07B681B685B6903F08003002B0BD04F
:1059D0007B68DB6D01229A403B699A607B685B6D56
:1059E00043F002027B685A657B68DB6D04229A40B3
:1059F000FB681340002B12D07B681B681B6803F008
:105A00000203002B0BD07B68DB6D04229A403B69BC
:105A10009A607B685B6D43F004027B685A657B6823
:105A2000DB6D10229A40FB681340002B43D07B684B
:105A30001B681B6803F00803002B3CD07B68DB6D00
:105A400010229A403B699A607B681B681B6803F4CC
:105A50008023002B18D07B681B681B6803F400238D
:105A6000002B08D17B681B6C002B24D07B681B6C3F
:105A7000786898471FE07B689B6C002B1BD07B6885
:105A80009B6C7868984716E07B681B681B6803F47A
:105A90008073002B07D17B681B681A687B681B68C2
:105AA00022F008021A607B681B6C002B03D07B6815
:105AB0001B6C786898477B68DB6D20229A40FB68F6
:105AC0001340002B00F08E807B681B681B6803F07E
:105AD0001003002B00F086807B68DB6D20229A404B
:105AE0003B699A607B6893F83530DBB2052B36D181
