:020000040800F2
:10000000000003209D9602087F7802089B78020872
:10001000B7780208D3780208EF78020800000000E1
:10002000000000000000000000000000ED96020843
:100030000B79020800000000ED96020827790208FB
:10004000ED960208ED960208ED960208ED9602087C
:10005000ED960208ED960208ED960208ED9602086C
:10006000ED960208ED960208ED960208ED9602085C
:10007000ED960208ED960208ED960208ED9602084C
:10008000ED960208ED960208ED960208ED9602083C
:10009000ED960208ED960208ED960208ED9602082C
:1000A000ED960208ED960208ED960208ED9602081C
:1000B000ED960208ED960208ED960208ED9602080C
:1000C000ED960208ED960208ED960208ED960208FC
:1000D000ED960208ED960208ED960208ED960208EC
:1000E000ED960208ED960208ED960208ED960208DC
:1000F000ED960208ED960208ED960208ED960208CC
:10010000ED960208ED960208ED960208ED960208BB
:10011000ED960208ED960208ED960208ED960208AB
:10012000ED960208ED960208ED960208ED9602089B
:10013000ED96020837790208ED960208ED9602085E
:10014000ED960208ED960208ED960208ED9602087B
:10015000ED960208ED960208ED960208ED9602086B
:10016000ED960208ED960208ED960208ED9602085B
:10017000ED960208ED960208ED96020800000000D8
:10018000ED960208ED960208ED960208ED9602083B
:10019000ED960208ED960208ED960208ED9602082B
:0C01A000ED960208ED960208ED960208AC
:1001C0000348044B834202D0034B03B118477047E6
:1001D0004407002044070020000000000548064BAB
:1001E0001B1AD90F01EBA301491002D0034B03B135
:1001F0001847704744070020440700200000000013
:1002000010B5064C237843B9FFF7DAFF044B13B15E
:100210000448AFF300800123237010BD4407002081
:1002200000000000D001030808B5044B1BB10449CD
:100230000448AFF30080BDE80840CFE700000000AD
:1002400048070020D0010308A3F5803A704700BF9B
:10025000154B002B08BF114B9D46FFF7F5FF002102
:100260008B460F461148124A121A29F00FFD0C4B0B
:10027000002B00D098470B4B002B00D09847002054
:10028000002104000D000B4829F032FA29F0D2FDBC
:100290002000290000F010F829F030FA00000800D2
:1002A00000000000000000000000000044070020E3
:1002B000780E0020819E020880B500AF05F028FA74
:1002C00000F005F800F072F800F0DAF8FCE780B50D
:1002D00094B000AF07F1200330220021184629F026
:1002E000D5FC07F10C0300221A605A609A60DA60AC
:1002F0001A610023BB602B4B1B6C2A4A43F08053CE
:100300001364284B1B6C03F08053BB60BB68002355
:100310007B60254B1B68244A43F440431360224B07
:100320001B6803F440437B607B6801233B624FF40E
:10033000A0237B620223BB634FF48003FB6308238B
:100340003B644FF4B4737B640223BB640723FB64F8
:1003500007F12003184612F042F90346002B00D0A3
:10036000FEE712F045F80346002B00D0FEE70F230E
:10037000FB6002233B6100237B614FF4A053BB6110
:100380004FF48053FB6107F10C030521184612F06E
:100390009FFB0346002B00D0FEE700BF5037BD4651
:1003A00080BD00BF003802400070004080B588B0BA
:1003B00002AF01F041FC002000F01EFA2C4B3C2261
:1003C0001A602B4B50225A60294B01221A76284B77
:1003D00000225A61264B00221A72254B0022DA6055
:1003E000234B00221A61234B1A46002313605360EB
:1003F0009360D36013615361002300221C491D48A0
:1004000003F068F840F2FF711A4803F0A3F8184BA4
:100410001B689BB2143B9BB21AB2174B1A80144B49
:100420005B689BB206339BB21AB2144B1A80124B14
:10043000B3F90030012B02DC0F4B02221A800F4B64
:10044000B3F90030012B02DC0C4B02221A800A4B5C
:10045000B3F90000094BB3F900104FF6E0730093B5
:100460000C23102202F08EFC00BF1837BD4680BD61
:10047000600700207C0700209407002096070020DA
:1004800090B589B004AF0021904803F096F8904BE6
:100490001B7801335A4203F01F0302F01F0258BFBA
:1004A0005342DAB28A4B1A70894B1B780F2B94BFD8
:1004B00001230023DBB27B717B79002B04D1844BB9
:1004C0001B78103BFB7302E0814B1B78FB73FB7BBB
:1004D000072B04D8FB7B9BB204337B8005E0FB7BBE
:1004E000083B9BB2C3F10C037B807A4B1B689AB22A
:1004F000794BB3F900309BB213449BB2BB81754B6F
:100500005B689AB2754BB3F900309BB213449BB24F
:100510007B81B7F90C30102B0ADC1123BB816E4BA9
:10052000B3F900309BB25B429BB21AB26A4B1A809D
:1005300000F0FAF803461F3B9BB21BB2B7F90C2040
:100540009A420EDD00F0F0F803461F3B9BB2BB81E0
:10055000614BB3F900309BB25B429BB21AB25E4B67
:100560001A80B7F90A300F2B0ADC10237B815B4B12
:10057000B3F900309BB25B429BB21AB2574B1A8060
:1005800000F0DEF80346143B9BB21BB2B7F90A2019
:100590009A420EDD00F0D4F80346143B9BB27B81F7
:1005A0004E4BB3F900309BB25B429BB21AB24B4B3D
:1005B0001A80B7F90C30474A1360B7F90A30454A38
:1005C0005360002300224349404802F083FF40F279
:1005D000FF713E4802F0BEFF3E4B1B689BB2143BCE
:1005E0009BB23B813B4B5B689BB206339BB2FB806B
:1005F000B7F90830012B01DC02233B8100F094F8AD
:100600000346123B9BB21BB2B7F908209A4205DDA4
:1006100000F08AF80346123B9BB23B81B7F90630E3
:10062000012B01DC0223FB8000F08AF803460E3B1D
:100630009BB21BB2B7F906209A4205DD00F080F8A4
:1006400003460E3B9BB2FB80254BB3F90000254BC4
:10065000B3F90010B7F90630B7F908200024039465
:100660004FF6E07402940C2401941024009402F0DC
:10067000CEFB1B4A3B8913801A4AFB881380154B1B
:100680001B689BB20F3B9BB218B2124B5B689BB2CC
:100690000E3B9BB219B24FF6FF73009320232C221E
:1006A00002F062FD0E4BB3F900000E4BB3F90010DF
:1006B0004FF6FF7300930C23102202F055FD10201B
:1006C00005F008F900BF1437BD4690BD7C07002037
:1006D000980700206007002004000020060000208A
:1006E000940700209607002080B582B000AF012358
:1006F000FB710A4B1B681B689847094B00225A6024
:10070000074B4FF6FF721A60054B064A9A600023AA
:10071000FB71FB7918460837BD4680BD4C000020B0
:100720009C0700205800002080B500AF034B1B68D9
:100730009B6A98470346184680BD00BF4C000020C6
:1007400080B500AF034B1B68DB6A98470346184629
:1007500080BD00BF4C00002080B400AF034B1B687D
:100760009BB21846BD4680BC704700BF9C07002066
:1007700080B400AF034B5B689BB21846BD4680BC9B
:10078000704700BF9C07002080B483B000AF0346D1
:10079000FB80FB88034A136000BF0C37BD4680BC5A
:1007A000704700BF9C07002080B483B000AF0346B1
:1007B000FB80FB88034A536000BF0C37BD4680BCFA
:1007C000704700BF9C07002080B483B000AF786002
:1007D000034A7B68936000BF0C37BD4680BC7047FE
:1007E0009C07002080B400AF024B9B681846BD46B2
:1007F00080BC70479C070020B0B584B002AF0346B0
:10080000FB800B4B1B689C6BFFF78EFF03461D465E
:10081000FFF796FF03461A46FB88009313462A46C5
:1008200000210020A04700BF0837BD46B0BD00BF73
:100830004C00002090B585B000AF0346FB80134B01
:100840001B68FB60114B5B68104A13600F4B9B6881
:10085000DB88FA8812FB03F39CB2FFF765FF0346BF
:100860001A460A4B9B68DB882146002000F09CFC5E
:10087000064AFB681360054B1B689BB21846FFF7DE
:1008800083FF00BF1437BD4690BD00BF9C0700200A
:1008900080B582B000AF0346FB800B46BB80134699
:1008A000FB700F4B9B681A68FB78203B0C498968EA
:1008B000C98803FB01F10A4B9B689B880733002B17
:1008C00000DA0733DB1001FB03F31A44B988FB8815
:1008D000184600F0CDFE00BF0837BD4680BD00BF02
:1008E0009C07002090B589B000AFBA601A46034655
:1008F000FB810B46BB811346FB710123FB83002365
:10090000BB830023BB6100233B61BB687B6102E0CA
:10091000BB690133BB617B695A1C7A611B78002B70
:10092000F6D1FFF701FF03461A46354B9B689B88BB
:10093000B2FBF3F39BB23B61FB79032B14D0032B87
:1009400023DC012B02D0022B11D01EE03A69BB69D7
:10095000D31A2B4A9268928802FB03F35B089AB27F
:10096000FB891344FB8313E0FB89FB8310E03A69A6
:10097000BB69D31A9AB2224B9B689B8812FB03F384
:100980009AB2FB89D31AFB8302E0FB89FB8300BF89
:1009900012E0BB681A78B989FB8B1846FFF778FF1D
:1009A000174B9B689A88FB8B1344FB83BB6801330E
:1009B000BB60BB8B0133BB83BB681B78002B14BFB0
:1009C00001230023DCB2FFF7AFFE03461946BB8BC1
:1009D0000B4A9268928802FB03F3CB1A9BB2084A37
:1009E000926892889342ACBF01230023DBB223407C
:1009F000DBB2002BCDD100BF00BF2437BD4690BD78
:100A00009C07002080B582B000AF03463960FB80B0
:100A1000FFF7E8FE0346DB88FA8812FB03F399B27E
:100A200003233A680020FFF75DFF00BF0837BD468B
:100A300080BD80B582B000AF0346FB800B46BB8013
:100A400013467B80074B1B685B69002B06D0054B68
:100A50001B685B697A88B988F888984700BF0837AF
:100A6000BD4680BD4C00002090B585B000AF034668
:100A7000FB800B46BB8013467B800023FB60154B3D
:100A80001B681B6A002B0AD0124B1B681C6A124B96
:100A90001B6898B27B88BA88F988A04715E00023C4
:100AA000FB600EE0FB689AB2FB8813449BB20A4AD3
:100AB000126892B2B9881846FFF7BBFFFB68013392
:100AC000FB607B88FA689A42ECD300BF1437BD46BE
:100AD00090BD00BF4C0000209C07002090B585B061
:100AE00000AF0346FB800B46BB8013467B80002390
:100AF000FB60154B1B685B6A002B0AD0124B1B680E
:100B00005C6A124B1B6898B27B88BA88F988A04748
:100B100015E00023FB600EE0FB689AB2BB8813442B
:100B200099B20A4B1B689AB2FB881846FFF781FFFF
:100B3000FB680133FB607B88FA689A42ECD300BF04
:100B40001437BD4690BD00BF4C0000209C0700201C
:100B500090B58BB000AF0446084611461A462346AE
:100B6000FB800346BB800B467B8013463B80002303
:100B70003B820023FB810023FB840023BB840023F2
:100B80007B8400233B840023FB830023BB8300235F
:100B90007B8300233B830023FB820023BB82002353
:100BA0007B827A88FB88D31A002BB8BF5B423B82DA
:100BB0003A88BB88D31A002BB8BF5B42FB81FB8805
:100BC000FB84BB88BB847A88FB889A4204D30123C8
:100BD0007B8401233B8405E04FF6FF737B844FF653
:100BE000FF733B843A88BB889A4204D30123FB837A
:100BF0000123BB8305E04FF6FF73FB834FF6FF73C2
:100C0000BB83B7F91020B7F90E309A4210DB0023EE
:100C10007B840023BB833B8A7B83B7F91030DA0FD8
:100C200013445B103B83FB89FB823B8ABB820FE052
:100C300000233B840023FB83FB897B83B7F90E30C1
:100C4000DA0F13445B103B833B8AFB82FB89BB8238
:100C500000237B8231E0FB8CB98C1D4A126892B272
:100C60001846FFF7E6FE3A8BFB8A13449BB23B83A0
:100C7000B7F91820B7F91A309A420EDB3A8B7B8B02
:100C8000D31A9BB23B83FA8C7B8C13449BB2FB84BC
:100C9000BA8CFB8B13449BB2BB84FA8C3B8C134401
:100CA0009BB2FB84BA8CBB8B13449BB2BB84B7F959
:100CB00012309BB201339BB27B82B7F91220B7F995
:100CC00014309A42C7DD00BF00BF2C37BD4690BD2F
:100CD0009C07002090B583B000AF0446084611463B
:100CE0001A462346FB800346BB800B467B80134697
:100CF0003B807A88B988FB881846FFF7B5FEBA882A
:100D00003B8813449BB2013B99B27A88FB88184612
:100D1000FFF7AAFE3A88B988FB881846FFF7DEFE7F
:100D2000FA887B8813449BB2013B9BB23A88B9880E
:100D30001846FFF7D3FE00BF0C37BD4690BD80B507
:100D400086B000AF0346FB800B46BB8013467B801A
:100D50007B885B00C3F103037B6100233B617B88DD
:100D6000FB6097E03B699AB2FB88134498B2FB683A
:100D70009BB2BA88D31A9BB24B4A126892B21946F8
:100D8000FFF757FE3B699BB2FA88D31A98B2FB680B
:100D90009BB2BA88D31A9BB2434A126892B21946E0
:100DA000FFF747FEFB689AB2FB88134498B23B6991
:100DB0009BB2BA88D31A9BB23B4A126892B21946C8
:100DC000FFF737FEFB689BB2FA88D31A98B23B69EB
:100DD0009BB2BA88D31A9BB2334A126892B21946B0
:100DE000FFF727FE3B699AB2FB88134498B2FB6871
:100DF0009AB2BB8813449BB22B4A126892B219462E
:100E0000FFF717FE3B699BB2FA88D31A98B2FB68CA
:100E10009AB2BB8813449BB2234A126892B2194615
:100E2000FFF707FEFB689AB2FB88134498B23B6950
:100E30009AB2BB8813449BB21B4A126892B21946FD
:100E4000FFF7F7FDFB689BB2FA88D31A98B23B69AB
:100E50009AB2BB8813449BB2134A126892B21946E5
:100E6000FFF7E7FD7B69002B06DA3B699A007B6997
:100E7000134406337B610AE03A69FB68D31A9A008F
:100E80007B6913440A337B61FB68013BFB603B6970
:100E900001333B613A69FB689A427FF663AF00BF5A
:100EA00000BF1837BD4680BD9C07002090B585B0B7
:100EB00000AF78600B467B800023FB810023BB8161
:100EC0007B88012B3BD97B68B3F9003098B27B68F3
:100ED000B3F9023099B27B8803F18043013B9B0058
:100EE0007A681344B3F900309CB27B8803F18043E5
:100EF000013B9B007A681344B3F902309BB222464F
:100F0000FFF726FE14E07B681B88FB817B685B880B
:100F1000BB817B6804337B60F889B9897B68B3F94E
:100F200000309AB27B68B3F902309BB2FFF710FE33
:100F30007B88013B7B807B88002BE4D100E000BFF5
:100F40001437BD4690BD90B58BB000AF044608463F
:100F500011461A462346FB800346BB800B467B8026
:100F600013463B8000237B623B885B423B627B886D
:100F7000C3F101035B00FB614FF000037B614FF0A5
:100F800000033B614FF00003FB607B88184628F0AC
:100F90001BF803463B613B88184628F015F80346CA
:100FA000FB603969F86828F01BF903467B61786AB1
:100FB00028F00EF803467969184628F011F903461F
:100FC000184628F0A9F903469BB2FA88D31A98B2BA
:100FD0003B6A9AB2BB8813449BB2454A126892B2EC
:100FE0001946FFF726FD786A27F0F2FF0346796974
:100FF000184628F0F5F80346184628F08DF9034600
:101000009AB2FB88134498B23B6A9AB2BB881344E5
:101010009BB2374A126892B21946FFF70AFD786A06
:1010200027F0D6FF03467969184628F0D9F8034619
:10103000184628F071F903469AB2FB88134498B217
:101040003B6A9BB2BA88D31A9BB2294A126892B201
:101050001946FFF7EEFC786A27F0BAFF0346796974
:10106000184628F0BDF80346184628F055F90346FF
:101070009BB2FA88D31A98B23B6A9BB2BA88D31A49
:101080009BB21B4A126892B21946FFF7D2FCFB6969
:10109000BB61BA697B6A9A4213DC7B6A01337B626B
:1010A0007B6A5B000133FA691344FB613B6A5B4274
:1010B0007A6A9A4205D1BA693B6A9A4201DC0023F6
:1010C000BB61BA693B6A9A4208DD3B6A01333B6205
:1010D0003B6A5B000133FA691344FB613B6A002BF6
:1010E0007FF765AF00BF00BF2C37BD4690BD00BF86
:1010F0009C07002090B585B000AF03463A60FB80A6
:101100000B46BB800023FB600023BB603B681233AF
:101110001B781A463B6813331B781B021A443B6842
:1011200014331B781B041A443B6815331B781B06C9
:101130001344BB603B6816331B781A463B68173371
:101140001B781B021A443B6818331B781B041A4493
:101150003B6819331B781B061344FB60BB689AB2CB
:10116000FB689BB2B988F88800F0BCFC0D4B1B688B
:101170001B6B002B06D00B4B1B681B6BB988F888C8
:101180003A689847FFF7D0FA03461C46FFF7D8FAAB
:10119000034622460021002000F0A4FC00BF1437C3
:1011A000BD4690BD4C000020B0B584B002AF0446EF
:1011B000084611461A462346FB800346BB800B4671
:1011C0007B8013463B80084B1B689C6B074B1B685E
:1011D0009BB23D887A88B988F88800932B46A0474F
:1011E00000BF0837BD46B0BD4C0000209C07002062
:1011F00080B586B000AF0346FB800B46BB8013462C
:101200007B807B885B00C3F103037B6100233B6130
:101210007B88FB603B4B1B689BB21846FFF7B4FA18
:1012200061E0FB68002B21D0FB689BB2FA88D31ADF
:1012300098B23B699AB2BB88134499B2FB689BB2DF
:101240005B009BB21A46FFF70FFCFB689BB2FA8863
:10125000D31A98B23B699BB2BA88D31A99B2FB6889
:101260009BB25B009BB21A46FFF7FEFB3B69002B6B
:1012700021D03B699BB2FA88D31A98B2FB689BB223
:10128000BA88D31A99B23B699BB25B009BB21A46EB
:10129000FFF7EAFB3B699BB2FA88D31A98B2FB6866
:1012A0009AB2BB88134499B23B699BB25B009BB274
:1012B0001A46FFF7D9FB7B69002B06DA3B699A00D7
:1012C0007B69134406337B610AE03A69FB68D31AF1
:1012D0009A007B6913440A337B61FB68013BFB6026
:1012E0003B6901333B613A69FB689A4299D97A8834
:1012F000B988FB881846FFF722FD00BF1837BD46A6
:1013000080BD00BF9C070020B0B58CB002AF7860F4
:101310000B467B8000233B830023FB820023FB845E
:101320000023BB840023BB8200237B8200233B82FB
:101330000023FB810023BB8100237B8100237B846E
:1013400000233B840023FB830023BB8300237B8398
:101350007B68B3F90030FB83FB8B3B847B68B3F97C
:1013600002307B837B8BBB8301237B842FE0B7F927
:1013700022309B007A6813441B88BB81B7F90C208C
:101380003B8C9A4201DABB893B84B7F90C20FB8B7A
:101390009A4201DDBB89FB83B7F922309B007A6852
:1013A00013445B887B81B7F90A20BB8B9A4201DA30
:1013B0007B89BB83B7F90A207B8B9A4201DD7B894D
:1013C0007B83B7F922309BB201339BB27B84B7F9A0
:1013D00022207B889A42CADB7B88012B72D93A8C07
:1013E000FB8B1344DA0F13445B10BB827A8BBB8BED
:1013F0001344DA0F13445B107B827B681B883B82AB
:101400007B685B88FB8132E07B681B883B837B6861
:101410005B88FB827B6804337B607B681B88FB8472
:101420007B685B88BB84388BF98AFC8CBD8CBB8A5B
:101430007A8A019200932B46224600F00BFA388BF1
:10144000F98ABC8A7D8AFB8CBA8C019200932B4668
:10145000224600F0FFF9B88A798AFC8CBD8C3B8B60
:10146000FA8A019200932B46224600F0F3F97B881A
:10147000013B7B807B88002BC6D1388AF989FC8CA4
:10148000BD8CBB8A7A8A019200932B46224600F0DB
:10149000E1F9388AF989BC8A7D8AFB8CBA8C019281
:1014A00000932B46224600F0D5F9B88A798AFC8C45
:1014B000BD8C3B8AFA89019200932B46224600F0AC
:1014C000C9F900E000BF2837BD46B0BDB0B58AB04D
:1014D00000AF0446084611461A462346FB800346E1
:1014E000BB800B467B8013463B8000237B623B889E
:1014F0005B423B627B88C3F101035B00FB614FF001
:1015000000037B614FF000033B614FF00003FB6081
:101510007B88184627F058FD03463B613B881846F8
:1015200027F052FD0346FB603969F86827F058FE42
:1015300003467B61786A27F04BFD034679691846BC
:1015400027F04EFE0346184627F0E6FE03469BB200
:10155000FA88D31A9CB23B6A9AB2BB8813449DB2F4
:10156000786A27F035FD03467969184627F038FE7A
:101570000346184627F0D0FE03469BB25B009BB2A1
:1015800001339BB21A4629462046FFF76DFA786A66
:1015900027F01EFD03467969184627F021FE034611
:1015A000184627F0B9FE03469BB2FA88D31A9CB2BC
:1015B0003B6A9BB2BA88D31A9DB2786A27F008FDBD
:1015C00003467969184627F00BFE0346184627F0B4
:1015D000A3FE03469BB25B009BB201339BB21A464B
:1015E00029462046FFF740FAFB69BB61BA697B6A6E
:1015F0009A4213DC7B6A01337B627B6A5B000133B6
:10160000FA691344FB613B6A5B427A6A9A4205D1EC
:10161000BA693B6A9A4201DC0023BB61BA693B6A42
:101620009A4208DD3B6A01333B623B6A5B0001334F
:10163000FA691344FB613B6A002B7FF77BAF00BF65
:1016400000BF2837BD46B0BD80B500AF024B1B6858
:101650009B68984700BF80BD4C00002080B500AF5C
:10166000024B1B68DB68984700BF80BD4C00002020
:1016700080B58AB000AF03463A60FB800B46BB8062
:1016800000237B6200233B620023BB610023FB82BB
:101690000023BB820023FB740023FB600023FB615B
:1016A000634B9B68DB88FB82614B9B689B88BB829A
:1016B000FA8ABB8A12FB03F39BB21B339BB25D4ACF
:1016C0005B009BB21380FB8ABA8A02FB03F31B33D5
:1016D0005B001A14584B92B21A80584B36221A806B
:1016E000574ABB8A1380BB8A1A14564B92B21A808F
:1016F000554AFB8A1380FB8A1A14544B92B21A8003
:10170000BB8A0733002B00DA0733DB10DBB2DB00C8
:10171000DAB2BB8ADBB2D31AFB7400237B6278E0B7
:10172000BB8A0733002B00DA0733DB101A467B6ACB
:1017300002FB03F33A681344FB60BB8A113B072B9F
:101740000CD8FB681B781A04FB6801331B781B025A
:101750001343FA68023212781343FB61BB8A093BD8
:10176000072B07D8FB681B781B02FA680132127836
:101770001343FB61BB8A013B072B02D8FB681B7834
:10178000FB6100233B623DE0FA8A7B6AD31A013B8E
:10179000BA8A03FB02F23B6A13441B335B00BB6152
:1017A000BA8A3B6AD21AFB7C1344013B012202FA3B
:1017B00003F31A46FB691340002B10D01C4B1B6827
:1017C000D9B2234ABB6913440A461A70184B1B68E6
:1017D0001A0ABB690133D1B21D4AD1540FE0144B30
:1017E0005B68D9B21A4ABB6913440A461A70104B97
:1017F0005B681A0ABB690133D1B2154AD1543B6AFE
:1018000001333B62BB8A3A6A9A42BDD37B6A013399
:101810007B62FB8A7A6A9A4282D3B988FB880C4A37
:101820001846FFF767FC00BF2837BD4680BD00BFE4
:101830009C070020AA070020AC070020B207002068
:10184000BA070020BC070020BE070020C007002008
:10185000A807002090B58FB000AF04460846114697
:101860001A462346FB800346BB800B467B8013460B
:101870003B80BA883B889A420BD9BB88FB843B8863
:10188000BB80FB8C3B80FB88BB847B88FB80BB8C54
:101890007B803A88B7F84C309A420FD9B7F84C3071
:1018A0007B843B88A7F84C307B8C3B80B7F8483072
:1018B0003B847B88A7F848303B8C7B80BA883B8888
:1018C0009A420BD9BB88FB833B88BB80FB8B3B8058
:1018D000FB88BB837B88FB80BB8B7B80BA88B7F897
:1018E0004C309A4231D1FB88BB86BB8EFB867A880E
:1018F000B7F936309A4202DA7B88FB8606E07A88AE
:10190000B7F934309A4201DD7B88BB86B7F84820AE
:10191000B7F936309A4203DAB7F84830FB8608E068
:10192000B7F84820B7F934309A4202DDB7F84830AA
:10193000BB86F88EBA8EFB8ED31A9BB201339AB255
:10194000BB881946FFF790F8C9E07A88FB88D31A5C
:101950009BB27B833A88BB88D31A9BB23B83B7F890
:101960004820FB88D31A9BB2FB82B7F84C20BB8877
:10197000D31A9BB2BB82B7F848207B88D31A9BB29C
:101980007B82B7F84C203B88D31A9BB23B82002362
:10199000FB620023BB623A88B7F84C309A4202D10E
:1019A0003B883B8603E03B88013B9BB23B86BB8880
:1019B0007B863AE0B7F91830FA6A92FBF3F39AB2F1
:1019C000FB8813449BB2FB86B7F91430BA6A92FBCA
:1019D000F3F39AB2FB8813449BB2BB86B7F91A3073
:1019E000FA6A1344FB62B7F91630BA6A1344BB6251
:1019F000B7F93620B7F934309A4205DDFB8EBB814A
:101A0000BB8EFB86BB89BB86F88E798EBA8EFB8E29
:101A1000D31A9BB201339BB21A46FFF725F8B7F9E8
:101A200032309BB201339BB27B86B7F93220B7F9D3
:101A300030309A42BEDDB7F91230B7F932103A8829
:101A40008A1A02FB03F3FB62B7F91630B7F93210BA
:101A5000BA888A1A02FB03F3BB623AE0B7F9103086
:101A6000FA6A92FBF3F39AB27B8813449BB2FB862B
:101A7000B7F91430BA6A92FBF3F39AB2FB881344B5
:101A80009BB2BB86B7F91230FA6A1344FB62B7F90E
:101A90001630BA6A1344BB62B7F93620B7F934304E
:101AA0009A4205DDFB8EFB81BB8EFB86FB89BB86E4
:101AB000F88E798EBA8EFB8ED31A9BB201339BB20D
:101AC0001A46FEF7D1FFB7F932309BB201339BB211
:101AD0007B86B7F93220B7F84C309A42BEDD3C37EE
:101AE000BD4690BD90B583B000AF04460846114690
:101AF0001A462346FB800346BB800B467B80134679
:101B00003B80084B1B68DB69002B07D0054B1B682B
:101B1000DC693B887A88B988F888A04700BF0C3711
:101B2000BD4690BD4C00002080B500AF064B1B6841
:101B30005B68002B05D0044B1B685B689847034625
:101B400000E00023184680BD4C00002080B582B024
:101B500000AF03460A46FB801346BB80094B1B6857
:101B60009B69002B08D0074B1B689B69B988FA88D2
:101B700010469847034600E0002318460837BD4644
:101B800080BD00BF4C000020B0B584B002AF044659
:101B9000084611461A462346FB800346BB800B4687
:101BA0007B8013463B80074B1B685C6B3D887A88C3
:101BB000B988F888BB6900932B46A04700BF083757
:101BC000BD46B0BD4C000020B0B584B002AF0446A5
:101BD000084611461A462346FB800346BB800B4647
:101BE0007B8013463B80074B1B68DC6B3D887A8803
:101BF000B988F888BB6900932B46A04700BF083717
:101C0000BD46B0BD4C00002080B582B000AF034699
:101C1000FB800B46BB8013467B80064B1B681B6C0E
:101C20007A88B988B7F90600984700BF0837BD46DB
:101C300080BD00BF4C00002080B500AF434B1B7837
:101C400003F00103002B15D1404B1B7843F0010337
:101C5000DAB23E4B1A703D4B1B7803F00203002BA7
:101C600001D100F0D8FC394B1B7843F00203DAB203
:101C7000364B1A70692000F0B9FC012000F068FDB5
:101C8000052000F0B3FC0F223149E02000F0ECFD0C
:101C90000F223049E12000F0E7FD02222E49C0204A
:101CA00000F0E2FD052000F0A1FCC12000F050FD95
:101CB000412000F081FD052000F098FC0322274917
:101CC000C52000F0D1FD052000F090FC3A2000F086
:101CD0003FFD662000F070FDB02000F039FD80204F
:101CE00000F06AFDB12000F033FDA02000F064FD9B
:101CF000B42000F02DFD022000F05EFD0222184904
:101D0000B62000F0B1FDE92000F022FD002000F037
:101D100053FD04221349F72000F0A6FD052000F032
:101D200065FC112000F014FD782000F05FFC2920F4
:101D300000F00EFD052000F059FC362000F008FDF3
:101D4000482000F039FD00BF80BD00BF100B00200F
:101D500014020308240203083402030838020308AB
:101D60003C0203084002030880B500AF112000F0D8
:101D7000EFFC012000F045FC00BF80BD80B500AF46
:101D8000102000F0E5FC002000F03BFC00BF80BD0F
:101D900080B400AF4FF4A0731846BD4680BC7047B6
:101DA00080B400AF4FF4F0731846BD4680BC704756
:101DB00080B582B000AF00237B600D4B1B78002BF9
:101DC00001D1FFF739FF391D00230322042000F061
:101DD000EBFD7B685B007B607B68064A934202D127
:101DE00049F2884300E0002318460837BD4680BD0D
:101DF000100B00205480660080B582B000AF03460F
:101E00000A46FB801346BB802A2000F0A1FCFB8819
:101E10001B0A9BB2DBB2184600F0CEFCFB88DBB29B
:101E2000184600F0C9FCFB881B0A9BB2DBB21846BF
:101E300000F0C2FCFB88DBB2184600F0BDFC2B2092
:101E400000F086FCBB881B0A9BB2DBB2184600F090
:101E5000B3FCBB88DBB2184600F0AEFCBB881B0AA3
:101E60009BB2DBB2184600F0A7FCBB88DBB2184679
:101E700000F0A2FC00BF0837BD4680BD80B582B02F
:101E800000AF0346FB80FB881B12DBB223F0070385
:101E9000DBB2184600F090FCFB88DB10DBB223F0CD
:101EA0000303DBB2184600F087FCFB88DBB2DB00E3
:101EB000DBB2184600F080FC00BF0837BD4680BD8D
:101EC00080B582B000AF0346FB800B46BB80134653
:101ED0007B802A2000F03CFCFB881B0A9BB2DBB213
:101EE000184600F069FCFB88DBB2184600F064FC81
:101EF000FB881B0A9BB2DBB2184600F05DFCFB8836
:101F0000DBB2184600F058FC2B2000F021FCBB8807
:101F10001B0A9BB2DBB2184600F04EFCBB88DBB25A
:101F2000184600F049FCBB881B0A9BB2DBB218467E
:101F300000F042FCBB88DBB2184600F03DFC2C20D0
:101F400000F006FC7B881846FFF798FF00BF0837B3
:101F5000BD4680BD80B584B000AF03460A46FB8015
:101F60001346BB802A2000F0F3FBFB881B0A9BB2C0
:101F7000DBB2184600F020FCFB88DBB2184600F00C
:101F80001BFCFB881B0A9BB2DBB2184600F014FC5A
:101F9000FB88DBB2184600F00FFC2B2000F0D8FBCA
:101FA000BB881B0A9BB2DBB2184600F005FCBB885D
:101FB000DBB2184600F000FCBB881B0A9BB2DBB208
:101FC000184600F0F9FBBB88DBB2184600F0F4FBC2
:101FD00007F10E01012301222E2000F0FFFCFB89F6
:101FE00018461037BD4680BD90B583B000AF04469B
:101FF000084611461A462346FB800346BB800B4623
:102000007B8013463B802A4ABB881380BA883B8872
:1020100013449BB2013B9AB2264B1A802A2000F04F
:1020200097FBFB881B0A9BB2DBB2184600F0C4FB8F
:10203000FB88DBB2184600F0BFFBFA887B881344AC
:10204000013B1B12DBB2184600F0B6FBFB88DAB28C
:102050007B88DBB21344DBB2013BDBB2184600F0F5
:10206000ABFB2B2000F074FBBB881B0A9BB2DBB2DE
:10207000184600F0A1FBBB88DBB2184600F09CFBC1
:10208000BA883B881344013B1B12DBB2184600F0B0
:1020900093FBBB88DAB23B88DBB21344DBB2013B73
:1020A000DBB2184600F088FB00BF0C37BD4690BD80
:1020B000120B0020140B002090B585B002AF04462F
:1020C000084611461A462346FB800346BB800B4652
:1020D0007B8013463B803A887988B888FB880093D8
:1020E000012300F020F800BF0C37BD4690BD90B52D
:1020F00085B002AF0446084611461A462346FB80C7
:102100000346BB800B467B8013463B803A88798828
:10211000B888FB8800931346012200F004F800BF42
:102120000C37BD4690BD90B585B000AF044608465B
:1021300011461A462346FB800346BB800B467B8034
:1021400013463B803B887A88B988F888FFF74CFFB4
:102150002C2000F0FDFA7B883A8802FB03F3FB6039
:1021600003E03B8C1846FFF789FEFB685A1EFA60B5
:10217000002BF6D100BF00BF1437BD4690BD80B51F
:1021800084B000AF03463A60FB800B46BB8000235F
:10219000BB600023FB603B6816331B781A463B6824
:1021A00017331B781B029BB213449AB2BB881344AB
:1021B0009BB2013BBB803B6802331B889BB2FB6038
:1021C0003B6804331B889BB21B041A46FB6813430D
:1021D000FB603B680A331B889BB2BB603B680C33D7
:1021E0001B889BB21B041A46BB681343BB60FA688A
:1021F000BB68D31A5B08FB603A68BB6813443B605A
:10220000362000F0A5FAC82000F0D6FA2B2000F006
:102210009FFA214B1B88C3F5EF7301331B12DBB20E
:10222000184600F0C9FA1C4B1B88DAB26FF0200385
:102230009B1ADBB2184600F0BFFA184B1B88C3F597
:10224000EF7301331B12DBB2184600F0B5FA134BE3
:102250001B88DAB26FF020039B1ADBB2184600F03D
:10226000ABFA2C2000F074FA07E03B681B88184694
:10227000FFF704FE3B6802333B60FB685A1EFA60BE
:10228000002BF2D1362000F063FA482000F094FAD7
:1022900000BF1037BD4680BD140B0020120B00207C
:1022A00090B585B000AF0446084611461A4623464D
:1022B000FB800346BB800B467B8013463B807B88BC
:1022C0003A8802FB03F3FB603B887A88B988F88878
:1022D000FFF78AFE2C2000F03BFA07E03B6A1B88E0
:1022E0001846FFF7CBFD3B6A02333B62FB685A1E80
:1022F000FA60002BF2D100BF00BF1437BD4690BD7D
:1023000090B585B000AF0446084611461A462346EC
:10231000FB800346BB800B467B8013463B8000233B
:10232000FB607B883A8802FB03F3FB603B887A887A
:10233000B988F888FFF758FE0123FA68396A2E2019
:1023400000F04CFB00BF1437BD4690BD80B582B095
:1023500000AF0346FB800B46BB8013467B80294BB6
:102360005B88BA889A4204D1264BDB887A889A42E5
:1023700013D0244ABB885380224A7B88D380BA88F2
:102380007B8813449BB2C3F5F0739AB21D4B9A80BD
:1023900003221D49332000F085FAB7F906305B426D
:1023A000184A928893FBF2F101FB02F29B1AFB8020
:1023B000B7F90630002B0ADA124B9A88FB881344CF
:1023C0009AB2104B5B8813449BB2FB8005E00D4B27
:1023D0005A88FB8813449BB2FB80B7F90630094A40
:1023E0001288934209D0FA88064B1A80054B1B8845
:1023F00001221946372000F013FA00BF0837BD4606
:1024000080BD00BF180B00201A0B002080B582B0E1
:1024100000AF0346FB71084AFB79D360022000F04D
:10242000D5F800BF054B1B68002BFBD100BF00BFD8
:102430000837BD4680BD00BF003001401C01264268
:1024400080B483B000AF00BF064B1B68002BFBD0ED
:10245000054BDB68FB71FB7918460C37BD4680BC29
:10246000704700BF000126420030014080B582B0B5
:1024700000AF0346FB710A4B00221A60094AFB7940
:10248000D360022000F0A2F800BF074B1B68002BAE
:10249000FBD1034B01221A6000BF0837BD4680BD47
:1024A0009C024142003001401C01264280B582B0AE
:1024B00000AF0346FB80084AFB88D360012000F090
:1024C00085F800BF054B1B68002BFBD100BF00BF88
:1024D0000837BD4680BD00BF003001401C012642C8
:1024E00080B483B000AF00BF064B1B68002BFBD04D
:1024F000054BDB68FB80FB8818460C37BD4680BC6B
:10250000704700BF000126420030014080B582B014
:1025100000AF0346FB800A4B00221A60094AFB8881
:10252000D360022000F052F800BF074B1B68002B5D
:10253000FBD1034B01221A6000BF0837BD4680BDA6
:102540009C024142003001401C01264280B584B00B
:1025500000AFF860B9607A600AE0FB681B78184643
:10256000FFF754FF7B68002B02D0FB680133FB6050
:10257000BB685A1EBA60002BEFD1034B01221A60D0
:1025800000BF1037BD4680BD9882404280B584B000
:1025900000AFF860B9607A600AE0FB681B881846F3
:1025A000FFF784FF7B68002B02D0FB680233FB60DF
:1025B000BB685A1EBA60002BEFD1034B01221A6090
:1025C00000BF1037BD4680BD9882404280B483B0C2
:1025D00000AF786000BF7B685A1E7A60002BFAD18A
:1025E00000BF00BF0C37BD4680BC704780B582B0CD
:1025F00000AF7860786803F06DF900BF0837BD461A
:1026000080BD80B483B000AF0346FB7100BF0C37C0
:10261000BD4680BC704780B500AF434B1B6B424A40
:1026200043F007031363414B1B6823F440233F4AE5
:1026300043F4802313603D4B9B683C4A23F44023C2
:1026400093603B4B01221A603A4B01221A603A4BCD
:1026500001221A60394B1B6823F44043374A43F484
:1026600080431360364B1B6823F44053344A43F4D1
:1026700080531360314B9B68304A43F4404393606E
:102680002F4B9B682E4A43F440539360274B9B6823
:10269000264A43F440639360244B9B68234A43F4E7
:1026A00040439360274B01221A60274B01221A6096
:1026B0001E4B1B6A23F470031C4A43F4A0031362ED
:1026C0001A4B1B6823F44063184A43F400631360F9
:1026D000164B1B6A23F07043144A43F0A043136265
:1026E000124B1B6823F44043104A43F40043136029
:1026F000164B40F207321A60144B1B68134A43F022
:10270000400313600A20FFF771FF094B00221A6093
:102710000A20FFF76BFF064B01221A600A20FFF721
:1027200065FF00BF80BD00BF0038024000000240CE
:10273000A40240429C02414298824042000802406A
:102740000004024094024042B00847420030014079
:1027500080B582B000AF0346FB71084B00221A60BF
:10276000074B00221A60FB791846FFF77FFE044BE7
:1027700001221A6000BF0837BD4680BD2C002642EA
:102780009882404280B582B000AF0346FB80084B80
:1027900001221A60074B00221A60FB881846FFF7D7
:1027A000B5FE044B01221A6000BF0837BD4680BD4C
:1027B0002C0026429882404280B582B000AF03468A
:1027C000FB71084B00221A60074B00221A60FB794C
:1027D0001846FFF71BFE044B01221A6000BF0837A2
:1027E000BD4680BD2C0026429882404280B582B012
:1027F00000AF0346FB80084B01221A60074B002202
:102800001A60FB881846FFF751FE044B01221A603C
:1028100000BF0837BD4680BD2C002642988240424A
:1028200080B582B000AF03463A60FB710B46BB80B7
:102830000B4B00221A600B4B00221A60FB791846E2
:10284000FFF714FE064B01221A603B1D0022396877
:102850001846FFF79BFE00BF0837BD4680BD00BF8E
:102860002C0026429882404280B584B000AF0346D7
:10287000B9607A60FB73094B00221A60084B002292
:102880001A60FB7B1846FFF7F1FD01227968B868F2
:10289000FFF75CFE00BF1037BD4680BD2C0026420E
:1028A0009882404280B584B000AF0346B9607A6038
:1028B000FB730B4B00221A600A4B00221A60FB7B51
:1028C0001846FFF7D3FD064B01221A6001227968F2
:1028D000B868FFF75BFE00BF1037BD4680BD00BF84
:1028E0002C0026429882404280B582B000AF034659
:1028F0003A60FB800B46BB80094B01221A60094BF2
:1029000000221A60FB881846FFF700FE3B1D0022DC
:1029100039681846FFF73AFE00BF0837BD4680BD4C
:102920002C0026429882404280B584B000AF034616
:10293000B9607A60FB810B4B01221A600A4B0022BE
:102940001A60FB891846FFF7E1FD064B00221A606A
:1029500001227968B868FFF7F9FD00BF1037BD465E
:1029600080BD00BF2C0026429882404280B584B0D2
:1029700000AF0346B9607A60FB81094B01221A60FF
:10298000084B00221A60FB891846FFF7BFFD0122A1
:102990007968B868FFF7FAFD00BF1037BD4680BD03
:1029A0002C0026429882404280B485B000AFB960C6
:1029B0007A603B600346FB7300BF1437BD4680BCA2
:1029C000704780B485B000AFB9607A603B60034661
:1029D000FB7300BF1437BD4680BC704780B485B020
:1029E00000AFB9607A603B600346FB7300BF1437E9
:1029F000BD4680BC704780B485B000AFB9607A60D6
:102A00003B600346FB8100BF1437BD4680BC704766
:102A100080B485B000AFB9607A603B600346FB814B
:102A200000BF1437BD4680BC704780B485B000AF8E
:102A3000B9607A603B600346FB8100BF1437BD4636
:102A400080BC704780B483B000AF0346FB800B4668
:102A5000BB8013467B80B7F90620B7F904309A4251
:102A600002DAB7F904300AE0B7F90620B7F9023004
:102A70009A4202DDB7F9023001E0B7F90630184694
:102A80000C37BD4680BC704780B483B000AF0346AE
:102A9000FB80B7F90630002B03DAFB885B429BB260
:102AA00000E0FB8818460C37BD4680BC704790B5E7
:102AB00083B000AF0446084611461A462346FB8001
:102AC0000346BB800B467B8013463B80B7F904303E
:102AD000002B38DBFDF734FE03461BB2B7F90420A8
:102AE0009A4230DAB7F90230002B2CDDB7F9063004
:102AF000002B06DA7A88FB8813449BB27B80002384
:102B0000FB80B7F90620B7F90230D418FDF70CFEA8
:102B100003461BB29C4207DDFDF706FE03461A463C
:102B2000FB88D31A9BB27B80B7F90230002B0CDDF7
:102B30003B881846FDF728FEF888B9887A88012373
:102B4000FEF732FB02E000BF00E000BF0C37BD46DD
:102B500090BD90B583B000AF0446084611461A46B2
:102B60002346FB800346BB800B467B8013463B809D
:102B7000B7F90630002B38DBFDF7D6FD03461BB254
:102B8000B7F906209A4230DAB7F90230002B2CDD73
:102B9000B7F90430002B06DA7A88BB8813449BB25D
:102BA0007B800023BB80B7F90420B7F90230D4182A
:102BB000FDF7C6FD03461BB29C4207DDFDF7C0FDD5
:102BC00003461A46BB88D31A9BB27B80B7F9023002
:102BD000002B0CDD3B881846FDF7D6FDF888B98838
:102BE0007B880122FEF7E0FA02E000BF00E000BFB0
:102BF0000C37BD4690BD90B583B000AF0446084683
:102C000011461A462346FB800346BB800B467B8059
:102C100013463B80B7F90230002B62DDB7F9003074
:102C2000002B5EDDB7F90630002B06DA7A88FB88C8
:102C300013449BB27B800023FB80B7F90430002B48
:102C400006DA3A88BB8813449BB23B800023BB80E2
:102C5000FDF76AFD03461BB2B7F906209A4242DA35
:102C6000FDF76EFD03461BB2B7F904209A423ADA2B
:102C7000B7F90620B7F90230D418FDF755FD034621
:102C80001BB29C4207DDFDF74FFD03461A46FB8849
:102C9000D31A9BB27B80B7F90420B7F90030D4185F
:102CA000FDF74EFD03461BB29C4207DDFDF748FDD4
:102CB00003461A46BB88D31A9BB23B80B7F9023051
:102CC000002B12DDB7F90030002B0EDD3B8B1846D0
:102CD000FDF75AFDF888B9887A883B88FEF764FAD0
:102CE00004E000BF02E000BF00E000BF0C37BD46BB
:102CF00090BD80B582B000AF0346FB800B46BB8021
:102D000013467B80B7F90630002B1ADBFDF70CFD6C
:102D100003461BB2B7F906209A4212DAB7F904301B
:102D2000002B10DBFDF70CFD03461BB2B7F90420A6
:102D30009A4208DAFB88B9887A881846FDF779FE46
:102D400002E000BF00E000BF0837BD4680BD90B57F
:102D500085B002AF0346FB80FDF7E6FC0346023B6D
:102D60009CB2FDF7EDFC0346023B9AB2FB88009350
:102D7000134622460121012000F004F800BF0C3761
:102D8000BD4690BD90B585B000AF044608461146DB
:102D90001A462346FB800346BB800B467B801346C6
:102DA0003B807B88FB813B88BB813B8CB7F90E2045
:102DB000B7F90410B7F90600FFF779FEBA88BB89A6
:102DC00013449BB2013B9BB219B23B8CB7F90E2066
:102DD000B7F90600FFF76BFE3B8CB7F90C20B7F98B
:102DE0000410B7F90600FFF7B4FEFA88FB89134414
:102DF0009BB2013B9BB218B23B8CB7F90C20B7F9E0
:102E00000410FFF7A6FE00BF1437BD4690BD90B575
:102E10008DB002AF0446084611461A462346FB8091
:102E20000346BB800B467B8013463B807A88FB8839
:102E3000D31A9BB2BB833A88BB88D31A9BB27B83DD
:102E4000B7F91C301846FFF71FFE03463B83B7F95E
:102E50001A301846FFF718FE0346FB823B8FBB82F1
:102E6000BB8F7B82B7F91C30002B2DD0B7F91C30FB
:102E7000002B08DCFA88BB8A13449AB23B8BD31A26
:102E80009BB2FB8401E0FB88FB84B7F91A30002B6E
:102E900005DABA887B8B13449BB2BB8401E0BB8804
:102EA000BB847A8AFB8A13449BB23B82B7F91040F9
:102EB000B7F91820B7F92410B7F92600B7F844304D
:102EC00000932346FFF797FEB7F91A30002B32D054
:102ED000B7F91C30002B0ADBFA883B8B13449BB2FA
:102EE0007B84BA8A3B8BD31A9BB23B8406E0FB8877
:102EF0007B84BA8A3B8BD31A9BB23B84B7F91A30D6
:102F0000002B08DCBA887B8A13449AB2FB8AD31A56
:102F10009BB2FB8301E0BB88FB83B7F91640B7F98E
:102F20002020B7F91E10B7F92200B7F844300093FB
:102F30002346FFF760FEFDF7F7FB03461A46BB8A00
:102F4000D31A9BB2013B9BB21AB2B7F902300121EE
:102F50001846FFF777FD0346FB81FDF7F1FB0346BB
:102F60001A467B8AD31A9BB2013B9BB21AB2B7F9BD
:102F7000003001211846FFF765FD0346BB81BC8F79
:102F80003A8FB7F90C10B7F90E00B7F8403000933C
:102F90002346FFF7F7FE00BF2C37BD4690BD90B526
:102FA00085B002AF0446084611461A462346FB8008
:102FB0000346BB800B467B8013463B807A883B8B65
:102FC0009A4203D13A88BB8B9A424DD0FA887B88CB
:102FD00013449BB2013B9BB218B2B7F90020BB8CE3
:102FE000B7F90410FFF7B5FDBA883B8813449BB2CC
:102FF000013B9BB219B2B7F90220BB8CB7F90600AE
:10300000FFF755FD7A883B8B9A420ED9FA883B8BA5
:1030100013449BB218B27A883B8BD31A9BB21AB274
:10302000BB8CB7F90410FFF742FD3A88BB8B9A427C
:103030000ED9BA88BB8B13449BB219B23A88BB8BAA
:10304000D31A9BB21AB2BB8CB7F90600FFF781FD09
:10305000BC8B3A8BB7F90410B7F906003B8C009390
:103060002346FFF78FFE00E000BF0C37BD4690BD42
:1030700090B589B002AF0446084611461A46234669
:10308000FB800346BB800B467B8013463B807B88DE
:10309000FB823B88BB823B8D7B82BB8D3B82B7F939
:1030A0001220B7F916309A4212DAFA887B8A134452
:1030B0009BB218B2FA8A7B8AD31A9BB21AB2B7F9BA
:1030C0001440B7F90410BB8E00932346FFF793FD1D
:1030D000B7F91020B7F914309A4212DABA883B8A4D
:1030E00013449BB219B2BA8A3B8AD31A9BB21CB260
:1030F000B7F91220B7F90600BB8E00932346FFF7FD
:103100007AFDFDF711FB03461A467B8AD31A9BB260
:10311000013B9BB21AB2B7F9063001211846FFF7FE
:1031200091FC0346FB81FDF70BFB03461A463B8AE5
:10313000D31A9BB2013B9BB21AB2B7F904300121FA
:103140001846FFF77FFC0346BB81BC8D3A8DB7F96B
:103150000C10B7F90E003B8E00932346FFF712FECA
:1031600000BF1C37BD4690BD90B585B000AF04468A
:10317000084611461A462346FB800346BB800B4691
:103180007B8013463B80FA887B8813449BB2013BCB
:103190009BB2FB81BA883B8813449BB2013B9BB234
:1031A000BB81B7F90430012B0EDCB7F90C30002BD2
:1031B0000ADDFDF7B9FA0346023B9BB21AB23B8C1B
:1031C00001210120FFF773FCFDF7BAFA0346023B29
:1031D0009BB27B81B7F90420B7F90A309A4211DC1F
:1031E000B7F90C20B7F90A309A420BDBFDF79CFACD
:1031F0000346023B9BB21AB23B8CB7F90A1001207E
:10320000FFF755FCB7F90630012B0EDCB7F90E308D
:10321000002B0ADDFDF794FA0346023B9BB21AB27B
:103220003B8C01210120FFF794FCFDF77DFA03465A
:10323000023B9BB23B81B7F90620B7F908309A42AE
:1032400011DCB7F90E20B7F908309A420BDBFDF715
:1032500077FA0346023B9BB21AB23B8CB7F90800DF
:103260000121FFF776FC00BF1437BD4690BD90B535
:1032700087B000AF0446084611461A462346FB8035
:103280000346BB800B467B8013463B807A88FB88D5
:10329000D31A9BB21BB21846FFF7F6FB03463B82DC
:1032A0003A88BB88D31A9BB21BB21846FFF7ECFBD7
:1032B0000346FB81B7F90620B7F902309A4202DAD9
:1032C0000123FB8202E04FF6FF73FB82B7F9042073
:1032D000B7F900309A4202DA0123BB8202E04FF6CE
:1032E000FF73BB823A8AFB89D31A9BB27B823A8DE9
:1032F000B7F90410B7F906301846FFF7FAFCB7F92A
:103300000620B7F902309A4205D1B7F90420B7F97F
:1033100000309A4225D07B8A5B009BB2BB81B7F913
:103320000C20B7F90E305B429A4209DD7A8AFB899C
:10333000D31A9BB27B82FA88FB8A13449BB2FB8030
:10334000B7F90C20B7F910309A42D0DA7A8A3B8A62
:1033500013449BB27B82BA88BB8A13449BB2BB8066
:10336000C5E700BF00BF1C37BD4690BD90B585B016
:1033700002AF0446084611461A462346FB80034620
:10338000BB800B467B8013463B80B7F90040B7F902
:103390000220B7F90410B7F906003B8B00932346CF
:1033A000FFF765FF00BF0C37BD4690BD90B585B0F7
:1033B00002AF0446084611461A462346FB800346E0
:1033C000BB800B467B8013463B80B7F90040B7F9C2
:1033D0000220B7F90410B7F906003B8B009323468F
:1033E000FFF745FF00BF0C37BD4690BD90B58BB0D1
:1033F00004AFF860084611461A4603467B810B4627
:103400003B811346FB80FB68002B5FD0FB681B7E73
:1034100083F00103DBB2002B58D1FB681B689AB222
:103420007B8913449BB21CB2FDF77EF903461A4612
:10343000FB88D31A9BB2013B9BB21BB21A460121F7
:103440002046FFF7FFFA0346FB82FB685B689AB2EF
:103450003B8913449BB21CB2FDF772F903461A462E
:103460003B8DD31A9BB2013B9BB21BB21A46012182
:103470002046FFF7E7FA0346BB82FB681B6818B2D9
:10348000FB685B6819B2B7F91440B7F916203B8E98
:103490000393BB8D02933B8D0193FB8800932346DE
:1034A000FFF7B5FC3C8DFA88B7F91410B7F9160090
:1034B000BB8D00932346FFF757FEB7F91620FB6834
:1034C0001A60B7F91420FB685A6000E000BF1C378F
:1034D000BD4690BD80B487B000AFF860B9601146BA
:1034E0001A460B46FB801346BB80FB68002B2CD092
:1034F000BB68002B29D0BB681B68FB82BB685B687C
:10350000BB82B7F91620FB681A60B7F91420FB6874
:103510005A60B7F916305A1DFB681A61B7F91430B2
:103520001A1FFB685A61FB681B69DA1EB7F906307F
:103530001A44FB689A60FB685B69A3F10A02B7F959
:1035400004301A44FB68DA6000E000BF1C37BD4657
:1035500080BC704780B584B002AF78600B467B803A
:103560007B68002B25D07B681B6818B27B685B6882
:1035700019B27B88009312230E22FFF703FC7B68AD
:103580001B699BB202339BB218B27B685B6919B2AC
:103590007B880422FFF7DDFA7B689B6818B27B68A2
:1035A000DB6819B27B8800930A230A22FFF7EAFB43
:1035B00000E000BF0837BD4680BD80B584B002AFD3
:1035C00078600B467B807B68002B36D07B689B68DD
:1035D0009BB2013B9BB218B27B68DB689BB2013B9C
:1035E0009BB219B27B8800930C230C22FFF703FBDC
:1035F0007B681B699BB2013B9BB218B27B685B691D
:103600009BB2013B9BB219B27B8800930623062232
:10361000FFF7F1FA7B681B689BB2013B9BB218B2C3
:103620007B685B689BB2013B9BB219B27B880093BD
:1036300014231022FFF7DFFA00E000BF0837BD4671
:1036400080BD90B585B002AF78600B467B807B680B
:10365000002B2ED07B681B7E83F00103DBB2002B96
:1036600027D17B685B69002B23DD7B681B689AB2DE
:103670007B685B69D90F0B445B109BB2D31A9BB27A
:1036800018B27B685B689AB27B685B69D90F0B44A0
:103690005B109BB2D31A9BB219B27B685B699AB27A
:1036A0007B685B699CB27B8800932346FFF76AFBCB
:1036B00000E000BF0C37BD4690BD90B585B002AFAD
:1036C00078600B467B807B68002B2ED07B681B7E4E
:1036D00083F00103DBB2002B27D17B685B69002BF1
:1036E00023DD7B681B689AB27B685B69D90F0B444A
:1036F0005B109BB2D31A9BB218B27B685B689AB21C
:103700007B685B69D90F0B445B109BB2D31A9BB2E9
:1037100019B27B685B691AB27B685B691CB27B88F3
:1037200000932346FFF767FA00E000BF0C37BD4661
:1037300090BD000080B584B000AF78600023FB73BB
:103740007B68002B01D1012333E07B681B6C002BCD
:1037500009D1786800F063F87B6800225A647B68BE
:10376000002283F83C207B681B6C03F01003002BC5
:1037700018D17B681B6C23F4885323F0020343F0B9
:1037800002027B681A64786800F0D1FF7B6800222F
:103790005A647B681B6C23F0030343F001027B68CF
:1037A0001A6401E00123FB737B68002283F83C204C
:1037B000FB7B18461037BD4680BD80B584B000AF96
:1037C00078600023FB737B68002B01D1012322E08A
:1037D0007B681B6C43F002027B681A647B681B6881
:1037E0009A687B681B6822F001029A607B681B68FC
:1037F0009B6803F00103002B08D1786800F018F8EB
:103800007B6800225A647B6800221A647B6800226D
:1038100083F83C20FB7B18461037BD4680BD80B442
:1038200083B000AF786000BF0C37BD4680BC7047E6
:1038300080B483B000AF786000BF0C37BD4680BC59
:10384000704780B485B000AF78600023BB607B68B0
:1038500093F83C30012B01D10223B2E07B680122B6
:1038600083F83C207B681B689B6803F00103012BF5
:1038700018D07B681B689A687B681B6842F001025D
:103880009A60524B1B68524AA2FB03239A0C1346C0
:103890005B001344BB6002E0BB68013BBB60BB68DC
:1038A000002BF9D17B681B689B6803F00103012B97
:1038B0007AD17B681B6C23F4E06323F0010343F4AB
:1038C00080727B681A647B681B685B6803F48063A2
:1038D000002B07D07B681B6C23F4405343F48052C9
:1038E0007B681A647B681B6C03F48053B3F5805FBC
:1038F00006D17B685B6C23F006027B685A6402E0A9
:103900007B6800225A647B68002283F83C20314B9C
:10391000FB607B681B686FF022021A60FB685B68C3
:1039200003F01F03002B2AD17B681B682A4A9342AD
:1039300015D07B681B68294A934205D1254B5B68EB
:1039400003F01F03002B0AD07B681B68244A9342B4
:1039500036D1204B5B6803F01003002B30D17B681D
:103960001B689B6803F04053002B29D17B681B68C0
:103970009A687B681B6842F080429A6020E07B680E
:103980001B68154A93421BD17B681B689B6803F038
:103990004053002B14D17B681B689A687B681B68B6
:1039A00042F080429A600BE07B681B6C43F010028F
:1039B0007B681A647B685B6C43F001027B685A6425
:1039C000002318461437BD4680BC70476C000020A9
:1039D00083DE1B4300230140002001400021014001
:1039E0000022014080B483B000AF78607B6893F818
:1039F0003C30012B01D1022321E07B68012283F8B6
:103A00003C207B681B689A687B681B6822F0010277
:103A10009A607B681B689B6803F00103002B09D147
:103A20007B681B6C23F4885323F0010343F00102ED
:103A30007B681A647B68002283F83C2000231846C8
:103A40000C37BD4680BC704780B584B000AF78604D
:103A500039600023FB607B681B689B6803F480630C
:103A6000B3F5806F13D17B681B689B6803F4807388
:103A7000B3F5807F0BD17B681B6C43F020027B6821
:103A80001A647B68002283F83C20012363E001F084
:103A9000DBFEF86021E03B68B3F1FF3F1DD03B68DF
:103AA000002B07D001F0D0FE0246FB68D31A3A681B
:103AB0009A4212D27B681B681B6803F00203022B38
:103AC0000BD07B681B6C43F004027B681A647B6834
:103AD000002283F83C2003233DE07B681B681B68C1
:103AE00003F00203022BD6D17B681B686FF0120231
:103AF0001A607B681B6C43F400727B681A647B68F5
:103B00001B689B6803F04053002B23D17B681B7E0E
:103B1000002B1FD17B681B68DB6A03F47003002B4A
:103B200006D07B681B689B6803F48063002B11D16F
:103B30007B681B6C23F480727B681A647B681B6C47
:103B400003F48053002B05D17B681B6C43F001020A
:103B50007B681A64002318461037BD4680BD80B5C7
:103B600086B000AFF860B9607A6000237B6101F035
:103B70006BFE786122E07B68B3F1FF3F1ED07B686B
:103B8000002B07D001F060FE02467B69D31A7A68E9
:103B90009A4213D2FB681B681A68BB681340BA6864
:103BA0009A420BD0FB681B6C43F00402FB681A645A
:103BB000FB68002283F83C20032328E0FB681B6895
:103BC0001A68BB681340BA689A42D4D1BB68012B0B
:103BD0000BD1FB681B6C43F48032FB681A64FB68F2
:103BE0001B686FF001021A6010E0FB681B6C43F465
:103BF0008062FB681A64FB685B6C43F00202FB683E
:103C00005A64FB681B686FF020021A600023184694
:103C10001837BD4680BD80B485B000AF7860002302
:103C2000BB607B6893F83C30012B01D10223BDE0DF
:103C30007B68012283F83C207B681B689B6803F04B
:103C40000103012B18D07B681B689A687B681B688E
:103C500042F001029A60584B1B68584AA2FB0323AA
:103C60009A0C13465B001344BB6002E0BB68013B47
:103C7000BB60BB68002BF9D17B681B689B6803F0B5
:103C80000103012B40F085807B681B6C23F4E0630B
:103C900023F0010343F480727B681A647B681B681D
:103CA0005B6803F48063002B07D07B681B6C23F4F4
:103CB000405343F480527B681A647B681B6C03F4A6
:103CC0008053B3F5805F06D17B685B6C23F00602FE
:103CD0007B685A6402E07B6800225A647B68002299
:103CE00083F83C20364BFB607B681B686FF0220238
:103CF0001A607B681B685B687A68126843F08063AF
:103D000043F020035360FB685B6803F01F03002B44
:103D10002AD17B681B682B4A934215D07B681B68AD
:103D2000294A934205D1264B5B6803F01F03002B01
:103D30000AD07B681B68254A934236D1204B5B68CA
:103D400003F01003002B30D17B681B689B6803F0E5
:103D50004053002B29D17B681B689A687B681B68DD
:103D600042F080429A6020E07B681B68154A9342CB
:103D70001BD17B681B689B6803F04053002B14D158
:103D80007B681B689A687B681B6842F080429A6077
:103D90000BE07B681B6C43F010027B681A647B6845
:103DA0005B6C43F001027B685A64002318461437A9
:103DB000BD4680BC704700BF6C00002083DE1B4303
:103DC0000023014000200140002101400022014069
:103DD00080B483B000AF78607B6893F83C30012BEF
:103DE00001D102232BE07B68012283F83C207B6811
:103DF0001B689A687B681B6822F001029A607B68E6
:103E00001B689B6803F00103002B13D17B681B68C0
:103E10005B687A68126823F0806323F020035360A4
:103E20007B681B6C23F4885323F0010343F00102E9
:103E30007B681A647B68002283F83C2000231846C4
:103E40000C37BD4680BC704780B584B000AF786049
:103E50000023FB600023BB607B681B681B6803F0CA
:103E60000203C3F34003DBB2FB607B681B685B6843
:103E700003F02003C3F34013DBB2BB60FB68002BED
:103E800049D0BB68002B46D07B681B6C03F0100345
:103E9000002B05D17B681B6C43F400727B681A64AD
:103EA0007B681B689B6803F04053002B2BD17B6819
:103EB0001B7E002B27D17B681B68DB6A03F4700331
:103EC000002B06D07B681B689B6803F48063002B83
:103ED00019D17B681B685A687B681B6822F0200236
:103EE0005A607B681B6C23F480727B681A647B6861
:103EF0001B6C03F48053002B05D17B681B6C43F0D3
:103F000001027B681A64786800F044FA7B681B68D9
:103F10006FF012021A607B681B681B6803F00403D1
:103F2000C3F38003DBB2FB607B681B685B6803F054
:103F30008003C3F3C013DBB2BB60FB68002B57D018
:103F4000BB68002B54D07B681B6C03F01003002B64
:103F500005D17B681B6C43F400527B681A647B6854
:103F60001B689B6803F44013002B39D17B681B68E6
:103F70009B6B03F44013002B06D07B681B689B6887
:103F800003F48063002B2BD17B681B685B6803F410
:103F90008063002B24D17B681B689B6803F040532F
:103FA000002B1DD17B681B7E002B19D17B681B6801
:103FB0005A687B681B6822F080025A607B681B6C21
:103FC00023F480527B681A647B681B6C03F4807353
:103FD000002B05D17B681B6C43F001027B681A64DF
:103FE000786801F035F97B681B686FF00C021A6085
:103FF0007B681B681B6803F00103C3F30003DBB29B
:10400000FB607B681B685B6803F04003C3F38013AD
:10401000DBB2BB60FB68002B17D0BB68002B14D051
:104020007B681B681B6803F00103012B0DD17B68C3
:104030001B6C43F480327B681A64786800F0BCF92A
:104040007B681B686FF001021A607B681B681B6845
:1040500003F02003C3F34013DBB2FB607B681B68F3
:104060005B6803F08063C3F38063DBB2BB60FB6813
:10407000002B15D0BB68002B12D07B685B6C43F023
:1040800002027B685A647B681B686FF020021A602A
:10409000786800F09AF97B681B686FF020021A605C
:1040A00000BF1037BD4680BD80B586B000AFF86058
:1040B000B9607A6000233B61FB6893F83C30012BC8
:1040C00001D10223E9E0FB68012283F83C20FB6870
:1040D0001B689B6803F00103012B18D0FB681B6869
:1040E0009A68FB681B6842F001029A606D4B1B687E
:1040F0006D4AA2FB03239A0C13465B0013443B61F9
:1041000002E03B69013B3B613B69002BF9D1FB6855
:104110001B689B6803F48073B3F5807F07D1FB684D
:104120001B689A68FB681B6822F480729A60FB68BF
:104130001B689B6803F00103012B40F0A180FB6822
:104140001B6C23F4E06323F0010343F48072FB68EB
:104150001A64FB681B685B6803F48063002B07D05C
:10416000FB681B6C23F4405343F48052FB681A64D1
:10417000FB681B6C03F48053B3F5805F06D1FB68CA
:104180005B6C23F00602FB685A6402E0FB680022C5
:104190005A64FB68002283F83C20444B7B61FB6837
:1041A0009B6B434ADA63FB689B6B424A1A64FB6869
:1041B0009B6B414ADA64FB681B686FF022021A604D
:1041C000FB681B685A68FB681B6842F080625A6093
:1041D000FB681B689A68FB681B6842F480729A60EF
:1041E000FB68986BFB681B684C331946BA687B68A0
:1041F00002F087FD7B695B6803F01F03002B2AD167
:10420000FB681B682D4A934215D0FB681B682C4A3B
:10421000934205D1254B5B6803F01F03002B0AD0A6
:10422000FB681B68274A934236D1204B5B6803F03A
:104230001003002B30D1FB681B689B6803F04053D0
:10424000002B29D1FB681B689A68FB681B6842F049
:1042500080429A6020E0FB681B68184A93421BD199
:10426000FB681B689B6803F04053002B14D1FB686C
:104270001B689A68FB681B6842F080429A600BE0FA
:10428000FB681B6C43F01002FB681A64FB685B6CF4
:1042900043F00102FB685A64002318461837BD46F4
:1042A00080BD00BF6C00002083DE1B430023014063
:1042B00025490008DF490008FB49000800200140AB
:1042C000002101400022014080B584B000AF786039
:1042D0000023FB737B6893F83C30012B01D1022350
:1042E00048E07B68012283F83C207B681B689A6861
:1042F0007B681B6822F001029A607B681B689B68E0
:1043000003F00103002B30D17B681B689A687B683F
:104310001B6822F480729A607B689B6B93F835303F
:10432000DBB2022B0FD17B689B6B184602F041FD7C
:104330000346FB73FB7B002B05D07B681B6C43F0B3
:1043400040027B681A647B681B685A687B681B683C
:1043500022F080625A607B681B6C23F4885323F040
:10436000010343F001027B681A647B68002283F832
:104370003C20FB7B18461037BD4680BD80B483B01F
:1043800000AF78607B681B68DB6C18460C37BD4655
:1043900080BC704780B483B000AF786000BF0C373A
:1043A000BD4680BC704780B483B000AF786000BF6A
:1043B0000C37BD4680BC704780B483B000AF7860D6
:1043C00000BF0C37BD4680BC704780B483B000AFDF
:1043D000786000BF0C37BD4680BC704780B485B0A4
:1043E00000AF786039600023BB607B6893F83C3095
:1043F000012B01D1022316E17B68012283F83C20C6
:104400003B681B68092B26D97B681B68D9683B6809
:104410001B689BB2A3F10A0213465B0013440722F8
:1044200002FA03F3DA437B681B680A40DA607B68B0
:104430001B68D9683B6898683B681B689BB2A3F10E
:104440000A0213465B00134400FA03F27B681B6800
:104450000A43DA6022E07B681B6819693B681B68C5
:104460009BB21A4613465B001344072202FA03F379
:10447000DA437B681B680A401A617B681B6819690C
:104480003B689A683B681B689BB2184603465B0012
:1044900003449A407B681B680A431A613B685B6867
:1044A000062B24D87B681B68596B3B685B685A1ED7
:1044B00013469B0013441F2202FA03F3DA437B687E
:1044C0001B680A405A637B681B68596B3B681B6812
:1044D0009BB218463B685B685A1E13469B00134408
:1044E00000FA03F27B681B680A435A634EE03B689C
:1044F0005B680C2B24D87B681B68196B3B685B6876
:10450000DA1F13469B0013441F2202FA03F3DA4317
:104510007B681B680A401A637B681B68196B3B68E1
:104520001B689BB218463B685B68DA1F13469B000A
:10453000134400FA03F27B681B680A431A6325E000
:104540007B681B68D96A3B685B68A3F10D02134660
:104550009B0013441F2202FA03F3DA437B681B68B3
:104560000A40DA627B681B68D96A3B681B689BB2A9
:1045700018463B685B68A3F10D0213469B00134489
:1045800000FA03F27B681B680A43DA62284BFB607F
:104590007B681B68274A93420FD13B681B68122B2C
:1045A0000BD1FB685B6823F40002FB685A60FB6870
:1045B0005B6843F48002FB685A607B681B681D4A95
:1045C00093422BD13B681B681B4A934203D03B6844
:1045D0001B68112B22D1FB685B6823F48002FB6807
:1045E0005A60FB685B6843F40002FB685A603B68F2
:1045F0001B68114A934211D1104B1B68104AA2FB51
:1046000003239A0C13469B0013445B00BB6002E03B
:10461000BB68013BBB60BB68002BF9D17B68002203
:1046200083F83C20002318461437BD4680BC7047F1
:104630000023014000200140120000106C00002007
:1046400083DE1B4380B483B000AF786039607B6841
:1046500093F83C30012B01D102234DE07B6801220D
:1046600083F83C203B681B7C012B08D17B681B68CE
:104670005A687B681B6842F040025A6007E07B681A
:104680001B685A687B681B6822F040025A607B688E
:104690001B685B687A68126823F4400323F4007394
:1046A00053607B681B6859683B681A687B681B68A5
:1046B0000A435A607B681B683A6852685A627B6892
:1046C0001B683A6892689A627B681B685A687B68C4
:1046D0001B6822F01F025A607B681B685A683B689F
:1046E000DB689BB219467B681B680A435A607B688B
:1046F000002283F83C20002318460C37BD4680BCBE
:10470000704780B483B000AF78607B681B6C18463C
:104710000C37BD4680BC704780B483B000AF786072
:104720007B685B6C18460C37BD4680BC704780B414
:1047300085B000AF7860794BFB60FB685B6823F461
:104740004032FB685A60FB685A687B685B681A43B2
:10475000FB685A607B681B685A687B681B6822F498
:1047600080725A607B681B6859687B681B691A02F3
:104770007B681B680A435A607B681B685A687B68C1
:104780001B6822F040725A607B681B6859687B681E
:104790009A687B681B680A435A607B681B689A6842
:1047A0007B681B6822F400629A607B681B689968CA
:1047B0007B68DA687B681B680A439A607B689B6A3F
:1047C000574A934222D07B681B689A687B681B68B3
:1047D00022F070629A607B681B6899687B689A6AAD
:1047E0007B681B680A439A607B681B689A687B68D1
:1047F0001B6822F040529A607B681B6899687B684E
:10480000DA6A7B681B680A439A600FE07B681B6862
:104810009A687B681B6822F070629A607B681B68EC
:104820009A687B681B6822F040529A607B681B681C
:104830009A687B681B6822F002029A607B681B689A
:1048400099687B681B7E5A007B681B680A439A60E4
:104850007B6893F82030002B1BD07B681B685A685C
:104860007B681B6842F400625A607B681B685A6868
:104870007B681B6822F460425A607B681B68596839
:104880007B685B6A013B5A037B681B680A435A607A
:1048900007E07B681B685A687B681B6822F400622B
:1048A0005A607B681B68DA6A7B681B6822F47002B6
:1048B000DA627B681B68D96A7B68DB69013B1A0591
:1048C0007B681B680A43DA627B681B689A687B68AE
:1048D0001B6822F400729A607B681B6899687B6889
:1048E00093F830305A027B681B680A439A607B68F1
:1048F0001B689A687B681B6822F480629A607B68F8
:104900001B6899687B685B699A027B681B680A432D
:104910009A6000BF1437BD4680BC70470023014039
:104920000100000F80B584B000AF78607B689B6B9E
:10493000FB60FB681B6C03F05003002B3CD1FB6851
:104940001B6C43F40072FB681A64FB681B689B686D
:1049500003F04053002B2BD1FB681B7E002B27D18B
:10496000FB681B68DB6A03F47003002B06D0FB684E
:104970001B689B6803F48063002B19D1FB681B68DC
:104980005A68FB681B6822F020025A60FB681B6CA7
:1049900023F48072FB681A64FB681B6C03F4805379
:1049A000002B05D1FB681B6C43F00102FB681A6405
:1049B000F868FFF7EFFC0EE0FB681B6C03F01003D8
:1049C000002B03D0F868FFF700FD04E0FB689B6B49
:1049D000DB6C7868984700BF1037BD4680BD80B556
:1049E00084B000AF78607B689B6BFB60F868FFF772
:1049F000DAFC00BF1037BD4680BD80B584B000AF83
:104A000078607B689B6BFB60FB6840221A64FB68E4
:104A10005B6C43F00402FB685A64F868FFF7D5FC4E
:104A200000BF1037BD4680BD80B487B000AF78604E
:104A30000023BB6000237B6100233B617B6893F80C
:104A40003C30012B01D10223AAE07B68012283F8CC
:104A50003C207B681B689B6803F00103012B18D086
:104A60007B681B689A687B681B6842F001029A6049
:104A70004E4B1B684E4AA2FB03239A0C13465B0065
:104A80001344BB6002E0BB68013BBB60BB68002B0A
:104A9000F9D17B681B689B6803F00103012B72D17D
:104AA0007B681B6C23F4405323F0010343F48052D2
:104AB0007B681A647B681B6C03F48073002B02D143
:104AC0007B6800225A647B68002283F83C207B6864
:104AD0001B686FF004021A60364BFB60FB685B6872
:104AE00003F01F03002B24D17B681B689B6803F431
:104AF0004013002B0CBF01230023DBB27B617B68DA
:104B00001B685B6803F48063C3F3802383F00103B5
:104B1000DBB23B617B69002B41D03B69002B3ED06F
:104B20007B681B689A687B681B6842F480029A6005
:104B300035E07B681B689B6803F44013002B0CBFB7
:104B400001230023DBB27B617B681B685B6803F495
:104B50008063C3F3802383F00103DBB23B617B6896
:104B60001B68154A93421AD17B69002B17D03B6909
:104B7000002B14D07B681B689A687B681B6842F422
:104B800080029A600BE07B681B6C43F010027B682C
:104B90001A647B685B6C43F001027B685A640023F3
:104BA00018461C37BD4680BC704700BF6C00002013
:104BB00083DE1B43002301400020014080B487B006
:104BC00000AF78600023BB6000237B6100233B6162
:104BD0007B6893F83C30012B01D10223B2E07B6863
:104BE000012283F83C207B681B689B6803F001036B
:104BF000012B18D07B681B689A687B681B6842F0A1
:104C000001029A60524B1B68524AA2FB03239A0C82
:104C100013465B001344BB6002E0BB68013BBB6012
:104C2000BB68002BF9D17B681B689B6803F001030C
:104C3000012B7AD17B681B6C23F4405323F00103D2
:104C400043F480527B681A647B681B6C03F48073A6
:104C5000002B02D17B6800225A647B68002283F813
:104C60003C207B681B686FF004021A607B681B683D
:104C70005A687B681B6842F080025A60364BFB60C2
:104C8000FB685B6803F01F03002B24D17B681B6863
:104C90009B6803F44013002B0CBF01230023DBB2FD
:104CA0007B617B681B685B6803F48063C3F38023CC
:104CB00083F00103DBB23B617B69002B41D03B6990
:104CC000002B3ED07B681B689A687B681B6842F4A7
:104CD00080029A6035E07B681B689B6803F4401390
:104CE000002B0CBF01230023DBB27B617B681B68B8
:104CF0005B6803F48063C3F3802383F00103DBB2BA
:104D00003B617B681B68154A93421AD17B69002B73
:104D100017D03B69002B14D07B681B689A687B68AE
:104D20001B6842F480029A600BE07B681B6C43F0C6
:104D300010027B681A647B685B6C43F001027B683D
:104D40005A64002318461C37BD4680BC704700BF1C
:104D50006C00002083DE1B43002301400020014043
:104D600080B485B000AF78600023FB737B6893F854
:104D70003C30012B01D1022337E07B68012283F80C
:104D80003C207B681B6C03F48073002B20D17B6874
:104D90001B685B6803F48063002B19D17B681B6878
:104DA0009A687B681B6822F001029A607B681B6826
:104DB0009B6803F00103002B12D17B681B6C23F46A
:104DC000885323F0010343F001027B681A6407E073
:104DD0007B681B6C43F020027B681A640123FB7321
:104DE0007B68002283F83C20FB7B18461437BD46C5
:104DF00080BC704780B584B000AF78603960002314
:104E0000FB6000F021FDF8601EE03B68B3F1FF3F5E
:104E10001AD03B68002B07D000F016FD0246FB6855
:104E2000D31A3A689A420FD27B681B681B6803F05A
:104E30000403042B08D07B6804221A647B680022D8
:104E400083F83C2003234BE07B681B681B6803F05E
:104E50000403042BD9D17B681B686FF00C021A6025
:104E60007B681B6C43F400527B681A647B681B6888
:104E70009B6803F44013002B31D17B681B689B6B4C
:104E800003F44013002B06D07B681B689B6803F477
:104E90008063002B23D17B681B685B6803F480630D
:104EA000002B1CD17B681B689B6803F04053002BD0
:104EB00015D17B681B7E002B11D17B681B6C23F402
:104EC00080527B681A647B681B6C03F48073002B30
:104ED00005D17B681B6C43F001027B681A640023D8
:104EE00018461037BD4680BD80B485B000AF7860ED
:104EF0000023FB737B6893F83C30012B01D1022324
:104F00003FE07B68012283F83C207B681B6C03F444
:104F10008073002B28D17B681B685B6803F4806377
:104F2000002B21D17B681B689A687B681B6822F084
:104F300001029A607B681B689B6803F00103002BE9
:104F40001AD17B681B685A687B681B6822F0800254
:104F50005A607B681B6C23F4885323F0010343F0F1
:104F600001027B681A6407E07B681B6C43F0200237
:104F70007B681A640123FB737B68002283F83C2062
:104F8000FB7B18461437BD4680BC704780B485B0A3
:104F900000AF786039600023FB607B681B686FF0AE
:104FA00004021A603B68042B0FD03B68042B20D806
:104FB0003B68032B0ED03B68032B1AD83B68012BB0
:104FC00012D03B68022B0AD013E07B681B689B6CF5
:104FD000FB600FE07B681B685B6CFB600AE07B6832
:104FE0001B681B6CFB6005E07B681B68DB6BFB6070
:104FF00000E000BFFB6818461437BD4680BC704710
:1050000080B586B000AFF860B9607A6000233B617C
:10501000FB6893F83C30012B01D10223ABE0FB6825
:10502000012283F83C20FB681B689B6803F00103A6
:10503000012B18D0FB681B689A68FB681B6842F05C
:1050400001029A604E4B1B684E4AA2FB03239A0C46
:1050500013465B0013443B6102E03B69013B3B614B
:105060003B69002BF9D1FB681B689B6803F00103C7
:10507000012B73D1FB681B6C23F4E06323F0010365
:1050800043F48072FB681A64FB681B685B6803F476
:105090008063002B07D0FB681B6C23F4405343F460
:1050A0008052FB681A64FB681B6C03F48053B3F5F1
:1050B000805F06D1FB685B6C23F00602FB685A64D4
:1050C00002E0FB6800225A64FB68002283F83C205F
:1050D000FB689B6B2C4ADA63FB689B6B2B4A1A6458
:1050E000FB689B6B2A4ADA64FB681B686FF002025C
:1050F0001A60FB681B685A68FB681B6842F0806294
:105100005A60244B7B61FB6893F83030002B06D04B
:105110007B695B6843F400527B695A6005E07B69F8
:105120005B6823F400527B695A60FB68986B7B696B
:1051300008331946BA687B6801F0E3FDFB681B6819
:105140009B6803F04053002B14D1FB681B689A68DE
:10515000FB681B6842F080429A600BE0FB681B6CA6
:1051600043F01002FB681A64FB685B6C43F00102B9
:10517000FB685A64002318461837BD4680BD00BF3F
:105180006C00002083DE1B4321560008C756000830
:10519000E35600080023014080B584B000AF78607A
:1051A0000023FB737B6893F83C30012B01D1022371
:1051B00038E07B68012283F83C207B681B689A6892
:1051C0007B681B6822F001029A60184BBB607B6809
:1051D0001B689B6803F00103002B1ED1BB685B6852
:1051E00023F40052BB685A607B689B6B184601F041
:1051F000E0FD0346FB737B681B685A687B681B688D
:1052000022F080625A607B681B6C23F4885323F081
:10521000010343F001027B681A647B68002283F873
:105220003C20FB7B18461037BD4680BD0023014063
:1052300080B485B000AF7860044BFB60FB689B686E
:1052400018461437BD4680BC704700BF002301409C
:1052500080B483B000AF786000BF0C37BD4680BC1F
:10526000704780B485B000AF786039607B6893F890
:105270003C30012B01D102237FE17B68012283F8BE
:105280003C203B681B68092B26D97B681B68D968C2
:105290003B681B689BB2A3F10A0213465B001344F0
:1052A000072202FA03F3DA437B681B680A40DA60DC
:1052B0007B681B68D9683B6898683B681B689BB231
:1052C000A3F10A0213465B00134400FA03F27B6861
:1052D0001B680A43DA6022E07B681B6819693B6837
:1052E0001B689BB21A4613465B001344072202FA5E
:1052F00003F3DA437B681B680A401A617B681B680A
:1053000019693B689A683B681B689BB2184603465C
:105310005B0003449A407B681B680A431A617B6800
:105320001B689A6B7B681B6822F440129A637B6847
:105330001B68996B3B681B69013B1A057B681B68FE
:105340000A439A637B681B68996B3B685B68DAB2B7
:105350003B681B69DBB2D31ADBB20333DBB21A46FC
:1053600013469B0013441F2202FA03F3DA437B68BF
:105370001B680A409A637B681B68996B3B681B68D3
:105380009BB218463B685B68DAB23B681B69DBB2CC
:10539000D31ADBB20333DBB21A4613469B00134425
:1053A00000FA03F27B681B680A439A633B689B69B7
:1053B000744A934222D07B681B689A687B681B689A
:1053C00022F470229A607B681B6899683B689A692E
:1053D0007B681B680A439A607B681B689A687B68D5
:1053E0001B6822F440129A607B681B6899683B68CE
:1053F000DA697B681B680A439A600FE07B681B6868
:105400009A687B681B6822F470229A607B681B682C
:105410009A687B681B6822F440129A603B685B7D47
:10542000002B08D07B681B685A687B681B6842F4B5
:1054300080625A6007E07B681B685A687B681B685B
:1054400022F480625A603B681B7D002B08D07B6889
:105450001B685A687B681B6842F480525A6007E0F8
:105460007B681B685A687B681B6822F480525A600C
:105470003B685B68032B2ED0032B40D8012B02D056
:10548000022B14D03BE07B681B685B697A6812686A
:1054900023F47F6323F00F0353617B681B68596912
:1054A0003B68DA687B681B680A435A613BE07B68AB
:1054B0001B689B697A68126823F47F6323F00F03EB
:1054C00093617B681B6899693B68DA687B681B6835
:1054D0000A439A6127E07B681B68DB697A68126877
:1054E00023F47F6323F00F03D3617B681B68D969C2
:1054F0003B68DA687B681B680A43DA6113E07B6803
:105500001B681B6A7A68126823F47F6323F00F0319
:1055100013627B681B68196A3B68DA687B681B68E2
:105520000A431A6200BF184BFB607B681B68174A6E
:10553000934209D13B681B68122B05D1FB685B685D
:1055400043F48002FB685A607B681B680F4A9342F1
:105550000ED13B681B680E4A934203D03B681B6820
:10556000112B05D1FB685B6843F40002FB685A60AD
:105570007B68002283F83C20002318461437BD4680
:1055800080BC704701000F00002301400020014053
:105590001200001080B485B000AF786039607B687D
:1055A00093F83C30012B01D1022331E07B680122CA
:1055B00083F83C20194BFB60FB685B6823F01F02FB
:1055C000FB685A60FB685A683B681B681A43FB68B3
:1055D0005A60FB685B6823F44042FB685A60FB68D2
:1055E0005A683B685B681A43FB685A60FB685B68F3
:1055F00023F47062FB685A60FB685A683B689B68DA
:105600001A43FB685A607B68002283F83C20002321
:1056100018461437BD4680BC704700BF00230140C8
:1056200080B584B000AF78607B689B6BFB60FB68E3
:105630001B6C03F05003002B3CD1FB681B6C43F444
:105640000072FB681A64FB681B689B6803F0405398
:10565000002B2BD1FB681B7E002B27D1FB681B681E
:10566000DB6A03F47003002B06D0FB681B689B68A1
:1056700003F48063002B19D1FB681B685A68FB6830
:105680001B6822F020025A60FB681B6C23F48072B6
:10569000FB681A64FB681B6C03F48053002B05D174
:1056A000FB681B6C43F00102FB681A64F868FEF7A4
:1056B00071FE04E0FB689B6BDB6C7868984700BF69
:1056C0001037BD4680BD80B584B000AF78607B6880
:1056D0009B6BFB60F868FEF766FE00BF1037BD46A7
:1056E00080BD80B584B000AF78607B689B6BFB6049
:1056F000FB6840221A64FB685B6C43F00402FB68A1
:105700005A64F868FEF761FE00BF1037BD4680BDE1
:1057100080B500AF0E4B1B680D4A43F40073136055
:105720000B4B1B680A4A43F480631360084B1B68E9
:10573000074A43F480731360032000F0B7FB0F2087
:1057400000F040F800F032F80023184680BD00BF9A
:10575000003C024080B500AF134B4FF0FF321A629D
:10576000114B00221A62104B4FF0FF325A620E4B5F
:1057700000225A620C4B4FF0FF321A610A4B002292
:105780001A61094B4FF0FF325A61074B00225A61F0
:10579000054B4FF0FF329A61034B00229A6100F0F3
:1057A0000BF80023184680BD0038024080B400AFDB
:1057B00000BFBD4680BC704780B400AF00BFBD468F
:1057C00080BC704780B582B000AF7860124B1A6819
:1057D000124B1B7819464FF47A73B3FBF1F3B2FB0B
:1057E000F3F3184600F0A9FB0346002B01D0012378
:1057F0000EE07B680F2B0AD8002279684FF0FF304B
:1058000000F05FFB064A7B681360002300E0012381
:1058100018460837BD4680BD6C000020640000209B
:105820006000002080B400AF054B1B781A46054B82
:105830001B681344034A136000BFBD4680BC704719
:1058400064000020200B002080B400AF024B1B68D6
:105850001846BD4680BC7047200B002080B400AFC6
:10586000024B1B681846BD4680BC70476000002094
:1058700080B584B000AF0346FB710023FB730E4B71
:105880001B78FA799A4212D00B4B1B78BB730A4AE9
:10589000FB791370094B1B681846FFF793FF03460B
:1058A000FB73FB7B002B02D0034ABB7B1370FB7B9B
:1058B00018461037BD4680BD6400002060000020FF
:1058C00080B400AF024B1B781846BD4680BC7047C1
:1058D0006400002080B584B000AF7860FFF7B4FFAB
:1058E000B8607B68FB60FB68B3F1FF3F05D00A4BF3
:1058F0001B781A46FB681344FB6000BFFFF7A4FF48
:105900000246BB68D31AFA689A42F7D800BF00BFB4
:105910001037BD4680BD00BF6400002080B400AFDA
:10592000044B1B68034A23F00203136000BFBD460B
:1059300080BC704710E000E080B400AF044B1B68EF
:10594000034A43F00203136000BFBD4680BC7047AA
:1059500010E000E080B400AF024B1846BD4680BCAA
:10596000704700BF000D070180B400AF034B1B68F8
:105970001B0C1846BD4680BC704700BF002004E0E9
:1059800080B400AF034B1B68C3F30B031846BD463E
:1059900080BC7047002004E080B400AF044B5B681B
:1059A000034A43F00103536000BFBD4680BC70470B
:1059B000002004E080B400AF044B5B68034A23F08E
:1059C0000103536000BFBD4680BC7047002004E067
:1059D00080B400AF044B5B68034A43F0020353609A
:1059E00000BFBD4680BC7047002004E080B400AF1B
:1059F000044B5B68034A23F00203536000BFBD46BB
:105A000080BC7047002004E080B400AF044B5B68AA
:105A1000034A43F00403536000BFBD4680BC704797
:105A2000002004E080B400AF044B5B68034A23F01D
:105A30000403536000BFBD4680BC7047002004E0F3
:105A400080B400AF034B01221A6000BFBD4680BC8A
:105A5000704700BF0004274280B400AF034B002210
:105A60001A6000BFBD4680BC704700BF00042742DB
:105A700080B400AF024B1B681846BD4680BC70471F
:105A8000107AFF1F80B400AF024B1B681846BD465A
:105A900080BC7047147AFF1F80B400AF024B1B68B4
:105AA0001846BD4680BC7047187AFF1F80B400AF0F
:105AB000034B01221A6000BFBD4680BC704700BF87
:105AC0002000274280B400AF034B00221A6000BFC1
:105AD000BD4680BC704700BF2000274280B485B01F
:105AE00000AF78607B6803F00703FB600C4BDB685A
