:020000040800F2
:100000000000032011C20208594D0208754D020874
:10001000914D0208AD4D0208C94D020800000000D4
:1000200000000000000000000000000061C20208A3
:10003000E54D02080000000061C20208014E0208FE
:1000400061C2020861C2020861C2020861C20208FC
:1000500061C2020861C2020861C2020861C20208EC
:1000600061C2020861C2020861C2020861C20208DC
:1000700061C2020861C2020861C2020861C20208CC
:1000800061C2020861C2020861C2020861C20208BC
:1000900061C2020861C2020861C2020861C20208AC
:1000A00061C2020861C2020861C2020861C202089C
:1000B00061C2020861C2020861C2020861C202088C
:1000C00061C2020861C2020861C2020861C202087C
:1000D00061C2020861C2020861C2020861C202086C
:1000E00061C2020861C2020861C2020861C202085C
:1000F00061C2020861C2020861C2020861C202084C
:1001000061C2020861C2020861C2020861C202083B
:1001100061C2020861C2020861C2020861C202082B
:1001200061C2020861C2020861C2020861C202081B
:1001300061C20208114E020861C2020861C20208CF
:1001400061C2020861C2020861C2020861C20208FB
:1001500061C2020861C2020861C2020861C20208EB
:1001600061C2020861C2020861C2020861C20208DB
:1001700061C2020861C2020861C2020800000000F8
:1001800061C2020861C2020861C2020861C20208BB
:1001900061C2020861C2020861C2020861C20208AB
:0C01A00061C2020861C2020861C20208CC
:1001C0000348044B834202D0034B03B118477047E6
:1001D000CC090020CC090020000000000548064999
:1001E0000B1AD90F01EBA301491002D0034B03B145
:1001F00018477047CC090020CC09002000000000FF
:1002000010B5064C237843B9FFF7DAFF044B13B15E
:100210000448AFF300800123237010BDCC090020F7
:100220000000000078C2020808B5044B1BB1044965
:100230000448AFF30080BDE80840CFE700000000AD
:10024000D009002078C20208A3F5803A704700BFA9
:10025000154B002B08BF114B9D46FFF7F5FF002102
:100260008B460F461148124A121A24F041FF0C4BDC
:10027000002B00D098470B4B002B00D09847002054
:10028000002104000D000B4824F0D8FE24F00CFFE0
:100290002000290000F010F824F0DCFE0000080027
:1002A000000000000000000000000000CC09002059
:1002B000E80A00207550020890B583B000AF1BF02B
:1002C000F5F800F03BF824F011FA154824F0EBFDA6
:1002D00000F08EF9134824F0E6FD00237B60002334
:1002E000FB7000F017FB104800F0A6FA0346002B45
:1002F000F9D00D4B0022DA770B490C4824F0D3FDDE
:100300000B4A0C4B14460FCB07C42370084800F06F
:10031000C7FA094824F0C7FD00F0FCFAE3E700BF84
:1003200098C20208A8C20208080A0020BCC202083B
:10033000E8090020D0C20208E0C2020880B483B0FD
:1003400000AF00237B602D4B1B6B2C4A43F0100346
:1003500013632A4B1B6B03F010037B607B68002345
:100360003B60264B1B6B254A43F040031363234B32
:100370001B6B03F040033B603B68214B1B68204A2A
:1003800023F4405313601E4B1B681D4A43F48053F3
:1003900013601B4B9B681A4A23F440539360184B1D
:1003A0009B68174A43F400539360154B5B68144AEB
:1003B00023F040035360134B1B68124A23F0404361
:1003C0001360104B1B680F4A43F0804313600D4BC2
:1003D0009B680C4A23F0404393600A4B9B68094A90
:1003E00043F000439360074B5B68064A23F40043E5
:1003F000536000BF0C37BD4680BC704700380240D8
:10040000001002400018024080B58CB000AF0023FD
:10041000BB61714B1B6C704A43F4804313646E4B99
:100420001B6C03F48043BB61BB6900237B616A4B97
:100430001B6B694A43F002031363674B1B6B03F0AA
:1004400002037B617B6900233B61634B1B6B624A48
:1004500043F004031363604B1B6B03F004033B6125
:100460003B690023FB605C4B1B6B5B4A43F004035E
:100470001363594B1B6B03F00403FB60FB68002301
:10048000BB60554B1B6B544A43F002031363524B42
:100490001B6B03F00203BB60BB6800237B604E4B09
:1004A0001B6B4D4A43F0080313634B4B1B6B03F06C
:1004B00008037B607B684FF48063FB6102233B622F
:1004C0000323BB6202237B620523FB6207F11C034B
:1004D0001946424812F08EFA0423FB6102233B6264
:1004E0000223BB6201237B620523FB6207F11C032D
:1004F00019463B4812F07EFA0823FB6102233B6257
:1005000002237B620523FB6207F11C031946344872
:1005100012F070FA334B344A1A60324B1B681A6877
:10052000304B1B6822F040021A602E4B4FF482724F
:100530005A602C4B2022DA612A4B00229A60294B08
:1005400000225A61274B00221A61264B00229A6230
:10055000244B0022DA62234B0022DA60214B002276
:100560001A62204B4FF400729A611E4B00225A62AD
:100570001C4803F075FE1B4B1B681A68194B1B685F
:1005800042F040021A604FF48053FB6101233B624A
:1005900001237B620223BB6207F11C0319460F484B
:1005A00012F028FA4FF40043FB6101233B62012360
:1005B0007B620223BB6207F11C0319460B4812F051
:1005C00019FA01224FF48051044812F0DEFC00BFFA
:1005D0003037BD4680BD00BF0038024000040240F5
:1005E00000080240280A002000380040000C0240A9
:1005F00080B500AF23F092FFFFF706FF00224FF413
:100600000041134812F0C1FC05221249302000F0CD
:1006100095F805220F492A2000F090F800210120CA
:1006200000F032F80121022000F02EF820211120E4
:1006300000F02AF82821052000F026F806210620DF
:1006400000F022F80221002000F01EF800BF80BD5B
:10065000000C02400400002080B586B002AF0346C3
:10066000FB7107F10E02F91DC82300930123054811
:1006700004F0AAF90346FB73BB7B18461037BD464E
:1006800080BD00BF280A002080B582B000AF0346BD
:100690000A46FB711346BB7100224FF4805110488B
:1006A00012F073FC052024F051FAFB7943F020038B
:1006B000DBB21846FFF7D0FF0A2024F047FABB79D7
:1006C0001846FFF7C9FF052024F040FA01224FF435
:1006D0008051034812F059FC00BF0837BD4680BD69
:1006E0000004024080B584B000AF0346FB710022D5
:1006F0004FF48051104812F048FC052024F026FAEF
:10070000FB791846FFF7A8FF0346FB730A2024F085
:100710001DFAFF20FFF7A0FF0346BB73052024F05E
:1007200015FA01224FF48051034812F02EFCBB7BD6
:1007300018461037BD4680BD0004024080B586B023
:1007400000AF0346B9607A60FB7300224FF480511A
:10075000194812F01AFC0A2024F0F8F9FB7B43F048
:100760002003DBB21846FFF777FF0A2024F0EEF9EA
:1007700000237B610CE07B69BA6813441B78184640
:10078000FFF76AFF0A2024F0E1F97B6901337B61FE
:100790007A697B689A42EEDB0A2024F0D7F90122BD
:1007A0004FF48051044812F0F0FB0A2024F0CEF9F7
:1007B00000BF1837BD4680BD0004024090B587B029
:1007C00000AF0346B9607A60FB7300224FF480519A
:1007D000184812F0DAFB0A2024F0B8F9FB7B18461F
:1007E000FFF73AFF0A2024F0B1F900237B610DE006
:1007F0007B69BA68D418FF20FFF72EFF03462370E9
:100800000A2024F0A3F97B6901337B617A697B6854
:100810009A42EDDB0A2024F099F901224FF480512D
:10082000044812F0B2FB0A2024F090F900BF1C37F4
:10083000BD4690BD0004024080B584B000AF786032
:100840000720FFF74FFF0346FB73FB7B03F04003DA
:10085000002B1DD00A2024F079F92022796861202C
:10086000FFF7ACFF0A2024F071F90021E220FFF726
:100870000BFF0A2024F06AF900224FF400410748D8
:1008800012F083FB70210720FFF7FEFE012300E03A
:10089000002318461037BD4680BD00BF000C024043
:1008A00080B582B000AF786072210020FFF7ECFEC7
:1008B00020227968A020FFF741FF00224FF4004179
:1008C000134812F062FB142024F040F901224FF487
:1008D00000410F4812F059FB142024F037F9002290
:1008E0004FF400410A4812F050FB41F2941024F0FA
:1008F0002DF973210020FFF7C7FE01224FF40041BC
:10090000034812F042FB00BF0837BD4680BD00BF60
:10091000000C024080B500AF03210020FFF7B4FEB9
:1009200001224FF40041024812F02FFB00BF80BDAE
:10093000000C024080B500AF01224FF40041024894
:1009400012F023FB00BF80BD000C024080B400AF5A
:1009500001231846BD4680BC704780B582B000AF09
:100960001720FFF7BFFE0346FB71FB7903F010036E
:1009700018460837BD4680BD80B582B000AF17204D
:10098000FFF7B0FE0346FB71FB7903F00103184645
:100990000837BD4680BD00BF80B483B000AF0023E0
:1009A0007B604E4B1B6B4D4A43F0100313634B4B64
:1009B0001B6B03F010037B607B68494B1B68484A44
:1009C00023F440231360464B1B68454A43F400233D
:1009D0001360434B9B68424A23F440239360404B8F
:1009E0009B683F4A43F4002393603D4B5B683C4A5D
:1009F00023F4007353603A4BDB68394A23F44023F5
:100A0000D360374B5B6A364A23F0F0035362344BB2
:100A10005B6A334A43F01003536200233B602F4B61
:100A20005B6C2E4A43F0010353642C4B5B6C03F068
:100A300001033B603B682B4B1B682B4AA2FB032343
:100A4000DB0C2A4A013B9362284B1B68274A23F0A0
:100A500010031360254B41F28732DA62234B40F6D4
:100A6000C4125A63214B9B69204A23F0700393619F
:100A70001E4B9B691D4A43F0600393611B4B9B69AE
:100A80001A4A43F008039361184B1B68174A43F056
:100A900080031360154B1B6A144A43F00103136271
:100AA000124B1B6A114A23F0040313620F4B1B6A9B
:100AB0000E4A23F0020313620C4B5B6C0B4A43F4A7
:100AC0000C435364094B1B68084A43F0010313604D
:100AD00000BF0C37BD4680BC704700BF00380240E5
:100AE000001002401800002083DE1B43000001407C
:100AF00080B400AF074B5B6C064A43F40043536479
:100B0000044B1B68034A43F00103136000BFBD465A
:100B100080BC70470000014080B400AF074B5B6CA5
:100B2000064A23F400435364044B1B68034A23F032
:100B30000103136000BFBD4680BC70470000014048
:100B400080B485B000AF78607B680B4AB2FBF3F3EA
:100B5000013BFB60094AFB68D362084AFB685B08FB
:100B60005363064B5B69054A43F00103536100BFC1
:100B70001437BD4680BC704740420F000000014062
:100B800080B584B000AF786039600123FB73002327
:100B9000BB60324B1B7E012B01D102235AE02F4B4D
:100BA00001221A764CF2503016F07CFC0346FB739F
:100BB000FB7B002B4AD13B684FF0FF321A607B6809
:100BC0001B68012B17D17B681B69DAB27B685B68F5
:100BD0001946104600F0C4F94CF2503016F062FC91
:100BE0000346FB731E4B1B691D4A23F4004323F08D
:100BF0000403136128E07B689B68BB601CE07B6892
:100C00001B69DBB21946B86800F0E2F94CF25030CB
:100C100016F048FC0346FB73114B1B69104A23F086
:100C2000FA031361FB7B002B03D03B68BA681A60A0
:100C30000AE0BB680133BB607B68DA687B689B684D
:100C40001344BA689A42DAD300F052FC034B0022F4
:100C50001A76FB7B18461037BD4680BDC00A0020BF
:100C6000003C024080B584B000AF78600023FB7385
:100C7000254B1B7E012B01D1022340E0224B012298
:100C80001A76224B1B69214A43F0807313611F4B74
:100C90001B691E4A43F0007313611C4BF322DA6098
:100CA0007B681B68012B10D1174B02221A707B68DE
:100CB0005B68154A13617B681B69DAB27B685B6805
:100CC0001946104600F04CF918E00F4B01221A703B
:100CD0007B68DB680C4A53607B689B680A4AD36078
:100CE0007B681B69DAB2084B1A727B689A687B686A
:100CF0001B69DBB21946104600F06AF9FB7B184607
:100D00001037BD4680BD00BFC00A0020003C024035
:100D100080B584B000AF78600123FB73324B1B7E3B
:100D2000012B01D102235BE02F4B01221A767B6855
:100D30001B6803F00103002B18D07B685B68012B54
:100D40000AD17B689A687B68DB681946104600F018
:100D50008DF90346FB7309E07B689A687B68DB6862
:100D60001946104600F0F0F90346FB737B681B68D8
:100D700003F00203002B07D07B681B69DBB2184627
:100D800000F006FB0346FB737B681B6803F004035B
:100D9000002B13D07B681B7E03F02003D8B27B6846
:100DA0001B7E03F04003D9B27B681B7E23F07F03D8
:100DB000DBB21A4600F006FB0346FB737B681B6838
:100DC00003F00803002B07D07B685B69DBB2184691
:100DD00000F028FB0346FB73034B00221A76FB7BD3
:100DE00018461037BD4680BDC00A002080B582B0CD
:100DF00000AF78607B680F221A6000F03FFB03466B
:100E00001A467B689A6000F045FB03461A467B68E9
:100E10001A6100F025FB03461A467B681A7600F03B
:100E200059FB03461A467B685A6100BF0837BD4626
:100E300080BD80B584B000AF78600123FB737B6810
:100E40001B6803F00103002B1ED07B685B68012B3D
:100E50000DD17B689B8918467B68DB8919467B68C6
:100E60009B681A4600F0FEF90346FB730CE07B68B2
:100E70009B8918467B68DB8919467B689B681A4604
:100E800000F038FA0346FB737B681B6803F002032B
:100E9000002B06D07B681B7C184600F0BBF903468C
:100EA000FB73FB7B18461037BD4680BD80B483B012
:100EB00000AF7860094B1B889AB27B689A81084B17
:100EC0001B889AB27B68DA81064B1B78DAB27B68A2
:100ED0001A7400BF0C37BD4680BC7047163C0240F8
:100EE0001A3C0240143C024080B483B000AFFF23A0
:100EF000FB71094B1B78DBB203F07F03FB71064AE1
:100F0000FB7963F07F03DBB21370002318460C37C4
:100F1000BD4680BC704700BF173C024080B483B020
:100F200000AFFF23FB71074B1B78DBB203F07F039D
:100F3000FB71044AFB791370002318460C37BD4639
:100F400080BC7047173C024080B400AF034B1B8845
:100F50009BB21846BD4680BC704700BF1A3C024099
:100F600080B483B000AF03463960FB71174B1B6937
:100F7000164A23F4407313613B68032B08D1134BCB
:100F80001B69124A43F4004343F0040313610FE06A
:100F90003B68012B06D10D4B1B690C4A43F004033F
:100FA000136105E0094B1B69084A43F400431361D0
:100FB000064B1A69FB791B021343044A43F480333E
:100FC000136100BF0C37BD4680BC7047003C024037
:100FD00080B485B000AF78600B46FB700023FB60E7
:100FE000FB78002B02D10023FB6010E0FB78012B83
:100FF00003D14FF48073FB6009E0FB78022B03D12F
:101000004FF40073FB6002E04FF44073FB607B68B9
:101010000B2B02D97B6804337B60134B1B69124A8C
:1010200023F440731361104B1A690F49FB68134393
:101030000B610D4B1B690C4A23F0F80313610A4B3B
:101040001A697B68DB001343074A43F0020313610C
:10105000054B1B69044A43F48033136100BF143706
:10106000BD4680BC704700BF003C024080B584B0E4
:1010700000AF786039600023FB734CF2503016F0FB
:1010800011FA0346FB73FB7B002B52D17B682B4A82
:10109000934205D13B68012B06D03B68032B03D05C
:1010A0007B68B3F5805F1CD27B68244A93420CD1E5
:1010B000234B1B889AB27B681B0B9BB2DB439BB212
:1010C0001F4913409BB20B8017E01D4B1B889AB23F
:1010D0007B689BB2DB439BB2194913409BB20B80E8
:1010E0000BE0184B1B889AB27B681B0B9BB2DB434F
:1010F0009BB2144913409BB20B807B680F4A93420A
:1011000017D13B68032B14D14CF2503016F0CAF9BA
:101110000346FB73FB7B002B0BD10A4B1B889AB257
:101120007B681B0B9BB2DB439BB2064913409BB20F
:101130000B80FB7B18461037BD4680BD00F0FF00DA
:10114000163C02401A3C024080B584B000AF786083
:1011500039600023FB734CF2503016F0A3F90346BC
:10116000FB73FB7B002B4AD17B68274A934205D156
:101170003B68012B06D03B68032B03D07B68B3F59B
:10118000805F18D27B68204A93420AD11F4B1B888C
:101190009AB27B681B0B9BB21C4913439BB20B801A
:1011A00013E01A4B1B889AB27B689BB21749134312
:1011B0009BB20B8009E0164B1B889AB27B681B0B15
:1011C0009BB2134913439BB20B807B680E4A934238
:1011D00015D13B68032B12D14CF2503016F062F956
:1011E0000346FB73FB7B002B09D1094B1B889AB28A
:1011F0007B681B0B9BB2064913439BB20B80FB7BA6
:1012000018461037BD4680BD00F0FF00163C024076
:101210001A3C024080B584B000AF0346FB71002346
:10122000FB734CF2503016F03DF90346FB73FB7B29
:10123000002B0FD10A4B1B78DBB2094A23F01003B5
:10124000DBB21370064B1B78DAB20549FB79134306
:10125000DBB20B70FB7B18461037BD4680BD00BF6C
:10126000143C024080B586B000AFF860B9607A6087
:101270000023FB754CF2503016F014F90346FB7551
:10128000FB7D002B2DD17B68012B02D07B68032BCB
:1012900009D1164B1B889AB2FB689BB213491343C2
:1012A0009BB20B8008E0124B1B889AB2BB689BB2C2
:1012B0000F4913439BB20B807B68032B11D14CF277
:1012C000503016F0EFF80346FB75FB7D002B08D17C
:1012D000074B1B889AB2BB689BB2054913439BB26C
:1012E0000B80FB7D18461837BD4680BD163C02407A
:1012F0001A3C024080B586B000AFF860B9607A60F1
:101300000023FB754CF2503016F0CCF80346FB7509
:10131000FB7D002B33D17B68012B02D07B68032B34
:101320000BD1194B1B889AB2FB689BB2DB439BB273
:10133000154913409BB20B800AE0144B1B889AB2EC
:10134000BB689BB2DB439BB2104913409BB20B803E
:101350007B68032B13D14CF2503016F0A3F80346F0
:10136000FB75FB7D002B0AD1084B1B889AB2BB682A
:101370009BB2DB439BB2054913409BB20B80FB7DC4
:1013800018461837BD4680BD163C02401A3C024044
:1013900080B584B000AF0346FB710023FB734CF2B1
:1013A000503016F07FF80346FB73FB7B002B02D115
:1013B000034AFB791370FB7B18461037BD4680BD8E
:1013C000153C024080B584B000AF0346FB710B466C
:1013D000BB7113467B71FF23FB730023BB734CF27D
:1013E000503016F05FF80346BB73BB7B002B11D166
:1013F0000B4B1B78DBB203F01F03FB73BA79FB7B4B
:101400001343DAB27B791343DAB20549FB7913430C
:10141000DBB20B70BB7B18461037BD4680BD00BFEA
:10142000143C024080B483B000AF0346FB710B4B09
:101430001B78DBB2094A23F00C03DBB21370074BB5
:101440001B78DAB20549FB791343DBB20B7000233A
:1014500018460C37BD4680BC704700BF143C0240A4
:1014600080B400AF044B5B69DBB223F01F03DBB237
:101470001846BD4680BC7047003C024080B400AFB7
:10148000034B1B889BB21846BD4680BC704700BF0B
:10149000163C024080B483B000AFAA23FB710C4B12
:1014A0001B78DBB2CC2B02D1CC23FB7109E0084BBB
:1014B0001B78DBB2AA2B02D1AA23FB7101E05523D2
:1014C000FB71FB7918460C37BD4680BC704700BFE6
:1014D000153C024080B400AF044B1B78DBB203F034
:1014E0000C03DBB21846BD4680BC7047143C02407A
:1014F00080B400AF1F4B1B6803F40073002B17D0A0
:101500001C4B1B681B4A23F400731360194B1B68A8
:10151000184A43F400631360164B1B68154A23F402
:1015200000631360134B1B68124A43F4007313608B
:10153000104B1B6803F48063002B17D00D4B1B6806
:101540000C4A23F4806313600A4B1B68094A43F476
:1015500080531360074B1B68064A23F480531360C3
:10156000044B1B68034A43F48063136000BFBD460D
:1015700080BC7047003C024080B582B000AF78600C
:101580007B68002B01D101233FE07B6893F83D305D
:10159000DBB2002B06D17B68002283F83C20786800
:1015A00000F091F97B68242283F83D207B681B685A
:1015B000DA687B681B6822F40052DA60786802F00F
:1015C00085FC7B681B681A697B681B6822F4904263
:1015D0001A617B681B685A697B681B6822F02A02C3
:1015E0005A617B681B68DA687B681B6842F40052AA
:1015F000DA607B6800221A647B68202283F83D2031
:101600007B68202283F83E20002318460837BD4619
:1016100080BD80B582B000AF78607B68002B01D1BF
:10162000012347E07B6893F83D30DBB2002B06D105
:101630007B68002283F83C20786800F044F97B68DE
:10164000242283F83D207B681B68DA687B681B686E
:1016500022F40052DA60786802F038FC7B681B687C
:101660001A697B681B6822F490421A617B681B68C8
:101670005A697B681B6822F022025A617B681B68EA
:101680005A697B681B6842F008025A617B681B68D4
:10169000DA687B681B6842F40052DA607B680022DB
:1016A0001A647B68202283F83D207B68202283F81F
:1016B0003E20002318460837BD4680BD80B582B065
:1016C00000AF786039607B68002B01D1012357E0BF
:1016D0007B6893F83D30DBB2002B06D17B6800229B
:1016E00083F83C20786800F0EEF87B68242283F8C9
:1016F0003D207B681B68DA687B681B6822F4005217
:10170000DA60786802F0E2FB7B681B681A697B6824
:101710001B6822F400621A617B681B685A697B6847
:101720001B6822F02A025A617B681B681A697B6871
:101730001B6842F480421A617B681B681A697B68E7
:101740001B6822F020021A617B681B6819697B689C
:101750001B683A680A431A617B681B68DA687B6811
:101760001B6842F40052DA607B6800221A647B68CE
:10177000202283F83D207B68202283F83E2000232E
:1017800018460837BD4680BD80B584B000AFF8600C
:101790000B467A60FB72FB68002B01D101235FE0EE
:1017A000FB6893F83D30DBB2002B06D1FB680022CA
:1017B00083F83C20F86800F086F8FB68242283F860
:1017C0003D20FB681B68DA68FB681B6822F4005246
:1017D000DA60F86802F07AFBFB681B681A69FB683C
:1017E0001B6822F490421A61FB681B685A69FB6807
:1017F0001B6822F02A025A61FB681B681A69FB68A1
:101800001B6822F00F021A61FB681B681969FA7ADB
:10181000FB681B680A431A61FB681B68DA68FB688F
:101820001B6822F40062DA60FB681B68D968FB68F9
:101830001B687A680A43DA60FB681B68DA68FB6831
:101840001B6842F40052DA60FB6800221A64FB68ED
:10185000202283F83D20FB68202283F83E200023CD
:1018600018461037BD4680BD80B582B000AF7860A5
:101870007B68002B01D1012321E07B68242283F8BF
:101880003D207B681B68DA687B681B6822F4005285
:10189000DA60786800F020F87B6800221A647B68C0
:1018A000002283F83D207B68002283F83E207B687D
:1018B00000221A637B68002283F83C20002318462C
:1018C0000837BD4680BD80B483B000AF786000BFEC
:1018D0000C37BD4680BC704780B483B000AF7860E1
:1018E00000BF0C37BD4680BC704780B58AB002AFE0
:1018F000F860B9603B601346FB8000237B61FB68A6
:1019000093F83D30DBB2202B7CD1BB68002B02D09A
:10191000FB88002B01D1012375E0FB6893F83C3074
:10192000012B01D102236EE0FB68012283F83C20E9
:10193000FB6800221A64FB68212283F83D2019F01D
:1019400051FE7861FB68FA889A84FB68FA88DA8429
:10195000FB689B68B3F5805F08D1FB681B69002BAF
:1019600004D10023FB61BB68BB6103E0BB68FB6182
:101970000023BB61FB68002283F83C202AE03B681F
:1019800000937B6900228021F86801F011FF034673
:10199000002B01D0032336E0FB69002B0BD1BB6980
:1019A0001B881A46FB681B68C2F308025A60BB69B1
:1019B0000233BB6107E0FB691A78FB681B685A6059
:1019C000FB690133FB61FB68DB8C9BB2013B9AB284
:1019D000FB68DA84FB68DB8C9BB2002BCFD13B68C1
:1019E00000937B6900224021F86801F0E1FE034684
:1019F000002B01D0032306E0FB68202283F83D2062
:101A0000002300E0022318462037BD4680BD80B584
:101A10008AB002AFF860B9603B601346FB800023D8
:101A20007B61FB6893F83E30DBB2202B40F08C806A
:101A3000BB68002B02D0FB88002B01D1012384E07E
:101A4000FB6893F83C30012B01D102237DE0FB6859
:101A5000012283F83C20FB6800221A64FB682222E2
:101A600083F83E20FB6800221A6319F0BBFD786101
:101A7000FB68FA889A85FB68FA88DA85FB689B68B8
:101A8000B3F5805F08D1FB681B69002B04D10023EC
:101A9000FB61BB68BB6103E0BB68FB610023BB610A
:101AA000FB68002283F83C2043E03B6800937B699D
:101AB00000222021F86801F07BFE0346002B01D0B4
:101AC000032342E0FB69002B0CD1FB681B685B68B9
:101AD0009BB2C3F308039AB2BB691A80BB69023395
:101AE000BB611FE0FB689B68B3F5805F07D0FB68B4
:101AF0009B68002B0AD1FB681B69002B06D1FB6891
:101B00001B685B68DAB2FB691A7008E0FB681B6847
:101B10005B68DBB203F07F03DAB2FB691A70FB6922
:101B20000133FB61FB68DB8D9BB2013B9AB2FB6822
:101B3000DA85FB68DB8D9BB2002BB6D1FB682022D7
:101B400083F83E20002300E0022318462037BD46DC
:101B500080BD80B485B000AFF860B9601346FB80EB
:101B6000FB6893F83D30DBB2202B30D1BB68002BF3
:101B700002D0FB88002B01D1012329E0FB6893F8F8
:101B80003C30012B01D1022322E0FB68012283F8C3
:101B90003C20FB68BA681A62FB68FA889A84FB6882
:101BA000FA88DA84FB6800221A64FB68212283F831
:101BB0003D20FB68002283F83C20FB681B68DA6844
:101BC000FB681B6842F08002DA60002300E0022319
:101BD00018461437BD4680BC704780B584B000AF4E
:101BE000F860B9601346FB80FB6893F83E30DBB2C7
:101BF000202B1DD1BB68002B02D0FB88002B01D10C
:101C0000012316E0FB6893F83C30012B01D102233D
:101C10000FE0FB68012283F83C20FB6800221A6376
:101C2000FB881A46B968F86801F030FE034600E008
:101C3000022318461037BD4680BD80B58CB000AF7A
:101C4000F860B9601346FB80FB6893F83D30DBB267
:101C5000202B65D1BB68002B02D0FB88002B01D163
:101C600001235EE0FB6893F83C30012B01D1022395
:101C700057E0FB68012283F83C20BA68FB681A62CF
:101C8000FB68FA889A84FB68FA88DA84FB68002289
:101C90001A64FB68212283F83D20FB685B6B234AB2
:101CA000DA63FB685B6B224A1A64FB685B6B214A50
:101CB000DA64FB685B6B00221A6507F10803FB62BC
:101CC000FB68586BFB6A1968FB681B6804331A468B
:101CD000FB8813F0F2FCFB681B686FF040021A608F
:101CE000FB68002283F83C20FB681B681433BB614F
:101CF000BB6953E8003F7B617B6943F08003BB62B3
:101D0000FB681B681433BA6A7A623B62396A7A6A82
:101D100041E80023FB61FB69002BE5D1002300E0D3
:101D2000022318463037BD4680BD00BF0B35000882
:101D3000A53500081D37000880B584B000AFF860F5
:101D4000B9601346FB80FB6893F83E30DBB2202B72
:101D50001DD1BB68002B02D0FB88002B01D10123D1
:101D600016E0FB6893F83C30012B01D102230FE011
:101D7000FB68012283F83C20FB6800221A63FB8881
:101D80001A46B968F86801F0BAFD034600E002237C
:101D900018461037BD4680BD80B49DB000AF786056
:101DA0000023FB667B6893F83C30012B01D10223B2
:101DB00098E07B68012283F83C207B681B685B69A4
:101DC00003F08003802B0CBF01230023DBB2FB66F2
:101DD0007B6893F83D30DBB2212B1CD1FB6E002BCE
:101DE00019D07B681B681433FB64FB6C53E8003F1D
:101DF000BB64BB6C23F08003BB667B681B68143339
:101E0000BA6EBA657B65796DBA6D41E800233B65B2
:101E10003B6D002BE5D17B681B685B6903F04003D9
:101E2000402B0CBF01230023DBB2FB667B6893F8D9
:101E30003E30DBB2222B50D1FB6E002B4DD07B68A5
:101E40001B680C33BB63BB6B53E8003F7B637B6B4E
:101E500023F480737B667B681B680C337A6E7A642C
:101E60003B64396C7A6C41E80023FB63FB6B002B0D
:101E7000E5D17B681B6814337B627B6A53E8003FC3
:101E80003B623B6A23F001033B667B681B681433AB
:101E90003A6E3A63FB62F96A3A6B41E80023BB622F
:101EA000BB6A002BE5D17B681B6814333B613B693F
:101EB00053E8003FFB60FB6823F04003FB657B6851
:101EC0001B681433FA6DFA61BB61B969FA6941E8BC
:101ED00000237B617B69002BE5D17B68002283F8BE
:101EE0003C20002318467437BD4680BC704780B440
:101EF0009DB000AF78607B6893F83C30012B01D136
:101F0000022387E07B68012283F83C207B6893F8FA
:101F10003D30DBB2212B19D17B681B6814333B6544
:101F20003B6D53E8003FFB64FB6C43F08003FB66B2
:101F30007B681B681433FA6EFA65BB65B96DFA6D80
:101F400041E800237B657B6D002BE5D17B6893F82E
:101F50003E30DBB2222B58D10023FB607B681B682C
:101F60001B68FB607B681B685B68FB60FB687B68C9
:101F70001B680C33FB63FB6B53E8003FBB63BB6B1D
:101F800043F48073BB667B681B680C33BA6EBA641B
:101F90007B64796CBA6C41E800233B643B6C002B9A
:101FA000E5D17B681B681433BB62BB6A53E8003F12
:101FB0007B627B6A43F001037B667B681B6814339A
:101FC0007A6E7A633B63396B7A6B41E80023FB627C
:101FD000FB6A002BE5D17B681B6814337B617B694E
:101FE00053E8003F3B613B6943F040033B667B683D
:101FF0001B6814333A6E3A62FB61F9693A6A41E848
:102000000023BB61BB69002BE5D17B68002283F80C
:102010003C20002318467437BD4680BC704780B50D
:1020200090B000AF78600023FB637B681B685B693E
:1020300003F08003802B0CBF01230023DBB2FB6382
:102040007B6893F83D30DBB2212B28D1FB6B002B52
:1020500025D07B681B6814337B627B6A53E8003FA2
:102060003B623B6A23F08003BB637B681B681433CD
:10207000BA6B3A63FB62F96A3A6B41E80023BB62D0
:10208000BB6A002BE5D17B685B6B002B04D07B68BF
:102090005B6B184613F069FB786801F0CBFC7B683A
:1020A0001B685B6903F04003402B0CBF0123002336
:1020B000DBB2FB637B6893F83E30DBB2222B28D186
:1020C000FB6B002B25D07B681B6814333B613B699D
:1020D00053E8003FFB60FB6823F040037B637B68B1
:1020E0001B6814337A6BFA61BB61B969FA6941E81C
:1020F00000237B617B69002BE5D17B689B6B002B08
:1021000004D07B689B6B184613F02FFB786801F0B6
:10211000B8FC002318464037BD4680BD80B588B066
:1021200000AFF860B9603B601346FB80FB6893F832
:102130003E30DBB2202B40F0C980BB68002B02D0C0
:10214000FB88002B01D10123C1E0FB6893F83C30F0
:10215000012B01D10223BAE0FB68012283F83C2065
:10216000FB6800221A64FB68222283F83E20FB6889
:1021700001221A6319F036FA7861FB68FA889A85A9
:10218000FB68FA88DA85FB689B68B3F5805F08D145
:10219000FB681B69002B04D10023FB61BB68BB619A
:1021A00003E0BB68FB610023BB61FB68002283F88E
:1021B0003C203B6800221A8074E0FB681B681B68A7
:1021C00003F01003102B14D100233B61FB681B6844
:1021D0001B683B61FB681B685B683B613B693B6854
:1021E0001B88002B05D0FB68202283F83E200023AB
:1021F0006DE0FB681B681B6803F02003202B3CD1BB
:10220000FB69002B0CD1FB681B685B689BB2C3F3B6
:1022100008039AB2BB691A80BB690233BB611FE035
:10222000FB689B68B3F5805F07D0FB689B68002B59
:102230000AD1FB681B69002B06D1FB681B685B6831
:10224000DAB2FB691A7008E0FB681B685B68DBB2F6
:1022500003F07F03DAB2FB691A70FB690133FB619B
:102260003B681B8801339AB23B681A80FB68DB8DA0
:102270009BB2013B9AB2FB68DA85BB6AB3F1FF3FC0
:1022800010D019F0AFF902467B69D31ABA6A9A42A4
:1022900002D3BB6A002B05D1FB68202283F83E20C5
:1022A000032314E0FB68DB8D9BB2002B85D1FB6818
:1022B0009A8DFB68DB8D9BB2D31A9AB23B681A8069
:1022C000FB68202283F83E20002300E0022318460A
:1022D0002037BD4680BD80B58CB000AFF860B960D6
:1022E0001346FB80FB6893F83E30DBB2202B52D1C3
:1022F000BB68002B02D0FB88002B01D101234BE0EF
:10230000FB6893F83C30012B01D1022344E0FB68C9
:10231000012283F83C20FB6801221A63FB881A46DD
:10232000B968F86801F0B2FA034687F82F3097F8D9
:102330002F30002B2CD1FB681B6B012B25D10023E8
:102340003B61FB681B681B683B61FB681B685B6843
:102350003B613B69FB681B680C33BB61BB6953E89D
:10236000003F7B617B6943F01003BB62FB681B6825
:102370000C33BA6A7A623B62396A7A6A41E80023AE
:10238000FB61FB69002BE5D102E0012387F82F30C8
:1023900097F82F3000E0022318463037BD4680BD45
:1023A00080B58CB000AFF860B9601346FB80FB6865
:1023B00093F83E30DBB2202B52D1BB68002B02D009
:1023C000FB88002B01D101234BE0FB6893F83C30E4
:1023D000012B01D1022344E0FB68012283F83C2059
:1023E000FB6801221A63FB881A46B968F86801F095
:1023F00086FA034687F82F3097F82F30002B2CD120
:10240000FB681B6B012B25D100233B61FB681B681C
:102410001B683B61FB681B685B683B613B69FB6851
:102420001B680C33BB61BB6953E8003F7B617B6970
:1024300043F01003BB62FB681B680C33BA6A7A6214
:102440003B62396A7A6A41E80023FB61FB69002B31
:10245000E5D102E0012387F82F3097F82F3000E014
:10246000022318463037BD4680BD80B5A0B000AF0E
:1024700078607B681B680C33FB65FB6D53E8003F9D
:10248000BB65BB6D23F4F073FB677B681B680C3383
:10249000FA6FBA667B66796EBA6E41E800233B66D6
:1024A0003B6E002BE5D17B681B681433BB64BB6CAF
:1024B00053E8003F7B647B6C23F00103BB677B68C0
:1024C0001B681433BA6F7A653B65396D7A6D41E8E4
:1024D0000023FB64FB6C002BE5D17B681B6B012B9D
:1024E00019D17B681B680C337B637B6B53E8003F1F
:1024F0003B633B6B23F010037B677B681B680C33EB
:102500007A6F3A64FB63F96B3A6C41E80023BB6372
:10251000BB6B002BE5D17B681B685B6903F0800314
:10252000802B36D17B681B6814333B623B6A53E8CF
:10253000003FFB61FB6923F080033B677B681B68FE
:1025400014333A6FFA62BB62B96AFA6A41E800234F
:102550007B627B6A002BE5D17B685B6B002B18D01C
:102560007B685B6B00221A657B685B6B184613F017
:10257000FCF80346002B0CD07B685B6B184613F00D
:10258000B6FC0346202B04D17B6810221A64032377
:1025900052E07B681B685B6903F04003402B36D137
:1025A0007B681B681433FB60FB6853E8003FBB602B
:1025B000BB6823F04003FB667B681B681433FA6E2C
:1025C000BA617B617969BA6941E800233B613B6983
:1025D000002BE5D17B689B6B002B18D07B689B6B35
:1025E00000221A657B689B6B184613F0BEF8034601
:1025F000002B0CD07B689B6B184613F078FC0346CD
:10260000202B04D17B6810221A64032314E07B681A
:102610000022DA847B680022DA857B6800221A6453
:102620007B68202283F83E207B68202283F83D20AF
:102630007B6800221A63002318468037BD4680BDA0
:1026400080B58EB000AF78607B681B680C333B624E
:102650003B6A53E8003FFB61FB6923F0C0037B63E7
:102660007B681B680C337A6BFA62BB62B96AFA6AE0
:1026700041E800237B627B6A002BE5D17B681B6805
:102680005B6903F08003802B36D17B681B681433B1
:10269000FB60FB6853E8003FBB60BB6823F080032E
:1026A0003B637B681B6814333A6BBA617B61796961
:1026B000BA6941E800233B613B69002BE5D17B68A7
:1026C0005B6B002B18D07B685B6B00221A657B6804
:1026D0005B6B184613F049F80346002B0CD07B685F
:1026E0005B6B184613F003FC0346202B04D17B6878
:1026F00010221A64032307E07B680022DA847B68D7
:10270000202283F83D20002318463837BD4680BD7F
:1027100080B59AB000AF78607B681B680C33BB64EF
:10272000BB6C53E8003F7B647B6C23F490737B6647
:102730007B681B680C337A6E7A653B65396D7A6D00
:1027400041E80023FB64FB6C002BE5D17B681B6830
:1027500014337B637B6B53E8003F3B633B6B23F09D
:1027600001033B667B681B6814333A6E3A64FB6373
:10277000F96B3A6C41E80023BB63BB6B002BE5D1DE
:102780007B681B6B012B19D17B681B680C333B6288
:102790003B6A53E8003FFB61FB6923F01003FB65D4
:1027A0007B681B680C33FA6DFA62BB62B96AFA6A1D
:1027B00041E800237B627B6A002BE5D17B681B68C4
:1027C0005B6903F04003402B36D17B681B681433F0
:1027D000FB60FB6853E8003FBB60BB6823F040032D
:1027E000BB657B681B681433BA6DBA617B6179691C
:1027F000BA6941E800233B613B69002BE5D17B6866
:102800009B6B002B18D07B689B6B00221A657B6842
:102810009B6B184612F0A9FF0346002B0CD07B6877
:102820009B6B184613F063FB0346202B04D17B6897
:1028300010221A6403230AE07B680022DA857B6891
:10284000202283F83E207B6800221A63002318466A
:102850006837BD4680BD80B5A2B000AF7860012367
:10286000C7F884307B681B680C333B663B6E53E8CB
:10287000003FFB65FB6D23F4F073C7F880307B6885
:102880001B680C33D7F88020FA66BB66B96EFA6E07
:1028900041E800237B667B6E002BE3D17B681B68DD
:1028A0001433FB64FB6C53E8003FBB64BB6C23F048
:1028B0000103FB677B681B681433FA6FBA657B659D
:1028C000796DBA6D41E800233B653B6D002BE5D186
:1028D0007B681B6B012B19D17B681B680C33BB63B6
:1028E000BB6B53E8003F7B637B6B23F01003BB673C
:1028F0007B681B680C33BA6F7A643B64396C7A6C02
:1029000041E80023FB63FB6B002BE5D17B685B6B2D
:10291000002B0FD07B681B685B6903F08003802B62
:1029200004D17B685B6B544A1A6503E07B685B6B80
:1029300000221A657B689B6B002B0FD07B681B689D
:102940005B6903F04003402B04D17B689B6B4B4ACF
:102950001A6503E07B689B6B00221A657B681B6825
:102960005B6903F08003802B2DD17B681B681433D7
:102970007B627B6A53E8003F3B623B6A23F0800343
:102980007B677B681B6814337A6F3A63FB62F96A72
:102990003A6B41E80023BB62BB6A002BE5D17B6840
:1029A0005B6B002B0FD07B685B6B184612F04DFF02
:1029B0000346002B04D07B685B6B00221A6502E0A3
:1029C0000023C7F884307B681B685B6903F0400311
:1029D000402B30D17B681B6814333B613B6953E863
:1029E000003FFB60FB6823F040033B677B681B688C
:1029F00014333A6FFA61BB61B969FA6941E800239F
:102A00007B617B69002BE5D17B689B6B002B12D02F
:102A10007B689B6B184612F018FF0346002B07D00B
:102A20007B689B6B00221A650123C7F8843002E0A3
:102A30000023C7F88430D7F88430012B16D17B6887
:102A40000022DA847B680022DA857B6800221A641F
:102A50007B68202283F83D207B68202283F83E207B
:102A60007B6800221A63786800F0EAFB00231846AE
:102A70008837BD4680BD00BF6F3B0008CF3B0008D4
:102A800080B58EB000AF78607B681B680C333B620A
:102A90003B6A53E8003FFB61FB6923F0C0037B63A3
:102AA0007B681B680C337A6BFA62BB62B96AFA6A9C
:102AB00041E800237B627B6A002BE5D17B681B68C1
:102AC0005B6903F08003802B3CD17B681B68143367
:102AD000FB60FB6853E8003FBB60BB6823F08003EA
:102AE0003B637B681B6814333A6BBA617B6179691D
:102AF000BA6941E800233B613B69002BE5D17B6863
:102B00005B6B002B13D07B685B6B164A1A657B6886
:102B10005B6B184612F099FE0346002B1CD07B68B5
:102B20005B6B1B6D7A68526B1046984714E07B68AC
:102B30000022DA847B68202283F83D20786800F048
:102B400088FB09E07B680022DA847B68202283F816
:102B50003D20786800F07DFB002318463837BD46DD
:102B600080BD00BF2F3C000880B59AB000AF7860F0
:102B70007B681B680C33BB64BB6C53E8003F7B6411
:102B80007B6C23F490737B667B681B680C337A6ED6
:102B90007A653B65396D7A6D41E80023FB64FB6C17
:102BA000002BE5D17B681B6814337B637B6B53E898
:102BB000003F3B633B6B23F001033B667B681B6874
:102BC00014333A6E3A64FB63F96B3A6C41E80023C4
:102BD000BB63BB6B002BE5D17B681B6B012B19D151
:102BE0007B681B680C333B623B6A53E8003FFB6128
:102BF000FB6923F01003FB657B681B680C33FA6DDF
:102C0000FA62BB62B96AFA6A41E800237B627B6AB6
:102C1000002BE5D17B681B685B6903F04003402B08
:102C20003FD17B681B681433FB60FB6853E8003FAF
:102C3000BB60BB6823F04003BB657B681B68143333
:102C4000BA6DBA617B617969BA6941E800233B6179
:102C50003B69002BE5D17B689B6B002B13D07B6815
:102C60009B6B194A1A657B689B6B184612F0EDFD49
:102C70000346002B22D07B689B6B1B6D7A68926B9E
:102C8000104698471AE07B680022DA857B6820228C
:102C900083F83E207B6800221A63786800F0E2FA2D
:102CA0000CE07B680022DA857B68202283F83E20D6
:102CB0007B6800221A63786800F0D4FA0023184673
:102CC0006837BD4680BD00BF593C000880B5BAB02A
:102CD00000AF78607B681B681B68C7F8E4307B68CE
:102CE0001B68DB68C7F8E0307B681B685B69C7F866
:102CF000DC300023C7F8D8300023C7F8D430D7F829
:102D0000E43003F00F03C7F8D830D7F8D830002BE1
:102D10000FD1D7F8E43003F02003002B09D0D7F807
:102D2000E03003F02003002B03D0786801F013F8A3
:102D300056E2D7F8D830002B00F0DE80D7F8DC3030
:102D400003F00103002B06D1D7F8E03003F49073B1
:102D5000002B00F0D180D7F8E43003F00103002B02
:102D60000BD0D7F8E03003F48073002B05D07B68DC
:102D70001B6C43F001027B681A64D7F8E43003F05F
:102D80000403002B0BD0D7F8DC3003F00103002B39
:102D900005D07B681B6C43F002027B681A64D7F88D
:102DA000E43003F00203002B0BD0D7F8DC3003F043
:102DB0000103002B05D07B681B6C43F004027B6889
:102DC0001A64D7F8E43003F00803002B11D0D7F8C9
:102DD000E03003F02003002B05D1D7F8DC3003F0FE
:102DE0000103002B05D07B681B6C43F008027B6855
:102DF0001A647B681B6C002B00F0ED81D7F8E4307F
:102E000003F02003002B08D0D7F8E03003F02003B4
:102E1000002B02D0786800F09EFF7B681B685B691E
:102E200003F04003402B0CBF01230023DBB2C7F8A3
:102E3000D4307B681B6C03F00803002B03D1D7F858
:102E4000D430002B4FD0786800F01BFE7B681B68E5
:102E50005B6903F04003402B41D17B681B6814334E
:102E6000C7F89C30D7F89C3053E8003FC7F898303B
:102E7000D7F8983023F04003C7F8D0307B681B6840
:102E80001433D7F8D020C7F8A820C7F8A430D7F853
:102E9000A410D7F8A82041E80023C7F8A030D7F83D
:102EA000A030002BD9D17B689B6B002B13D07B68A3
:102EB0009B6B7D4A1A657B689B6B184612F0C5FCBC
:102EC0000346002B16D07B689B6B1B6D7A68926B58
:102ED000104698470EE0786800F0A9F90AE0786893
:102EE00000F0A5F906E0786800F0A1F97B680022FF
:102EF0001A6470E100BF6EE17B681B6B012B40F030
:102F00004A81D7F8E43003F01003002B00F043812E
:102F1000D7F8E03003F01003002B00F03C810023D1
:102F2000BB607B681B681B68BB607B681B685B6859
:102F3000BB60BB687B681B685B6903F04003402B88
:102F400040F0B4807B689B6B1B685B68A7F8BE3061
:102F5000B7F8BE30002B00F040817B689B8DB7F83E
:102F6000BE209A4280F039817B68B7F8BE20DA85AE
:102F70007B689B6BDB69B3F5807F00F088807B68A2
:102F80001B680C33C7F88830D7F8883053E8003F07
:102F9000C7F88430D7F8843023F48073C7F8B8308A
:102FA0007B681B680C33D7F8B820C7F89420C7F8A3
:102FB0009030D7F89010D7F8942041E80023C7F854
:102FC0008C30D7F88C30002BD9D17B681B68143338
:102FD0007B677B6F53E8003F3B673B6F23F0010348
:102FE000C7F8B4307B681B681433D7F8B420C7F82F
:102FF0008020FB67F96FD7F8802041E80023BB678A
:10300000BB6F002BE1D17B681B6814333B663B6EC2
:1030100053E8003FFB65FB6D23F04003C7F8B03079
:103020007B681B681433D7F8B020FA66BB66B96EAC
:10303000FA6E41E800237B667B6E002BE3D17B6850
:10304000202283F83E207B6800221A637B681B687D
:103050000C33FB64FB6C53E8003FBB64BB6C23F098
:103060001003C7F8AC307B681B680C33D7F8AC2072
:10307000BA657B65796DBA6D41E800233B653B6DB0
:10308000002BE3D17B689B6B184612F06EFB7B68CC
:103090009A8D7B68DB8D9BB2D31A9BB219467868F8
:1030A00000F0E9F899E000BF473B00087B689A8D83
:1030B0007B68DB8D9BB2D31AA7F8CE307B68DB8DA3
:1030C0009BB2002B00F08B80B7F8CE30002B00F0C5
:1030D00086807B681B680C33BB63BB6B53E8003F87
:1030E0007B637B6B23F49073C7F8C8307B681B68E5
:1030F0000C33D7F8C8207A643B64396C7A6C41E8A9
:103100000023FB63FB6B002BE3D17B681B6814334C
:103110007B627B6A53E8003F3B623B6A23F001031A
:10312000C7F8C4307B681B681433D7F8C4203A63EF
:10313000FB62F96A3A6B41E80023BB62BB6A002B71
:10314000E3D17B68202283F83E207B6800221A634B
:103150007B681B680C333B613B6953E8003FFB60B5
:10316000FB6823F01003C7F8C0307B681B680C3382
:10317000D7F8C020FA61BB61B969FA6941E8002358
:103180007B617B69002BE3D1B7F8CE3019467868B4
:1031900000F071F823E0D7F8E43003F08003002B4F
:1031A00009D0D7F8E03003F08003002B03D0786813
:1031B00000F06AFD14E0D7F8E43003F04003002B80
:1031C0000ED0D7F8E03003F04003002B08D0786829
:1031D00000F0A9FD04E000BF02E000BF00E000BF76
:1031E000E837BD4680BD80B483B000AF786000BFD3
:1031F0000C37BD4680BC704780B483B000AF7860A8
:1032000000BF0C37BD4680BC704780B483B000AFB0
:10321000786000BF0C37BD4680BC704780B483B077
:1032200000AF786000BF0C37BD4680BC704780B4EB
:1032300083B000AF786000BF0C37BD4680BC7047DC
:1032400080B483B000AF786000BF0C37BD4680BC4F
:10325000704780B483B000AF786000BF0C37BD46C4
:1032600080BC704780B483B000AF786000BF0C377B
:10327000BD4680BC704780B483B000AF78600B4619
:103280007B8000BF0C37BD4680BC704780B489B0DE
:1032900000AF78607B6893F83C30012B01D10223AA
:1032A0002AE07B68012283F83C207B68242283F893
:1032B0003D207B681B680C33FB60FB6853E8003FD4
:1032C000BB60BB6843F00103FB617B681B680C3388
:1032D000FA69BA617B617969BA6941E800233B61A7
:1032E0003B69002BE5D17B68202283F83D207B6879
:1032F000002283F83C20002318462437BD4680BCBA
:10330000704780B489B000AF78607B6893F83C3038
:10331000012B01D102232AE07B68012283F83C20A3
:103320007B68242283F83D207B681B680C33FB609C
:10333000FB6853E8003FBB60BB6843F00203FB61DE
:103340007B681B680C33FA69BA617B617969BA6979
:1033500041E800233B613B69002BE5D17B682022DB
:1033600083F83D207B68002283F83C200023184628
:103370002437BD4680BC704780B489B000AF786008
:103380007B6893F83C30012B01D102232AE07B6853
:10339000012283F83C207B68242283F83D207B684F
:1033A0001B680C33FB60FB6853E8003FBB60BB68E5
:1033B00023F00203FB617B681B680C33FA69BA6176
:1033C0007B617969BA6941E800233B613B69002B65
:1033D000E5D17B68202283F83D207B68002283F8BA
:1033E0003C20002318462437BD4680BC704780B47B
:1033F00085B000AF78600023FB607B6893F83C30B9
:10340000012B01D1022320E07B68012283F83C20BC
:103410007B68242283F83D207B681B68DB68FB60A7
:10342000FB6823F00C03FB60FB6843F00803FB60C0
:103430007B681B68FA68DA607B68202283F83D208D
:103440007B68002283F83C20002318461437BD46D1
:1034500080BC704780B485B000AF78600023FB600B
:103460007B6893F83C30012B01D1022320E07B687C
:10347000012283F83C207B68242283F83D207B686E
:103480001B68DB68FB60FB6823F00C03FB60FB68D8
:1034900043F00403FB607B681B68FA68DA607B68B2
:1034A000202283F83D207B68002283F83C20002303
:1034B00018461437BD4680BC704780B485B000AF55
:1034C00078600023FB600023BB607B6893F83D308D
:1034D000DBB2FB607B6893F83E30DBB2BB60FB681D
:1034E000DAB2BB68DBB21343DBB218461437BD4611
:1034F00080BC704780B483B000AF78607B681B6C81
:1035000018460C37BD4680BC704780B590B000AF00
:1035100078607B689B6BFB637B681B681B6803F4AC
:103520008073002B37D1FB6B0022DA84FB6B1B68A6
:1035300014337B627B6A53E8003F3B623B6A23F0B3
:103540008003BB63FB6B1B681433BA6B3A63FB628B
:10355000F96A3A6B41E80023BB62BB6A002BE5D1F4
:10356000FB6B1B680C333B613B6953E8003FFB601E
:10357000FB6843F040037B63FB6B1B680C337A6B87
:10358000FA61BB61B969FA6941E800237B617B6933
:10359000002BE5D102E0F86BFFF725FE00BF4037B6
:1035A000BD4680BD80B584B000AF78607B689B6B02
:1035B000FB60F868FFF720FE00BF1037BD4680BDF6
:1035C00080B59CB000AF78607B689B6BFB667B68C6
:1035D0001B681B6803F48073002B72D1FB6E002202
:1035E000DA85FB6E1B680C33FB64FB6C53E8003F11
:1035F000BB64BB6C23F48073BB66FB6E1B680C332F
:10360000BA6EBA657B65796DBA6D41E800233B659A
:103610003B6D002BE5D1FB6E1B681433BB63BB6BAA
:1036200053E8003F7B637B6B23F001037B66FB6EFB
:103630001B6814337A6E7A643B64396C7A6C41E8A7
:103640000023FB63FB6B002BE5D1FB6E1B6814337F
:103650007B627B6A53E8003F3B623B6A23F0400396
:103660003B66FB6E1B6814333A6E3A63FB62F96A81
:103670003A6B41E80023BB62BB6A002BE5D1FB6ECD
:10368000202283F83E20FB6E1B6B012B19D1FB6EB1
:103690001B680C333B613B6953E8003FFB60FB68F0
:1036A00023F01003FB65FB6E1B680C33FA6DFA61A7
:1036B000BB61B969FA6941E800237B617B69002B32
:1036C000E5D1FB6E1B6B012B06D1FB6E9B8D194662
:1036D000F86EFFF7D0FD02E0F86EFFF796FD00BF31
:1036E0007037BD4680BD80B584B000AF78607B6820
:1036F0009B6BFB60FB681B6B012B08D1FB689B8DF0
:103700005B089BB21946F868FFF7B5FD02E0F86860
:10371000FFF784FD00BF1037BD4680BD80B584B083
:1037200000AF78600023FB607B689B6BBB60BB686D
:103730001B685B6903F08003802B0CBF012300230F
:10374000DBB2FB60BB6893F83D30DBB2212B08D1C4
:10375000FB68002B05D0BB680022DA84B86800F053
:1037600069F9BB681B685B6903F04003402B0CBF21
:1037700001230023DBB2FB60BB6893F83E30DBB271
:10378000222B08D1FB68002B05D0BB680022DA850C
:10379000B86800F076F9BB681B6C43F01002BB6898
:1037A0001A64B868FFF743FD00BF1037BD4680BDFF
:1037B00080B590B000AFF860B9603B601346FB7114
:1037C00050E0BB6CB3F1FF3F4CD0BB6C002B07D07B
:1037D00017F008FF02463B68D31ABA6C9A4241D2EE
:1037E000FB681B680C33BB62BB6A53E8003F7B621B
:1037F0007B6A23F4D073FB63FB681B680C33FA6BA2
:103800007A633B63396B7A6B41E80023FB62FB6AA6
:10381000002BE5D1FB681B6814337B617B6953E89F
:10382000003F3B613B6923F00103BB63FB681B68FE
:103830001433BA6B3A62FB61F9693A6A41E80023D2
:10384000BB61BB69002BE5D1FB68202283F83D20DA
:10385000FB68202283F83E20FB68002283F83C208E
:1038600003230FE0FB681B681A68BB681340BA6843
:103870009A420CBF01230023DBB21A46FB799A421D
:103880009FD0002318464037BD4680BD80B485B028
:1038900000AFF860B9601346FB80FB68BA689A62B3
:1038A000FB68FA889A85FB68FA88DA85FB6800224B
:1038B0001A64FB68222283F83E20FB68002283F80A
:1038C0003C20FB681B68DA68FB681B6842F4807266
:1038D000DA60FB681B685A69FB681B6842F00102EA
:1038E0005A61FB681B68DA68FB681B6842F02002BB
:1038F000DA60002318461437BD4680BC704780B597
:1039000098B000AFF860B9601346FB80BA68FB68F6
:103910009A62FB68FA889A85FB6800221A64FB6841
:10392000222283F83E20FB689B6B3F4ADA63FB68E8
:103930009B6B3E4A1A64FB689B6B3D4ADA64FB68EA
:103940009B6B00221A6507F10803FB65FB68986B07
:10395000FB681B6804331946FB6D1A68FB8811F07D
:10396000ACFE00233B61FB681B681B683B61FB6886
:103970001B685B683B613B69FB68002283F83C2065
:10398000FB681B680C333B643B6C53E8003FFB63F4
:10399000FB6B43F48073BB65FB681B680C33BA6D2B
:1039A000FA64BB64B96CFA6C41E800237B647B6CFD
:1039B000002BE5D1FB681B681433FB62FB6A53E8FC
:1039C000003FBB62BB6A43F001037B65FB681B6879
:1039D00014337A6DBA637B63796BBA6B41E8002369
:1039E0003B633B6B002BE5D1FB681B681433BB6169
:1039F000BB6953E8003F7B617B6943F040033B6553
:103A0000FB681B6814333A6D7A623B62396A7A6AE2
:103A100041E80023FB61FB69002BE5D10023184638
:103A20006037BD4680BD00BFC1350008E7360008DD
:103A30001D37000880B489B000AF78607B681B68D0
:103A40000C33FB60FB6853E8003FBB60BB6823F0AE
:103A5000C003FB617B681B680C33FA69BA617B6148
:103A60007969BA6941E800233B613B69002BE5D1E4
:103A70007B68202283F83D2000BF2437BD4680BCF0
:103A8000704780B495B000AF78607B681B680C33DA
:103A90007B637B6B53E8003F3B633B6B23F490738A
:103AA000FB647B681B680C33FA6C3A64FB63F96B4C
:103AB0003A6C41E80023BB63BB6B002BE5D17B680C
:103AC0001B6814333B623B6A53E8003FFB61FB69B0
:103AD00023F00103BB647B681B681433BA6CFA6281
:103AE000BB62B96AFA6A41E800237B627B6A002BF9
:103AF000E5D17B681B6B012B19D17B681B680C33EC
:103B0000FB60FB6853E8003FBB60BB6823F0100319
:103B10007B647B681B680C337A6CBA617B61796962
:103B2000BA6941E800233B613B69002BE5D17B6822
:103B3000202283F83E207B6800221A6300BF54379E
:103B4000BD4680BC704780B584B000AF78607B68AC
:103B50009B6BFB60FB680022DA85FB680022DA843D
:103B6000F868FFF764FB00BF1037BD4680BD80B525
:103B700084B000AF78607B689B6BFB60FB685B6B1D
:103B800000221A65FB689B6B002B04D0FB689B6BC3
:103B90001B6D002B17D1FB680022DA84FB68002222
:103BA000DA85FB6800221A64FB68202283F83D2036
:103BB000FB68202283F83E20FB6800221A63F86825
:103BC000FFF73EFB00E000BF1037BD4680BD80B56B
:103BD00084B000AF78607B689B6BFB60FB689B6B7D
:103BE00000221A65FB685B6B002B04D0FB685B6BE3
:103BF0001B6D002B17D1FB680022DA84FB680022C2
:103C0000DA85FB6800221A64FB68202283F83D20D5
:103C1000FB68202283F83E20FB6800221A63F868C4
:103C2000FFF70EFB00E000BF1037BD4680BD80B53A
:103C300084B000AF78607B689B6BFB60FB68002200
:103C4000DA84FB68202283F83D20F868FFF701FB47
:103C500000BF1037BD4680BD80B584B000AF78602E
:103C60007B689B6BFB60FB680022DA85FB68202287
:103C700083F83E20FB6800221A63F868FFF7F2FA27
:103C800000BF1037BD4680BD80B485B000AF7860FE
:103C90007B6893F83D30DBB2212B3ED17B689B687B
:103CA000B3F5805F14D17B681B69002B10D17B6852
:103CB0001B6AFB60FB681B881A467B681B68C2F3A3
:103CC00008025A607B681B6A9A1C7B681A6208E0CB
:103CD0007B681B6A591C7A6811621A787B681B68BA
:103CE0005A607B68DB8C9BB2013B9BB27A681946B9
:103CF000D184002B0FD17B681B68DA687B681B6856
:103D000022F08002DA607B681B68DA687B681B68D7
:103D100042F04002DA60002300E002231846143724
:103D2000BD4680BC704780B582B000AF78607B68CC
:103D30001B68DA687B681B6822F04002DA607B68E7
:103D4000202283F83D207868FFF74DFA00231846BB
:103D50000837BD4680BD80B58CB000AF78607B6809
:103D600093F83E30DBB2222B40F0AB807B689B683F
:103D7000B3F5805F17D17B681B69002B13D100233B
:103D8000FB627B689B6ABB627B681B685B689BB25B
:103D9000C3F308039AB2BB6A1A807B689B6A9A1CB9
:103DA0007B689A6226E07B689B6AFB620023BB62A9
:103DB0007B689B68B3F5805F07D07B689B68002BAE
:103DC0000AD17B681B69002B06D17B681B685B6886
:103DD000DAB2FB6A1A7008E07B681B685B68DBB2CA
:103DE00003F07F03DAB2FB6A1A707B689B6A5A1C85
:103DF0007B689A627B68DB8D9BB2013B9BB27A68E1
:103E00001946D185002B5AD17B681B68DA687B681C
:103E10001B6822F02002DA607B681B68DA687B6826
:103E20001B6822F48072DA607B681B685A697B68C1
:103E30001B6822F001025A617B68202283F83E2031
:103E40007B681B6B012B35D17B6800221A637B6872
:103E50001B680C337B617B6953E8003F3B613B6926
:103E600023F010037B627B681B680C337A6A3A622A
:103E7000FB61F9693A6A41E80023BB61BB69002B29
:103E8000E5D17B681B681B6803F01003102B0AD177
:103E90000023FB607B681B681B68FB607B681B68FA
:103EA0005B68FB60FB687B689B8D19467868FFF751
:103EB000E2F902E07868FFF7A8F9002302E00023A6
:103EC00000E0022318463037BD4680BD2DE9F04F93
:103ED0009FB000AFF866FB6E1B681B6923F440506F
:103EE000FB6ED968FB6E1A6840EA01031361FB6E32
:103EF0009A68FB6E1B691A43FB6E5B691A43FB6E83
:103F0000DB6913433B67FB6E1B68DB6823F41641D8
:103F100021F00C01FB6E1A683B6F0B43D360FB6E04
:103F20001B685B6923F44070FB6E9969FB6E1A682D
:103F300040EA01035361FB6E1A68654B9A4204D054
:103F4000FB6E1A68634B9A4203D117F043F9786706
:103F500002E017F02BF97867FB6EDB69B3F5004FD1
:103F600040F0BC807B6F1C464FF0000522462B467C
:103F7000911839645B417B64D7E91023121945EB32
:103F800003034FF000004FF00001D90041EA5271E5
:103F9000D00002460B46111939666B417B66FB6EF9
:103FA0005B681A464FF000039118B9635B41FB63ED
:103FB000D7E90E23D7E9180127F0B0FF02460B46D8
:103FC000454BA3FB02235B091E017B6F1C464FF090
:103FD000000522462B46911839635B417B63D7E984
:103FE0000C23121945EB03034FF000004FF00001C2
:103FF000D90041EA5271D00002460B461119B96549
:104000006B41FB65FB6E5B681A464FF0000391182D
:10401000B9625B41FB62D7E90A23D7E9160127F0B1
:104020007DFF02460B462C4BA3FB02135B09642168
:1040300001FB03F3D31ADB003233274AA2FB03232D
:104040005B095B0003F4F8731E447B6F18464FF066
:10405000000102460B4694183C625B417B62D7E943
:104060000823121841EB03034FF000044FF0000542
:10407000DD0045EA5275D40022462B4614183C65F3
:104080004B417B65FB6E5B681A464FF0000391184D
:10409000B9615B41FB61D7E90623D7E9140127F039
:1040A0003DFF02460B460C4BA3FB02135B09642148
:1040B00001FB03F3D31ADB003233074AA2FB0323CD
:1040C0005B0903F00702FB6E1B6832449A60BFE095
:1040D00000100140001401401F85EB517B6F1C460E
:1040E0004FF0000522462B46911839615B417B61F8
:1040F000D7E90423121945EB03034FF000004FF0FA
:104100000001D90041EA5271D00002460B4612EB81
:10411000040843EB0509FB6E5B6818464FF000018D
:104120004FF000024FF000038B0043EA90738200CF
:104130004046494627F0F2FE02460B46474BA3FB9A
:1041400002235B091E017B6F18464FF000010246F7
:104150000B469418BC605B41FB60D7E90223121840
:1041600041EB03034FF000044FF00005DD0045EA8A
:104170005275D40022462B461418BC644B41FB6494
:10418000FB6E5B6818464FF000014FF000024FF0E5
:1041900000038B0043EA90738200D7E9120127F0F5
:1041A000BDFE02460B462D4BA3FB02135B096421A7
:1041B00001FB03F3D31A1B013233284AA2FB03236A
:1041C0005B0903F0F0031E447B6F18464FF00001BB
:1041D00002460B4694183C605B417B60D7E90023A4
:1041E000121841EB03034FF000044FF00005DD000F
:1041F00045EA5275D40022462B4612EB000A43EBE7
:10420000010BFB6E5B6818464FF000014FF0000297
:104210004FF000038B0043EA9073820050465946EA
:1042200027F07CFE02460B460C4BA3FB02135B09F6
:10423000642101FB03F3D31A1B013233074AA2FBAB
:1042400003235B0903F00F02FB6E1B6832449A6084
:1042500000BF7C37BD46BDE8F08F00BF1F85EB5126
:1042600080B582B000AF78607B68002B01D101235C
:1042700083E07B685B6A002B08D17B685B68B3F5E1
:10428000827F09D07B680022DA6105E07B6800222A
:104290001A617B6800225A617B6893F85130DBB267
:1042A000002B06D17B68002283F85020786800F04C
:1042B00090F87B68022283F851207B681B681A689B
:1042C0007B681B6822F040021A607B685B6803F41D
:1042D00082727B689B6803F404431A437B68DB6843
:1042E00003F400631A437B681B6903F002031A435B
:1042F0007B685B6903F001031A437B689B6903F4E5
:1043000000731A437B68DB6903F038031A437B6848
:104310001B6A03F0800342EA03017B689B6A03F493
:1043200000527B681B680A431A607B689B691B0C00
:1043300003F004017B685B6A03F010027B681B6872
:104340000A435A607B689B6AB3F5005F05D17B68BE
:10435000DA6A7B681B6892B21A617B681B68DA694B
:104360007B681B6822F40062DA617B6800225A6570
:104370007B68012283F85120002318460837BD4688
:1043800080BD80B582B000AF78607B68002B01D122
:1043900001231AE07B68022283F851207B681B68A6
:1043A0001A687B681B6822F040021A60786800F087
:1043B00019F87B6800225A657B68002283F8512037
:1043C0007B68002283F85020002318460837BD463A
:1043D00080BD80B483B000AF786000BF0C37BD46AD
:1043E00080BC704780B483B000AF786000BF0C37EA
:1043F000BD4680BC704780B588B000AFF860B9603A
:104400003B601346FB800023FB77FB6893F850303A
:10441000012B01D1022348E1FB68012283F85020DF
:1044200017F0E0F8B861FB88FB82FB6893F8513025
:10443000DBB2012B02D00223FB772DE1BB68002BFE
:1044400002D0FB88002B02D10123FB7724E1FB681B
:10445000032283F85120FB6800225A65FB68BA6882
:104460001A63FB68FA889A86FB68FA88DA86FB6822
:1044700000229A63FB6800229A87FB680022DA8791
:10448000FB6800225A64FB6800221A64FB689B6880
:10449000B3F5004F0FD1FB681B681A68FB681B68F7
:1044A00022F040021A60FB681B681A68FB681B68F0
:1044B00042F480421A60FB689B6AB3F5005F0FD13B
:1044C000FB681B681A68FB681B6822F400521A60BC
:1044D000FB681B681A68FB681B6842F400521A608C
:1044E000FB681B681B6803F04003402B07D0FB6888
:1044F0001B681A68FB681B6842F040021A60FB6880
:10450000DB68B3F5006F4BD1FB685B68002B02D012
:10451000FB8A012B3ED1FB681B6B1A88FB681B686A
:10452000DA60FB681B6B9A1CFB681A63FB68DB8E06
:104530009BB2013B9AB2FB68DA862BE0FB681B68F2
:104540009B6803F00203022B12D1FB681B6B1A88D5
:10455000FB681B68DA60FB681B6B9A1CFB681A63BC
:10456000FB68DB8E9BB2013B9AB2FB68DA8611E0F6
:1045700017F038F80246BB69D31A3A689A4203D852
:104580003B68B3F1FF3F02D13B68002B02D103230C
:10459000FB7781E0FB68DB8E9BB2002BCED14CE039
:1045A000FB685B68002B02D0FB8A012B40D1FB68C3
:1045B0001A6BFB681B680C3312781A70FB681B6B54
:1045C0005A1CFB681A63FB68DB8E9BB2013B9AB2F4
:1045D000FB68DA862CE0FB681B689B6803F002032B
:1045E000022B13D1FB681A6BFB681B680C33127823
:1045F0001A70FB681B6B5A1CFB681A63FB68DB8E26
:104600009BB2013B9AB2FB68DA8611E016F0EAFF32
:104610000246BB69D31A3A689A4203D83B68B3F1A1
:10462000FF3F02D13B68002B02D10323FB7733E02D
:10463000FB68DB8E9BB2002BCDD1FB689B6AB3F588
:10464000005F07D1FB681B681A68FB681B6842F4AF
:1046500080521A60BA693968F86802F0F6F90346C0
:10466000002B02D0FB6820225A65FB689B68002B58
:104670000AD100233B61FB681B68DB683B61FB6878
:104680001B689B683B613B69FB685B6D002B02D03C
:104690000123FB7700E000BFFB68012283F8512073
:1046A000FB68002283F85020FB7F18462037BD4668
:1046B00080BD80B58AB002AFF860B9603B60134638
:1046C000FB8000237B610023FB77FB685B68B3F50D
:1046D000827F12D1FB689B68002B0ED1FB680422FD
:1046E00083F85120FA883B6800931346BA68B9688A
:1046F000F86800F069F9034662E1FB6893F850300E
:10470000012B01D102235BE1FB68012283F85020D9
:1047100016F068FFB861FB6893F85130DBB2012BEB
:1047200002D00223FB7742E1BB68002B02D0FB885A
:10473000002B02D10123FB7739E1FB68042283F8C7
:104740005120FB6800225A65FB68BA689A63FB68CF
:10475000FA889A87FB68FA88DA87FB6800221A636E
:10476000FB6800229A86FB680022DA86FB6800223A
:104770001A64FB6800225A64FB689B6AB3F5005F09
:1047800016D1FB681B681A68FB681B6822F400528C
:104790001A60FB681B681A68FB681B6842F40052C9
:1047A0001A60FB68DB8F9BB2013B9AB2FB68DA8729
:1047B000FB689B68B3F5004F0FD1FB681B681A6854
:1047C000FB681B6822F040021A60FB681B681A68CD
:1047D000FB681B6822F480421A60FB681B681B6838
:1047E00003F04003402B07D0FB681B681A68FB6886
:1047F0001B6842F040021A60FB68DB68002B62D144
:104800002EE0FB681B689B6803F00103012B15D1A8
:10481000FB681B6803F10C02FB689B6B1278D2B239
:104820001A70FB689B6B5A1CFB689A63FB68DB8FF2
:104830009BB2013B9AB2FB68DA8711E016F0D2FE18
:104840000246BB69D31A3A689A4203D83B68B3F16F
:10485000FF3F02D13B68002B02D10323FB77A6E088
:10486000FB68DB8F9BB2002BCBD131E0FB681B6870
:104870009B6803F00103012B13D1FB681B68DA6806
:10488000FB689B6B92B21A80FB689B6B9A1CFB685F
:104890009A63FB68DB8F9BB2013B9AB2FB68DA87B5
:1048A00011E016F09FFE0246BB69D31A3A689A429D
:1048B00003D83B68B3F1FF3F02D13B68002B02D124
:1048C0000323FB7773E0FB68DB8F9BB2002BCDD11A
:1048D000FB689B6AB3F5005F44D1FB681B681A68EC
:1048E000FB681B6842F480521A60BB6900933B6806
:1048F00001220121F86801F0BCFF0346002B02D021
:104900000323FB7753E0FB68DB68B3F5006F07D147
:10491000FB681B68DA68FB689B6B92B21A8008E040
:10492000FB681B6803F10C02FB689B6B1278D2B228
:104930001A70BB6900933B6801220121F86801F0FD
:1049400098FF0346002B08D0FB685B6D43F0020222
:10495000FB685A650323FB7729E0FB681B68DB686B
:104960007B617B69BA693968F86802F009F8034627
:10497000002B02D0FB6820225A65FB681B689B68ED
:1049800003F01003102B0AD1FB685B6D43F00202A9
:10499000FB685A65FB681B684FF6EF729A60FB680C
:1049A0005B6D002B02D00123FB7700E000BFFB68AA
:1049B000012283F85120FB68002283F85020FB7FFE
:1049C00018462037BD4680BD80B58EB002AFF86076
:1049D000B9607A607B8000237B610123FB62002346
:1049E00087F82B30FB6893F85030012B01D102235C
:1049F000F8E1FB68012283F8502016F0F3FD78629D
:104A0000FB6893F8513087F82330FB685B68FB61E3
:104A10007B887B8397F82330012B0FD0FB69B3F59C
:104A2000827F07D1FB689B68002B03D197F8233066
:104A3000042B03D0022387F82B30C9E1BB68002B7D
:104A400005D07B68002B02D07B88002B03D101238B
:104A500087F82B30BCE1FB6893F85130DBB2042BB4
:104A600003D0FB68052283F85120FB6800225A65B9
:104A7000FB687A689A63FB687A88DA87FB687A88C9
:104A80009A87FB68BA681A63FB687A88DA86FB68DB
:104A90007A889A86FB6800221A64FB6800225A64AE
:104AA000FB689B6AB3F5005F0FD1FB681B681A684F
:104AB000FB681B6822F400521A60FB681B681A68C6
:104AC000FB681B6842F400521A60FB681B681B6895
:104AD00003F04003402B07D0FB681B681A68FB6893
:104AE0001B6842F040021A60FB68DB68B3F5006F98
:104AF00040F08B80FB685B68002B02D07B8B012B26
:104B000078D1FB681B6B1A88FB681B68DA60FB684E
:104B10001B6B9A1CFB681A63FB68DB8E9BB2013B24
:104B20009AB2FB68DA8665E0FB681B689B6803F055
:104B30000203022B2DD1FB68DB8E9BB2002B28D009
:104B4000FB6A012B25D1FB681B6B1A88FB681B686D
:104B5000DA60FB681B6B9A1CFB681A63FB68DB8ED0
:104B60009BB2013B9AB2FB68DA860023FB62FB68CA
:104B7000DB8E9BB2002B0CD1FB689B6AB3F5005F08
:104B800007D1FB681B681A68FB681B6842F48052F7
:104B90001A60FB681B689B6803F00103012B19D1A5
:104BA000FB68DB8F9BB2002B14D0FB681B68DA68B4
:104BB000FB689B6B92B21A80FB689B6B9A1CFB682C
:104BC0009A63FB68DB8F9BB2013B9AB2FB68DA8782
:104BD0000123FB6216F006FD02467B6AD31ABA6B0C
:104BE0009A4207D8BB6BB3F1FF3F03D0032387F88A
:104BF0002B30EDE0FB68DB8E9BB2002B94D1FB6881
:104C0000DB8F9BB2002B8FD18EE0FB685B68002BA3
:104C100002D07B8B012B7DD1FB681A6BFB681B6874
:104C20000C3312781A70FB681B6B5A1CFB681A63F2
:104C3000FB68DB8E9BB2013B9AB2FB68DA8669E0C7
:104C4000FB681B689B6803F00203022B2ED1FB68F4
:104C5000DB8E9BB2002B29D0FB6A012B26D1FB688F
:104C60001A6BFB681B680C3312781A70FB681B6B9D
:104C70005A1CFB681A63FB68DB8E9BB2013B9AB23D
:104C8000FB68DA860023FB62FB68DB8E9BB2002B9D
:104C90000CD1FB689B6AB3F5005F07D1FB681B680A
:104CA0001A68FB681B6842F480521A60FB681B6834
:104CB0009B6803F00103012B19D1FB68DB8F9BB2CA
:104CC000002B14D0FB681B68DA68FB689B6BD2B2C0
:104CD0001A70FB689B6B5A1CFB689A63FB68DB8F3E
:104CE0009BB2013B9AB2FB68DA870123FB6216F0A4
:104CF00079FC02467B6AD31ABA6B9A4203D8BB6B23
:104D0000B3F1FF3F02D1BB6B002B03D1032387F824
:104D10002B305DE0FB68DB8E9BB2002B90D1FB68F3
:104D2000DB8F9BB2002B8BD1FB689B6AB3F5005FD6
:104D300019D17B6A0093BB6B01220121F86801F055
:104D400098FD0346002B09D0FB685B6D43F002021F
:104D5000FB685A65032387F82B3039E0FB681B6832
:104D6000DB687B617B69FB681B689B6803F0100351
:104D7000102B0DD1FB685B6D43F00202FB685A6596
:104D8000FB681B684FF6EF729A60012387F82B309F
:104D90007A6AB96BF86801F058FE0346002B06D01A
:104DA000012387F82B30FB6820225A6510E0FB684E
:104DB0009B68002B0BD100233B61FB681B68DB6801
:104DC0003B61FB681B689B683B613B6900E000BF7F
:104DD000FB68012283F85120FB68002283F85020F1
:104DE00097F82B3018463037BD4680BD80B487B069
:104DF00000AFF860B9601346FB800023FB75FB68C9
:104E000093F85030012B01D1022384E0FB6801228A
:104E100083F85020BB68002B02D0FB88002B02D106
:104E20000123FB7572E0FB6893F85130DBB2012B74
:104E300002D00223FB7569E0FB68032283F851204E
:104E4000FB6800225A65FB68BA681A63FB68FA8837
:104E50009A86FB68FA88DA86FB6800229A63FB6808
:104E600000229A87FB680022DA87FB6800221A6416
:104E7000FB68DB68002B03D0FB68294A5A6402E018
:104E8000FB68284A5A64FB689B68B3F5004F0FD152
:104E9000FB681B681A68FB681B6822F040021A60F6
:104EA000FB681B681A68FB681B6842F480421A6042
:104EB000FB689B6AB3F5005F0FD1FB681B681A683B
:104EC000FB681B6822F400521A60FB681B681A68B2
:104ED000FB681B6842F400521A60FB681B685A6842
:104EE000FB681B6842F0A0025A60FB681B681B68E5
:104EF00003F04003402B08D0FB681B681A68FB686E
:104F00001B6842F040021A6000E000BFFB6800220C
:104F100083F85020FB7D18461C37BD4680BC704787
:104F200015680008B567000880B586B000AFF86066
:104F3000B9601346FB800023FB75FB689B68002B60
:104F400010D1FB685B68B3F5827F0BD1FB6804224C
:104F500083F85120FB88BA68B968F86800F096F8C1
:104F600003468BE0FB6893F85030012B01D10223FC
:104F700084E0FB68012283F85020FB6893F85130ED
:104F8000DBB2012B02D00223FB7572E0BB68002B61
:104F900002D0FB88002B02D10123FB7569E0FB687E
:104FA000042283F85120FB6800225A65FB68BA6826
:104FB0009A63FB68FA889A87FB68FA88DA87FB6845
:104FC00000221A63FB6800229A86FB680022DA86B8
:104FD000FB6800225A64FB68DB68002B03D0FB6887
:104FE000284A1A6402E0FB68274A1A64FB689B6837
:104FF000B3F5004F0FD1FB681B681A68FB681B688C
:1050000022F040021A60FB681B681A68FB681B6884
:1050100022F480421A60FB689B6AB3F5005F0FD1EF
:10502000FB681B681A68FB681B6822F400521A6050
:10503000FB681B681A68FB681B6842F400521A6020
:10504000FB681B685A68FB681B6842F060025A6084
:10505000FB681B681B6803F04003402B08D0FB680B
:105060001B681A68FB681B6842F040021A6000E087
:1050700000BFFB68002283F85020FB7D18461837DC
:10508000BD4680BD356700087D66000880B487B0E6
:1050900000AFF860B9607A607B800023FB75FB6825
:1050A00093F85030012B01D102238AE0FB680122E2
:1050B00083F85020FB6893F85130BB75FB685B6840
:1050C0003B61BB7D012B0DD03B69B3F5827F06D1DF
:1050D000FB689B68002B02D1BB7D042B02D002230E
:1050E000FB7569E0BB68002B05D07B68002B02D004
:1050F0007B88002B02D10123FB755DE0FB6893F8F0
:105100005130DBB2042B03D0FB68052283F8512019
:10511000FB6800225A65FB68BA681A63FB687A88E4
:105120009A86FB687A88DA86FB687A689A63FB68F5
:105130007A889A87FB687A88DA87FB68DB68002BB5
:1051400006D0FB68214A1A64FB68214A5A6405E0CC
:10515000FB68204A1A64FB681F4A5A64FB689B6A12
:10516000B3F5005F0FD1FB681B681A68FB681B680A
:1051700022F400521A60FB681B681A68FB681B68FF
:1051800042F400521A60FB681B685A68FB681B688F
:1051900042F0E0025A60FB681B681B6803F04003A2
:1051A000402B08D0FB681B681A68FB681B6842F03C
:1051B00040021A6000E000BFFB68002283F8502024
:1051C000FB7D18461C37BD4680BC70472165000832
:1051D000C9650008D96300089764000880B586B0E7
:1051E00000AFF860B9601346FB800023FB75FB68D5
:1051F00093F85030012B01D10223B0E0FB6801226B
:1052000083F85020FB6893F85130DBB2012B02D0B9
:105210000223FB759EE0BB68002B02D0FB88002BAD
:1052200002D10123FB7595E0FB68032283F851202E
:10523000FB6800225A65FB68BA681A63FB68FA8843
:105240009A86FB68FA88DA86FB6800229A63FB6814
:1052500000225A64FB6800221A64FB6800229A87C5
:10526000FB680022DA87FB689B68B3F5004F0FD11B
:10527000FB681B681A68FB681B6822F040021A6012
:10528000FB681B681A68FB681B6842F480421A605E
:10529000FB689B6AB3F5005F0FD1FB681B681A6857
:1052A000FB681B6822F400521A60FB681B681A68CE
:1052B000FB681B6842F400521A60FB689B6C2A4A28
:1052C0001A64FB689B6C294ADA63FB689B6C284A6A
:1052D000DA64FB689B6C00221A65FB68986CFB68BB
:1052E0001B6B1946FB681B680C331A46FB68DB8E88
:1052F0009BB210F0E2F90346002B0CD0FB685B6D0B
:1053000043F01002FB685A650123FB75FB6801221C
:1053100083F851201EE0FB681B681B6803F0400304
:10532000402B07D0FB681B681A68FB681B6842F0BB
:1053300040021A60FB681B685A68FB681B6842F0F1
:1053400020025A60FB681B685A68FB681B6842F0C1
:1053500002025A60FB68002283F85020FB7D184649
:105360001837BD4680BD00BF89610008ED5E0008AA
:10537000DD61000880B586B000AFF860B960134603
:10538000FB800023FB75FB689B68002B10D1FB683A
:105390005B68B3F5827F0BD1FB68042283F8512050
:1053A000FB88BA68B968F86800F0C2F80346B4E050
:1053B000FB6893F85030012B01D10223ADE0FB686C
:1053C000012283F85020FB6893F85130DBB2012BA7
:1053D00002D00223FB759BE0BB68002B02D0FB8848
:1053E000002B02D10123FB7592E0FB68042283F8B5
:1053F0005120FB6800225A65FB68BA689A63FB6813
:10540000FA889A87FB68FA88DA87FB6800221A64B0
:10541000FB6800225A64FB6800229A86FB6800221F
:10542000DA86FB689B68B3F5004F0FD1FB681B68F9
:105430001A68FB681B6822F040021A60FB681B6850
:105440001A68FB681B6822F480421A60FB689B6A3A
:10545000B3F5005F0FD1FB681B681A68FB681B6817
:1054600022F400521A60FB681B681A68FB681B680C
:1054700042F400521A60FB68DB6C2A4A1A64FB682B
:10548000DB6C294ADA63FB68DB6C284ADA64FB6868
:10549000DB6C00221A65FB68D86CFB681B680C3358
:1054A0001946FB689B6B1A46FB68DB8F9BB210F0BA
:1054B00004F90346002B0CD0FB685B6D43F010022F
:1054C000FB685A650123FB75FB68012283F85120B4
:1054D0001EE0FB681B681B6803F04003402B07D0ED
:1054E000FB681B681A68FB681B6842F040021A6080
:1054F000FB681B685A68FB681B6842F020025A6010
:10550000FB681B685A68FB681B6842F001025A601E
:10551000FB68002283F85020FB7D18461837BD46F3
:1055200080BD00BFA5610008955F0008DD6100082F
:1055300080B586B000AFF860B9607A607B800023E8
:10554000FB75FB6893F85030012B01D10223F8E082
:10555000FB68012283F85020FB6893F85130BB753B
:10556000FB685B683B61BB7D012B0DD03B69B3F5EC
:10557000827F06D1FB689B68002B02D1BB7D042B88
:1055800002D00223FB75D7E0BB68002B05D07B68F7
:10559000002B02D07B88002B02D10123FB75CBE0CE
:1055A000FB6893F85130DBB2042B03D0FB68052273
:1055B00083F85120FB6800225A65FB68BA681A63B9
:1055C000FB687A889A86FB687A88DA86FB687A684C
:1055D0009A63FB687A889A87FB687A88DA87FB681F
:1055E00000221A64FB6800225A64FB689B6AB3F5C8
:1055F000005F0FD1FB681B681A68FB681B6822F408
:1056000000521A60FB681B681A68FB681B6842F44A
:1056100000521A60FB6893F85130DBB2042B08D1BA
:10562000FB68DB6C494A1A64FB68DB6C484ADA6346
:1056300007E0FB68DB6C474A1A64FB68DB6C464A90
:10564000DA63FB68DB6C454ADA64FB68DB6C0022DA
:105650001A65FB68D86CFB681B680C331946FB683D
:105660009B6B1A46FB68DB8F9BB210F026F8034653
:10567000002B0CD0FB685B6D43F01002FB685A6591
:105680000123FB75FB68012283F8512054E0FB687D
:105690001B685A68FB681B6842F001025A60FB688D
:1056A0009B6C00221A64FB689B6C0022DA63FB6827
:1056B0009B6C0022DA64FB689B6C00221A65FB6815
:1056C000986CFB681B6B1946FB681B680C331A4609
:1056D000FB68DB8E9BB20FF0F0FF0346002B0CD073
:1056E000FB685B6D43F01002FB685A650123FB7594
:1056F000FB68012283F851201EE0FB681B681B68D1
:1057000003F04003402B07D0FB681B681A68FB6856
:105710001B6842F040021A60FB681B685A68FB680D
:105720001B6842F020025A60FB681B685A68FB68DD
:105730001B6842F002025A60FB68002283F8502086
:10574000FB7D18461837BD4680BD00BFA561000827
:10575000955F0008C16100089B600008DD610008DA
:1057600080B588B000AF78600023FB776E4B1B6874
:105770006E4AA2FB03235B0A642202FB03F37B61F4
:105780007B69BB617B681B685A687B681B6822F079
:1057900020025A607B681B685B6803F08003802BE3
:1057A00017D17B68624A5A64BB69002B06D17B68BB
:1057B0005B6D43F040027B685A6508E0BB69013BC2
:1057C000BB617B6893F85130DBB2072BECD17B696E
:1057D000BB617B681B685B6803F04003402B17D1FB
:1057E0007B68544A1A64BB69002B06D17B685B6DE9
:1057F00043F040027B685A6508E0BB69013BBB612E
:105800007B6893F85130DBB2072BECD17B69BB612D
:105810007B681B685B6803F00203022B2ED17B6858
:105820009B6C002B2AD07B689B6C00221A657B68DE
:105830009B6C18460FF099FF0346002B02D07B6843
:1058400040225A657B681B685A687B681B6822F097
:1058500002025A60BB69002B06D17B685B6D43F086
:1058600040027B685A6509E0BB69013BBB617B680C
:105870001B689B6803F00203002BEBD07B681B685E
:105880005B6803F00103012B22D17B68DB6C002BEA
:105890001ED07B68DB6C00221A657B68DB6C1846C7
:1058A0000FF063FF0346002B02D07B6840225A654D
:1058B0007B681B681A687B681B6822F040021A60CC
:1058C0007B681B685A687B681B6822F001025A607B
:1058D0007B680022DA877B680022DA867B685B6D52
:1058E000402B02D10123FB7702E07B6800225A653E
:1058F00000233B617B681B68DB683B617B681B683E
:105900009B683B613B690023FB607B681B689B686D
:10591000FB60FB687B68012283F85120FB7F1846FF
:105920002037BD4680BD00BF18000020F119760564
:10593000E16D0008556D000880B588B000AF786053
:105940000023FB770123BB61724B1B68724AA2FBE9
:1059500003235B0A642202FB03F33B613B697B6127
:105960007B681B685A687B681B6822F020025A60BB
:105970007B681B685B6803F08003802B17D17B6812
:10598000664A5A647B69002B06D17B685B6D43F0E5
:1059900040027B685A6508E07B69013B7B617B685C
:1059A00093F85130DBB2072BECD13B697B617B680C
:1059B0001B685B6803F04003402B17D17B68584A93
:1059C0001A647B69002B06D17B685B6D43F0400253
:1059D0007B685A6508E07B69013B7B617B6893F8D3
:1059E0005130DBB2072BECD13B697B617B689B6C50
:1059F000002B0FD07B681B685B6803F00203022B4F
:105A000004D17B689B6C474A1A6503E07B689B6CFA
:105A100000221A657B68DB6C002B0FD07B681B684B
:105A20005B6803F00103012B04D17B68DB6C3E4A09
:105A30001A6503E07B68DB6C00221A657B681B68D3
:105A40005B6803F00203022B15D17B689B6C002B73
:105A500011D07B689B6C18460FF0F7FE0346002BB5
:105A600007D07B689B6C00221A657B6840225A65D0
:105A700001E00023BB617B681B685B6803F00103E6
:105A8000012B15D17B68DB6C002B11D07B68DB6CA4
:105A900018460FF0DAFE0346002B07D07B68DB6C5C
:105AA00000221A657B6840225A6501E00023BB6131
:105AB000BB69012B28D17B680022DA877B68002232
:105AC000DA867B685B6D402B02D10123FB7702E015
:105AD0007B6800225A650023FB607B681B68DB68DB
:105AE000FB607B681B689B68FB60FB680023BB60F6
